:100000000080001071010000E9010000F101000012
:10001000F9010000010200000902000000000000D8
:100020000000000000000000000000005D2800004B
:100030001902000000000000492900008529000085
:1000400031020000310200003102000031020000E4
:1000500031020000310200003102000031020000D4
:1000600031020000C5190000310200003102000019
:1000700031020000310200003102000031020000B4
:1000800031020000310200003102000031020000A4
:1000900031020000A5220000310200003102000000
:1000A0003102000031020000310200003102000084
:1000B0003102000031020000310200003102000074
:1000C000310200003102000031020000F047000060
:1000D000000000109C090000F047000000C007204D
:1000E000000000009C0900105802000000C007201A
:1000F0000000000080B489B000AFF860B9607A6099
:10010000BB68FB61FB68BB6100237B610AE0FB69A4
:100110001A1DFA61BA69111DB96112681A607B690A
:1001200004337B617A697B689A42F0D32437BD46F9
:100130005DF8047B704700BF80B485B000AF786085
:1001400039607B68FB600023BB6007E0FB681A1D19
:10015000FA6000221A60BB680433BB60BA683B686F
:100160009A42F3D31437BD465DF8047B704700BF55
:1001700080B584B000AF194BFB6013E0FB681A1D1B
:10018000FA601B68BB60FB681A1DFA601B687B6025
:10019000FB681A1DFA601B683B60B86879683A68AA
:1001A000FFF7A8FFFB680E4A9342E7D30DE0FB6818
:1001B0001A1DFA601B687B60FB681A1DFA601B68D9
:1001C0003B6078683968FFF7B7FFFB68054A9342E0
:1001D000EDD302F0B7F802F02FF8FEE7CC000000F4
:1001E000E4000000F400000080B400AFFEE700BFB0
:1001F00080B400AFFEE700BF80B400AFFEE700BFF1
:1002000080B400AFFEE700BF80B400AFFEE700BFE0
:1002100080B400AFFEE700BF80B400AFFEE700BFD0
:1002200080B400AFFEE700BF80B400AFFEE700BFC0
:1002300080B400AFFEE700BFFFFFFFFFFFFFFFFF3F
:10024000FFFFFFFFFFFFFFFFFFFFFFFFFFFFFFFFBE
:10025000FFFFFFFFFFFFFFFFFFFFFFFFFFFFFFFFAE
:10026000FFFFFFFFFFFFFFFFFFFFFFFFFFFFFFFF9E
:10027000FFFFFFFFFFFFFFFFFFFFFFFFFFFFFFFF8E
:10028000FFFFFFFFFFFFFFFFFFFFFFFFFFFFFFFF7E
:10029000FFFFFFFFFFFFFFFFFFFFFFFFFFFFFFFF6E
:1002A000FFFFFFFFFFFFFFFFFFFFFFFFFFFFFFFF5E
:1002B000FFFFFFFFFFFFFFFFFFFFFFFFFFFFFFFF4E
:1002C000FFFFFFFFFFFFFFFFFFFFFFFFFFFFFFFF3E
:1002D000FFFFFFFFFFFFFFFFFFFFFFFFFFFFFFFF2E
:1002E000FFFFFFFFFFFFFFFFFFFFFFFFFFFFFFFF1E
:1002F000FFFFFFFFFFFFFFFFFFFFFFFFFFFFFFFF0E
:1003000080B483B000AF0346FB71084997F907300A
:100310005B09FA7902F01F02012000FA02F241F8AB
:1003200023200C37BD465DF8047B704700E100E0F8
:1003300080B483B000AF78600B46FB701346BB708F
:10034000FB785B017A681344FA78520179680A44B1
:100350001168BA78012000FA02F20A431A600C37D9
:10036000BD465DF8047B704780B483B000AF786011
:100370000B46FB701346BB70FB785B017A68134435
:10038000FA78520179680A441168BA78012000FAB3
:1003900002F2D2430A401A600C37BD465DF8047B76
:1003A000704700BF80B582B000AF78600846114644
:1003B0001A460346FB700B46BB7013467B707B7876
:1003C000002B07D0FA78BB78786811461A46FFF7F9
:1003D000AFFF06E0FA78BB78786811461A46FFF757
:1003E000C3FF0837BD4680BD80B584B000AFF8605C
:1003F000B9607A60FB70BB68D9B27B68DAB2FB780F
:10040000F868FFF7CFFF1037BD4680BD80B483B0DA
:1004100000AF78600B46FB707B681B6897F9032080
:10042000032A05DC97F90320012101FA02F205E015
:1004300097F903200432012101FA02F21340002B44
:1004400014BF01230023DBB218460C37BD465DF80C
:10045000047B704780B483B000AF78600B46FB70BC
:1004600097F90330032B06DC97F90330012202FAD7
:1004700003F31A4606E097F903300433012202FA27
:1004800003F31A467B681A600C37BD465DF8047B9F
:10049000704700BF80B483B000AF78607B685B6852
:1004A00043F001027B685A607B685B6843F0080296
:1004B0007B685A600C37BD465DF8047B704700BF0F
:1004C00080B483B000AF786039607B683A68DA60E6
:1004D0000C37BD465DF8047B704700BF80B485B023
:1004E00000AFF8600B467A60FB7297F90B30062B71
:1004F0002CD801A252F823F0150500001D050000BC
:10050000250500002D050000350500003D05000013
:1005100045050000FB687A689A6118E0FB687A6814
:10052000DA6114E0FB687A681A6210E0FB687A68A6
:100530005A620CE0FB687A681A6408E0FB687A6823
:100540005A6404E0FB687A689A6400E000BF1437DC
:10055000BD465DF8047B704780B483B000AF78601F
:100560000B46FB707B685B69FA7802F0070251006A
:10057000FA7802F007020A44012101FA02F21A4352
:100580007B685A610C37BD465DF8047B704700BF3D
:1005900080B483B000AF78600B46FB707B6859690C
:1005A00097F9032013465B0013440133012202FA3A
:1005B00003F341EA03027B685A610C37BD465DF8DC
:1005C000047B704780B483B000AF78600B46FB704B
:1005D0007B68596997F9032013465B001344013384
:1005E000012202FA03F3DB4301EA03027B685A614A
:1005F0000C37BD465DF8047B704700BF80B483B004
:1006000000AF78600B46FB707B68596997F903204F
:1006100013465B0013440233012202FA03F3DB4367
:1006200001EA03027B685A610C37BD465DF8047B22
:10063000704700BF80B500AF0F480021FFF740FFB3
:100640000D4800214FF47A72FFF748FF0A48002155
:10065000FFF782FF08480021FFF79AFF06480021B4
:10066000FFF7CCFF044803F083F80348FFF712FFBD
:100670000920FFF745FE80BD0080014080B582B0B3
:1006800000AF7860214A7B6852F82330DBB2204803
:1006900019460022002303F087F81C4A7B6852F8B1
:1006A0002330DBB25BB21A4819461422FFF716FF5B
:1006B000164A7B6852F82330DBB25BB21448194605
:1006C000FFF74AFF114A7B6852F82330DBB25BB276
:1006D0000F481946FFF776FF0C4A7B6852F8233023
:1006E000DBB25BB20A481946FFF788FF074A7B680E
:1006F00052F82330DBB206481946012203F09AF87B
:10070000034803F035F80837BD4680BD48010010A6
:100710000080014090B5A1B000AF7860B9497A6817
:1007200013465B0013449B000B441C68B6497A686F
:1007300013465B0013449B000B441B68B3482146DF
:100740001A460123FFF750FEAE497A6813465B0054
:1007500013449B000B4404331C68AB497A6813466E
:100760005B0013449B000B4404331B68A7482146DD
:100770001A460123FFF738FEA2497A6813465B0048
:1007800013449B000B4408331C689F497A68134646
:100790005B0013449B000B4408331B689B482146B5
:1007A0001A460123FFF720FE99497A6813465B0039
:1007B00013449B000B441C6896497A6813465B00FF
:1007C00013449B000B441B68904821461A460123A2
:1007D000FFF70AFE8E497A6813465B0013449B00BC
:1007E0000B4404331C688B497A6813465B0013443E
:1007F0009B000B4404331B68844821461A4601239E
:10080000FFF7F2FD82497A6813465B0013449B00B0
:100810000B4408331C687F497A6813465B00134415
:100820009B000B4408331B68784821461A46012375
:10083000FFF7DAFD73497A6813465B0013449B00A7
:100840000B44196870487A6813465B0013449B0098
:1008500003441B68DAB26D4BFB67B967134687F830
:100860007730002387F87630BB6FDAB2FB6F3B67D7
:10087000134687F86F3097F8773087F86E3097F81F
:10088000763087F86D3097F86D30002B12D097F8DE
:100890006F305B013A6F134497F86F205201396F44
:1008A0000A44916997F86E20012000FA02F20A4387
:1008B0009A6111E097F86F305B013A6F134497F833
:1008C0006F205201396F0A44D16997F86E200120D8
:1008D00000FA02F20A43DA614A497A6813465B0079
:1008E00013449B000B440433196847487A68134645
:1008F0005B0013449B00034404331B68DAB2434B90
:10090000BB667966134687F86330002387F8623048
:100910007B6EDAB2BB6EFB65134687F85B3097F8E7
:10092000633087F85A3097F8623087F8593097F873
:100930005930002B12D097F85B305B01FA6D1344ED
:1009400097F85B205201F96D0A44916997F85A2093
:10095000012000FA02F20A439A6111E097F85B3035
:100960005B01FA6D134497F85B205201F96D0A445C
:10097000D16997F85A20012000FA02F20A43DA619D
:1009800020497A6813465B0013449B000B440833EC
:1009900019681D487A6813465B0013449B000344A2
:1009A00008331B68DAB2194B7B653965134687F843
:1009B0004F30002387F84E303B6DDAB27B6DBB645D
:1009C000134687F8473097F84F3087F8463097F846
:1009D0004E3087F8453097F84530002B1CD097F8FB
:1009E00047305B01BA6C134497F847205201B96C49
:1009F0000A44916997F84620012000FA02F20A435E
:100A00009A611BE0640000109400001000C00920EF
:100A1000040000103400001097F847305B01BA6CF6
:100A2000134497F847205201B96C0A44D16997F8EA
:100A30004620012000FA02F20A43DA6195497A68F9
:100A400013465B0013449B000B44196892487A6874
:100A500013465B0013449B0003441B68DAB28F4BC0
:100A60003B64F963134687F83B30012387F83A303B
:100A7000FB6BDAB23B6C7B63134687F8333097F835
:100A80003B3087F8323097F83A3087F8313097F8B2
:100A90003130002B12D097F833305B017A6B13445E
:100AA00097F833205201796B0A44916997F8322004
:100AB000012000FA02F20A439A6111E097F83330FC
:100AC0005B017A6B134497F833205201796B0A4427
:100AD000D16997F83220012000FA02F20A43DA6164
:100AE0006C497A6813465B0013449B000B44043343
:100AF000196869487A6813465B0013449B000344F5
:100B000004331B68DAB2654BFB62B962134687F89F
:100B10002730012387F82630BB6ADAB2FB6A3B62D2
:100B20001346FB7797F82730BB7797F826307B770B
:100B30007B7F002B0FD0FB7F5B013A6A1344FA7F67
:100B40005201396A0A449169BA7F012000FA02F21F
:100B50000A439A610EE0FB7F5B013A6A1344FA7F15
:100B60005201396A0A44D169BA7F012000FA02F2BF
:100B70000A43DA6147497A6813465B0013449B00D5
:100B80000B440833196844487A6813465B001344E1
:100B90009B00034408331B68DAB2404BBB617961A8
:100BA0001346FB740123BB747B69DAB2BB69FB603B
:100BB0001346FB72FB7CBB72BB7C7B727B7A002B87
:100BC0000FD0FB7A5B01FA681344FA7A5201F96894
:100BD0000A449169BA7A012000FA02F20A439A6142
:100BE0000EE0FB7A5B01FA681344FA7A5201F96865
:100BF0000A44D169BA7A012000FA02F20A43DA61A2
:100C000027497A6813465B0013449B000B441C6819
:100C100024497A6813465B0013449B000B441B680D
:100C20001E4821461A460023FFF7DEFB1C497A685E
:100C300013465B0013449B000B4404331C681949A2
:100C40007A6813465B0013449B000B4404331B6813
:100C5000124821461A460023FFF7C6FB10497A685E
:100C600013465B0013449B000B4408331C680D497A
:100C70007A6813465B0013449B000B4408331B68DF
:100C8000064821461A460023FFF7AEFB8437BD46CF
:100C900090BD00BF040000103400001000C0092007
:100CA000C4000010F400001080B4A1B000AF786060
:100CB000A74B5B681946A74A7B6842F82310A44BF0
:100CC000DB681946A44A7B6842F82310A24A7B6875
:100CD00052F82320A1497B6841F82320A0497A6873
:100CE00013465B0013449B000B4419689D487A68C7
:100CF00013465B0013449B0003441B68DAB29A4B13
:100D0000FB67B967134687F87730002387F876309A
:100D1000BB6FDAB2FB6F3B67134687F86F3097F80B
:100D2000773087F86E3097F8763087F86D3097F81F
:100D30006D30002B12D097F86F305B013A6F13447F
:100D400097F86F205201396F0A44916997F86E2025
:100D5000012000FA02F20A439A6111E097F86F301D
:100D60005B013A6F134497F86F205201396F0A44C0
:100D7000D16997F86E20012000FA02F20A43DA6185
:100D800077497A6813465B0013449B000B44043395
:100D9000196874487A6813465B0013449B00034447
:100DA00004331B68DAB2704BBB667966134687F86A
:100DB0006330002387F862307B6EDAB2BB6EFB656E
:100DC000134687F85B3097F8633087F85A3097F806
:100DD000623087F8593097F85930002B12D097F8C5
:100DE0005B305B01FA6D134497F85B205201F96D9B
:100DF0000A44916997F85A20012000FA02F20A4346
:100E00009A6111E097F85B305B01FA6D134497F833
:100E10005B205201F96D0A44D16997F85A200120EC
:100E200000FA02F20A43DA614D497A6813465B0020
:100E300013449B000B44083319684A487A681346E8
:100E40005B0013449B00034408331B68DAB2464B33
:100E50007B653965134687F84F30002387F84E309D
:100E60003B6DDAB27B6DBB64134687F8473097F869
:100E70004F3087F8463097F84E3087F8453097F86E
:100E80004530002B12D097F847305B01BA6C134401
:100E900097F847205201B96C0A44916997F84620A7
:100EA000012000FA02F20A439A6111E097F84730F4
:100EB0005B01BA6C134497F847205201B96C0A449D
:100EC000D16997F84620012000FA02F20A43DA615C
:100ED00026497A6813465B0013449B000B4419684B
:100EE00023487A6813465B0013449B0003441B6845
:100EF000DAB21D4B3B64F963134687F83B3001239C
:100F000087F83A30FB6BDAB23B6C7B63134687F8A9
:100F1000333097F83B3087F8323097F83A3087F81B
:100F2000313097F83130002B24D097F833305B0103
:100F30007A6B134497F833205201796B0A44916914
:100F400097F83220012000FA02F20A439A6123E066
:100F500024010010CC090010DC090010EC0900107D
:100F6000640000109400001000C00920040000106C
:100F70003400001097F833305B017A6B134497F814
:100F800033205201796B0A44D16997F8322001204D
:100F900000FA02F20A43DA614A497A6813465B00B2
:100FA00013449B000B440433196847487A6813467E
:100FB0005B0013449B00034404331B68DAB2434BC9
:100FC000FB62B962134687F82730012387F8263081
:100FD000BB6ADAB2FB6A3B621346FB7797F82730AD
:100FE000BB7797F826307B777B7F002B0FD0FB7F7A
:100FF0005B013A6A1344FA7F5201396A0A449169E3
:10100000BA7F012000FA02F20A439A610EE0FB7FE8
:101010005B013A6A1344FA7F5201396A0A44D16982
:10102000BA7F012000FA02F20A43DA6125497A68A0
:1010300013465B0013449B000B4408331968224895
:101040007A6813465B0013449B00034408331B6813
:10105000DAB21E4BBB6179611346FB740123BB748A
:101060007B69DAB2BB69FB601346FB72FB7CBB7227
:10107000BB7C7B727B7A002B0FD0FB7A5B01FA681A
:101080001344FA7A5201F9680A449169BA7A012044
:1010900000FA02F20A439A610EE0FB7A5B01FA68F9
:1010A0001344FA7A5201F9680A44D169BA7A0120E4
:1010B00000FA02F20A43DA618437BD465DF8047B28
:1010C000704700BF040000103400001000C0092069
:1010D00080B582B000AF7860584A7B6852F8233000
:1010E000012B12D0012B02D3022B2FD083E0786882
:1010F00000F0BCF8524A7B68002142F823104F4AA6
:101100007B68012142F8231092E04E4B1A694D4B47
:10111000DB68D21A4B4B1B6892FBF3F31A464A4B1F
:101120001A60484B5A68474B9B68D21A454B1B685C
:1011300092FBF3F31A46454B1A60454B00221A60A6
:101140003E4A7B68022142F8231071E0414A7B68E5
:1011500052F823303B4A926893422ED93E4A7B682C
:1011600052F823203B497B6851F823309A4241D3FF
:10117000786800F07BF8334BDB681946344B1B680A
:10118000314A126802FB03F3CA1834497B6841F8FC
:1011900023202C4B5B6819462D4B1B682B4A126889
:1011A00002FB03F3CA1A2B497B6841F82320284B22
:1011B0001B680133264A13603AE0284A7B6896216F
:1011C00042F82310264A7B6852F82330D9B2234ACA
:1011D0007B6852F823304AB2224811461A46FFF77C
:1011E0007DF9214B01221A60144A7B68002142F8E4
:1011F00023101DE01CE0194A7B68962142F8231059
:10120000174A7B6852F82330D9B2144A7B6852F8E7
:1012100023304AB2134811461A46FFF75FF9124BC2
:1012200001221A60054A7B68002142F8231000BFA2
:101230000D4B1B6818460837BD4680BD1C0A0010C0
:101240000C0A0010240100109C090010A0090010D5
:1012500000000010CC090010BC090010DC090010CF
:101260004801001000800140A409001080B5B0B012
:1012700000AF7860CE4A7B6852F82320CD497B6866
:1012800051F823309A4220D0CB4A7B6852F8233061
:10129000D9B2C74A7B6852F823304AB2C7481146D0
:1012A0001A46FFF71BF9C44A7B6852F82330DBB2B9
:1012B000C2481946012202F0BDFABD4A7B6852F8C5
:1012C0002320BC497B6841F82320BD4A7B6852F843
:1012D0002330042B00F2F88201A252F823F000BF61
:1012E000F5120000671400002D150000AB16000079
:1012F0005F170000B3497A6813465B0013449B00F4
:101300000B4408331968B0487A6813465B001344ED
:101310009B00034408331B68DAB2AC4BC7F8BC30FF
:10132000C7F8B810134687F8B730012387F8B630EE
:10133000D7F8B830DAB2D7F8BC30C7F8B0301346B7
:1013400087F8AF3097F8B73087F8AE3097F8B630F7
:1013500087F8AD3097F8AD30002B14D097F8AF3048
:101360005B01D7F8B020134497F8AF205201D7F8AB
:10137000B0100A44916997F8AE20012000FA02F2F9
:101380000A439A6113E097F8AF305B01D7F8B020B9
:10139000134497F8AF205201D7F8B0100A44D1692E
:1013A00097F8AE20012000FA02F20A43DA6185497B
:1013B0007A6813465B0013449B000B44196882480B
:1013C0007A6813465B0013449B0003441B68DAB23F
:1013D0007E4BC7F8A830C7F8A410134687F8A3308F
:1013E000002387F8A230D7F8A430DAB2D7F8A830B3
:1013F000C7F89C30134687F89B3097F8A33087F8DE
:101400009A3097F8A23087F8993097F89930002BE6
:1014100014D097F89B305B01D7F89C20134497F8C1
:101420009B205201D7F89C100A44916997F89A20A2
:10143000012000FA02F20A439A618EE297F89B308B
:101440005B01D7F89C20134497F89B205201D7F8F2
:101450009C100A44D16997F89A20012000FA02F200
:101460000A43DA6179E25A497A6813465B00134409
:101470009B000B440433196856487A6813465B0096
:1014800013449B00034404331B68DAB24F4BC7F884
:101490009430C7F89010134687F88F30002387F8F0
:1014A0008E30D7F89030DAB2D7F89430C7F8883059
:1014B000134687F8873097F88F3087F8863097F88B
:1014C0008E3087F8853097F88530002B14D097F848
:1014D00087305B01D7F88820134497F887205201A2
:1014E000D7F888100A44916997F88620012000FAFD
:1014F00002F20A439A6113E097F887305B01D7F84C
:101500008820134497F887205201D7F888100A449E
:10151000D16997F88620012000FA02F20A43DA61C5
:101520002D4A7B68022142F8231016E225497A6889
:1015300013465B0013449B000B44196822487A68E9
:1015400013465B0013449B0003441B68DAB21F4B35
:10155000C7F88030F967134687F87B30012387F896
:101560007A30FB6FDAB2D7F880307B67134687F8A2
:10157000733097F87B3087F8723097F87A3087F8B5
:10158000713097F87130002B28D097F873305B01D9
:101590007A6F134497F873205201796F0A44916966
:1015A00097F87220012000FA02F20A439A6127E0BC
:1015B000DC090010EC090010480100100080014017
:1015C000FC090010040000103400001000C00920C5
:1015D0006400001094000010AC09001097F87330FC
:1015E0005B017A6F134497F873205201796F0A44B4
:1015F000D16997F87220012000FA02F20A43DA61F9
:10160000AB497A6813465B0013449B000B440433D8
:101610001968A8487A6813465B0013449B0003448A
:1016200004331B68DAB2A44BFB66B966134687F82D
:101630006730002387F86630BB6EDAB2FB6E3B661C
:10164000134687F85F3097F8673087F85E3097F871
:10165000663087F85D3097F85D30002B12D097F830
:101660005F305B013A6E134497F85F205201396E88
:101670000A44916997F85E20012000FA02F20A43B9
:101680009A616AE197F85F305B013A6E134497F80C
:101690005F205201396E0A44D16997F85E2001201B
:1016A00000FA02F20A43DA6157E184497A68134684
:1016B0005B0013449B000B440833196880487A6828
:1016C00013465B0013449B00034408331B68DAB2E3
:1016D000794BBB657965134687F85330002387F84B
:1016E00052307B6DDAB2BB6DFB64134687F84B302A
:1016F00097F8533087F84A3097F8523087F84930D6
:1017000097F84930002B12D097F84B305B01FA6CF8
:10171000134497F84B205201F96C0A44916997F8E9
:101720004A20012000FA02F20A439A6111E097F878
:101730004B305B01FA6C134497F84B205201F96C63
:101740000A44D16997F84A20012000FA02F20A43BC
:10175000DA615C4A7B68002142F82310FDE05449BD
:101760007A6813465B0013449B000B4404331968EA
:1017700050487A6813465B0013449B0003440433CB
:101780001B68DAB24C4B7B643964134687F83F30F0
:10179000012387F83E303B6CDAB27B6CBB631346A7
:1017A00087F8373097F83F3087F8363097F83E3073
:1017B00087F8353097F83530002B12D097F837304E
:1017C0005B01BA6B134497F837205201B96B0A4496
:1017D000916997F83620012000FA02F20A439A61D3
:1017E00011E097F837305B01BA6B134497F8372054
:1017F0005201B96B0A44D16997F83620012000FAEA
:1018000002F20A43DA612A497A6813465B001344FC
:101810009B000B440833196826487A6813465B001E
:1018200013449B00034408331B68DAB2224B3B632A
:10183000F962134687F82B30002387F82A30FB6AB9
:10184000DAB23B6B7B62134687F8233097F82B3074
:1018500087F8223097F82A3087F8213097F821301E
:10186000002B12D097F823305B017A6A134497F863
:1018700023205201796A0A44916997F822200120B5
:1018800000FA02F20A439A6167E097F823305B019D
:101890007A6A134497F823205201796A0A44D1697D
:1018A00097F82220012000FA02F20A43DA6154E09C
:1018B000040000103400001000C009206400001073
:1018C00094000010AC09001037497A6813465B0099
:1018D00013449B000B44196834487A6813465B0034
:1018E00013449B0003441B68DAB2314BFB61B961BE
:1018F0001346FB750023BB75BB69DAB2FB693B611C
:101900001346FB73FB7DBB73BB7D7B737B7B002B23
:101910000FD0FB7B5B013A691344FA7B52013969B2
:101920000A449169BA7B012000FA02F20A439A61E3
:101930000EE0FB7B5B013A691344FA7B5201396983
:101940000A44D169BA7B012000FA02F20A43DA6143
:10195000184A7B68012142F82310174A7B6852F825
:101960002330042B0ED9144A7B68002142F823103F
:10197000124A7B6852F823305A1C10497B6841F8A0
:10198000232008E00C4A7B6852F823305A1C0A498D
:101990007B6841F823200A4A7B68002142F8231023
:1019A000C037BD4680BD00BF640000109400001029
:1019B00000C00920AC090010FC0900100C0A00103E
:1019C000BC09001080B5A8B000AFA8480021FEF700
:1019D0001DFD0346002B00F06781A54B1B680133FA
:1019E000A34A1360A24B5B680133A14A5360A04B2A
:1019F0009B6801339E4A93609D4BDB6801339C4A90
:101A0000D3609A480021FEF725FD9A4B1B689A4A3D
:101A100052F82330974A1268984951F82220D1B2DF
:101A2000974AC7F89C20C7F898300B4687F897303C
:101A3000012387F89630D7F89830DAB2D7F89C307F
:101A4000C7F89030134687F88F3097F8973087F8AB
:101A50008E3097F8963087F88D3097F88D30002BC0
:101A600014D097F88F305B01D7F89020134497F883
:101A70008F205201D7F890100A44916997F88E2070
:101A8000012000FA02F20A439A6113E097F88F30BE
:101A90005B01D7F89020134497F88F205201D7F8B4
:101AA00090100A44D16997F88E20012000FA02F2C2
:101AB0000A43DA616F4B5B686F4A033352F8233095
:101AC0006C4A52686D49033251F82220D1B26C4AF7
:101AD000C7F88820C7F884300B4687F88330012385
:101AE00087F88230D7F88430DAB2D7F88830FB67CD
:101AF000134687F87B3097F8833087F87A3097F869
:101B0000823087F8793097F87930002B12D097F827
:101B10007B305B01FA6F134497F87B205201F96F19
:101B20000A44916997F87A20012000FA02F20A43E8
:101B30009A6111E097F87B305B01FA6F134497F8D4
:101B40007B205201F96F0A44D16997F87A2001206D
:101B500000FA02F20A43DA61464B9B68464A0633B2
:101B600052F82330434A92684449063251F8222001
:101B7000D1B2434A7A673B670B4687F86F3001233F
:101B800087F86E303B6FDAB27B6FBB66134687F81F
:101B9000673097F86F3087F8663097F86E3087F8BF
:101BA000653097F86530002B12D097F867305B01ED
:101BB000BA6E134497F867205201B96E0A449169CE
:101BC00097F86620012000FA02F20A439A6111E0B8
:101BD00097F867305B01BA6E134497F8672052019B
:101BE000B96E0A44D16997F86620012000FA02F222
:101BF0000A43DA611F4BDB681F4A093352F823306E
:101C00001C4AD2681D49093251F82220D1B21C4A1F
:101C10003A66FB650B4687F85B30012387F85A303C
:101C2000FB6DDAB23B6E7B65134687F8533097F84D
:101C30005B3087F8523097F85A3087F8513097F870
:101C40005130002B1ED097F853305B017A6D13444E
:101C500097F853205201796D0A44916997F8522000
:101C6000012000FA02F20A439A611DE0008001405F
:101C7000BC090010AC0900106400001094000010B2
:101C800000C0092097F853305B017A6D134497F830
:101C900053205201796D0A44D16997F852200120EE
:101CA00000FA02F20A43DA61A4480321FEF7AEFB10
:101CB0000346002B4FD0A1480321FEF7CBFBA04BDE
:101CC0001B68A04A52F823309D4A12689E4951F879
:101CD0002220D1B29D4AFA64BB640B4687F8473094
:101CE000002387F84630BB6CDAB2FB6C3B641346CA
:101CF00087F83F3097F8473087F83E3097F84630FE
:101D000087F83D3097F83D30002B12D097F83F30E0
:101D10005B013A6C134497F83F205201396C0A4436
:101D2000916997F83E20012000FA02F20A439A6175
:101D300011E097F83F305B013A6C134497F83F206D
:101D40005201396C0A44D16997F83E20012000FA0B
:101D500002F20A43DA6179480421FEF757FB034691
:101D6000002B51D075480421FEF774FB744B5B685F
:101D7000744A033352F82330714A5268724903326D
:101D800051F82220D1B2714ABA637B630B4687F8BF
:101D90003330002387F832307B6BDAB2BB6BFB62E7
:101DA000134687F82B3097F8333087F82A3097F8A6
:101DB000323087F8293097F82930002B12D097F865
:101DC0002B305B01FA6A134497F82B205201F96A11
:101DD0000A44916997F82A20012000FA02F20A4386
:101DE0009A6111E097F82B305B01FA6A134497F877
:101DF0002B205201F96A0A44D16997F82A20012060
:101E000000FA02F20A43DA614C480521FEF7FEFAB5
:101E10000346002B43D049480521FEF71BFB484BE6
:101E20009B68484A063352F82330454A926846492F
:101E3000063251F82220D1B2444A7A623B620B4604
:101E4000FB770023BB773B6ADAB27B6ABB61134640
:101E5000FB75FB7FBB75BB7F7B757B7D002B0FD03C
:101E6000FB7D5B01BA691344FA7D5201B9690A44EA
:101E70009169BA7D012000FA02F20A439A610EE0EC
:101E8000FB7D5B01BA691344FA7D5201B9690A44CA
:101E9000D169BA7D012000FA02F20A43DA612748CB
:101EA0000621FEF7B3FA0346002B43D02348062150
:101EB000FEF7D0FA224BDB68224A093352F823306E
:101EC0001F4AD2682049093251F82220D1B21F4A54
:101ED0003A61FB600B46FB720023BB72FB68DAB20F
:101EE0003B697B601346FB70FB7ABB70BB7A7B70EF
:101EF0007B78002B0FD0FB785B017A681344FA786B
:101F0000520179680A449169BA78012000FA02F214
:101F10000A439A610EE0FB785B017A681344FA7811
:101F2000520179680A44D169BA78012000FA02F2B4
:101F30000A43DA61A037BD4680BD00BF0080014082
:101F4000AC090010640000109400001000C00920CB
:101F500090B585B000AF7860154B1B68002B02D19F
:101F6000134B144A1A60124B1B68FB60EFF3088393
:101F70001C462346BB600E4B1A687B681A44BB683C
:101F80009A420AD902200C49192200F019F80B4B89
:101F90000C221A604FF0FF3306E0054B1A687B688D
:101FA0001344034A1360FB6818461437BD4690BDBE
:101FB000A8090010F40B001058470000F00B0010A7
:101FC00080B485B000AFF860B9607A60FB68012B1F
:101FD00007D0022B07D0084B09221A604FF0FF33BD
:101FE00003E000BF00E000BF7B6818461437BD4621
:101FF0005DF8047B704700BFF00B001080B483B025
:1020000000AF0346FB71084997F907305B09FA797D
:1020100002F01F02012000FA02F241F823200C37DF
:10202000BD465DF8047B704700E100E080B483B0FA
:1020300000AF03463960FB7197F90730002B0BDACC
:102040000D49FB7903F00F03043B3A68D2B2D2008A
:10205000D2B20B441A7609E0084997F907303A687A
:10206000D2B2D200D2B20B4483F800230C37BD4663
:102070005DF8047B704700BF00ED00E000E100E088
:1020800080B582B000AF78607B68013BB3F1807FA0
:1020900001D301230FE00A4A7B68013B53604FF0F4
:1020A000FF301F21FFF7C2FF054B00229A60044B4F
:1020B00007221A60002318460837BD4680BD00BFBE
:1020C00010E000E080B485B000AF0346FB71084B20
:1020D0001B68C3F30B03FB60054AFB791B0319461E
:1020E000FB680B4313601437BD465DF8047B7047F3
:1020F00000C00F4080B500AF01F0CEFC0420FFF718
:10210000E1FF01F04FFC2A4B1B682A4AA2FB032384
:102110009B091846FFF7B4FF0020FEF7AFFA012035
:10212000FEF7ACFA0220FEF7A9FA0320FEF7A6FAA2
:10213000FEF780FA0020FEF7EDFA0120FEF7EAFA3A
:102140000220FEF7E7FA0320FEF7E4FA0020FEF78C
:10215000ABFD0120FEF7A8FD0220FEF7A5FD032040
:10216000FEF7A2FD144B1A6842F040021A60124BAF
:102170001A6842F080021A600F4B1A6842F48072AB
:102180001A600E4B1A6842F040021A600B4B1A6834
:1021900042F080021A60094B1A6842F480721A6099
:1021A00015200121FFF742FF1520FFF727FF80BD13
:1021B000EC0B0010D34D6210B0800240B48002409E
:1021C00080B584B000AF78607B68FB60FB681B68FB
:1021D000084A52F82330002B0AD0FB681B681846C7
:1021E000FFF744F8FB681B68024A002142F82310FD
:1021F000ECE700BF2C0A001080B584B000AF786017
:102200007B68FB60FB681B681846FEF761FF0246AF
:10221000074B1A60064B1B68002B08D0FB681B6835
:10222000044A012142F82310002000F043FDE9E7B1
:102230004C0A00103C0A001080B584B004AFFFF7D0
:1022400059FF0223009300230193002302930023EC
:1022500003930E480E4980220E4B00F08FFC0123A1
:1022600000930023019300230293002303930A4861
:102270000A498022074B00F081FC012000F074F82D
:102280000246074B1A6000F05DFDFEE7F9210000F1
:102290007447000044010010C12100008447000081
:1022A000E80B001080B400AF224B1B689B0903F0C1
:1022B0000103DBB2002B27D11F4B1B689B0903F0E6
:1022C0000103DBB2002B1FD11A4B1B68DB0903F0A3
:1022D0000103DBB2002B17D1174B1B68DB0903F09E
:1022E0000103DBB2002B0FD1124B1B681B0A03F05A
:1022F0000103DBB2002B07D10F4B1B681B0A03F055
:102300000103DBB2002B11D00C4B1A6842F04002E3
:102310001A600A4B1A6842F080021A60074B1A686A
:1023200042F480721A60064B0122DA60BD465DF805
:10233000047B7047A4800240A8800240AC80024029
:102340002C0A001080B582B000AF054B7B60054AB7
:102350007B681A6001F004FA0837BD4680BD00BFF3
:1023600008ED00E00000000080B584B000AF034637
:10237000FB714C2001F09CF9F860FB68002B2CD01D
:10238000FB6800225A60FB6800221A60FB6800228A
:102390009A60FB680022DA60FB6800229A63FB689F
:1023A0000122DA63FB6800221A64FB684FF0FF32F7
:1023B0005A64FB684FF0FF329A64FB68103318468A
:1023C00000F068F9FB682433184600F063F9F868F8
:1023D00000210022002300F005F8FB6818461037A2
:1023E000BD4680BD80B588B000AFF860B9607A6046
:1023F0003B600023FB61FB68BB6100F075FABB69C1
:102400009A6BBB69DB6B9A4202D33B68022B16D1F5
:10241000B869B9683A6800F071F8BB695B6A002B6B
:1024200009D0BB692433184600F0BEFE0346012BD9
:1024300001D100F049FA00F067FA012359E07B6806
:10244000002B03D100F060FA002352E0FB69002B5F
:1024500006D107F11003184600F0FCFE0123FB61D2
:1024600000F052FA00F098FC00F03EFABB695B6C99
:10247000B3F1FF3F02D1BB6900225A64BB699B6C78
:10248000B3F1FF3F02D1BB6900229A6400F03CFA2D
:1024900007F110023B1D1046194600F0F1FE0346FD
:1024A000002B1ED1B86900F0DDF80346002B12D0D6
:1024B000BB6903F110027B681046194600F044FE28
:1024C000B86900F083F800F09DFC0346002B0FD1A3
:1024D00000F0FAF90CE0B86900F078F800F092FC2E
:1024E0008BE7B86900F072F800F08CFC002300E084
:1024F00083E718462037BD4680BD00BF80B584B055
:1025000000AFF860B9607A60FB681B6C002B0CD1DF
:10251000FB681B68002B51D1FB685B68184601F013
:1025200089F8FB6800225A6048E07B68002B1AD1CA
:10253000FB689A68FB681B6C1046B9681A4601F084
:1025400007FFFB689A68FB681B6C1A44FB689A607B
:10255000FB689A68FB685B689A422FD3FB681A682D
:10256000FB689A602AE0FB68DA68FB681B6C10461F
:10257000B9681A4601F0ECFEFB68DA68FB681B6C70
:102580005B421A44FB68DA60FB68DA68FB681B6828
:102590009A4207D2FB685A68FB681B6C5B421A447C
:1025A000FB68DA607B68022B08D1FB689B6B002B11
:1025B00004D0FB689B6B5A1EFB689A63FB689B6B9D
:1025C0005A1CFB689A631037BD4680BD80B582B047
:1025D00000AF786000F088F914E07B685B6A002B3C
:1025E0000AD07B682433184600F0DEFD0346002B3A
:1025F00003D000F089FE00E008E07B689B6C5A1E67
:102600007B689A647B689B6C002BE6DC7B684FF0F0
:10261000FF329A6400F078F900F066F914E07B6804
:102620001B69002B0FD07B681033184600F0BCFDEF
:102630000346002B01D000F067FE7B685B6C5A1EDE
:102640007B685A6400E003E07B685B6C002BE6DC8F
:102650007B684FF0FF325A6400F056F90837BD46E8
:1026600080BD00BF80B584B000AF786000F03CF959
:102670007B689A6B7B68DB6B9A4202D10123FB601B
:1026800001E00023FB6000F03FF9FB6818461037BB
:10269000BD4680BD80B483B000AF78607B6803F135
:1026A00008027B685A607B684FF0FF329A607B6853
:1026B00003F108027B68DA607B6803F108027B683B
:1026C0001A617B6800221A600C37BD465DF8047BF6
:1026D000704700BF80B483B000AF78607B68002291
:1026E0001A610C37BD465DF8047B704780B485B035
:1026F00000AF786039607B685B68FB603B68FA68B4
:102700005A60FB689A683B689A60FB689B683A6805
:102710005A60FB683A689A603B687A681A617B681D
:102720001B685A1C7B681A601437BD465DF8047B31
:10273000704700BF80B485B000AF786039603B68F7
:102740001B68BB60BB68B3F1FF3F03D17B681B69AB
:10275000FB600CE07B680833FB6002E0FB685B68B1
:10276000FB60FB685B681A68BB689A42F6D9FB6835
:102770005A683B685A603B685B683A689A603B6895
:10278000FA689A60FB683A685A603B687A681A612E
:102790007B681B685A1C7B681A601437BD465DF85D
:1027A000047B704780B485B000AF78607B685B685D
:1027B0007A6892689A607B689B687A6852685A6007
:1027C0007B681B69FB60FB685A687B689A4203D18F
:1027D0007B689A68FB685A607B6800221A61FB6814
:1027E0001B685A1EFB681A60FB681B681846143782
:1027F000BD465DF8047B704780B485B000AFF860DB
:10280000B9607A60FB68043BFB60FB684FF0807244
:102810001A60FB68043BFB60BA68FB681A60FB68DF
:10282000043BFB60094AFB681A60FB68143BFB60D1
:102830007A68FB681A60FB68203BFB60FB681846FF
:102840001437BD465DF8047B704700BF5128000077
:1028500080B500AF00F06AF8FEE700BF064B1968CC
:102860000868B0E8F00F80F309884FF0000080F3AB
:1028700011884EF00D0E70475C0A00100348006886
:10288000006880F3088862B600DF00BF08ED00E052
:1028900080B500AF0A4A0A4B1B6843F47803136003
:1028A000074A074B1B6843F07843136000F02AF98E
:1028B000044B00221A60FFF7E1FF0023184680BD99
:1028C00020ED00E05801001080B400AF054B4FF040
:1028D00080521A60BFF34F8FBFF36F8FBD465DF814
:1028E000047B704704ED00E080B500AF00F01EF8F7
:1028F000044B1B680133034A1360BFF34F8FBFF3D0
:102900006F8F80BD5801001080B500AF064B1B686B
:10291000013B054A1360044B1B68002B02D10020C9
:1029200000F00EF880BD00BF58010010EFF31180D9
:102930004FF0280181F3118870470023184600BF2B
:1029400080F31188704700BFEFF309800C4B1A68C1
:1029500020E9F00F10602DE908404FF0280080F3C7
:10296000118800F0A5FB4FF0000080F31188BDE84E
:10297000084019680868B0E8F00F80F309887047CC
:102980005C0A001080B500AFFFF7D0FF00F0CAFA74
:102990000346002B03D0044B4FF080521A600020F6
:1029A000FFF7CEFF80BD00BF04ED00E080B588B02A
:1029B00000AF78604D4B1B687A689A4202D94B4B46
:1029C0001B687B604A4B06221A604A4B1A687B6878
:1029D000013B4949096801FB03F31344FB61474B81
:1029E0001B68FA699A4204D9444B1B68FA69D31AE6
:1029F000FB6172B600F0B8FC0346002B0DD1404AD3
:102A00003C4B1B6813603A4B07221A603C4A3A4B16
:102A10001B68013B136062B665E0394AFB691360CD
:102A2000344B00221A60324B07221A607B683B61EC
:102A30003B69002B04D0BFF34F8F30BFBFF36F8FC4
:102A40002B4B06221A6062B6294B1B6803F48033B5
:102A5000002B1DD0284B1A68264B1968FB69CB1A2E
:102A60001344013B7B61254B1B687A699A4204D36E
:102A7000214B1B687A699A4203D91F4B1B68013BA3
:102A80007B611F4A7B6913607B68013BBB6118E077
:102A9000194B1B687A6802FB03F2164B1B68D31AAA
:102AA000FB60154B1B68FA68B2FBF3F3BB6114497A
:102AB000BB690133104A126802FB03F2FB68D31AA8
:102AC0000B600C4B00221A60FFF70EFF084B072229
:102AD0001A60B86900F014FA094A074B1B68013BF9
:102AE0001360FFF711FF2037BD4680BD540A001068
:102AF00010E000E018E000E0500A0010580A001052
:102B000014E000E080B400AF154B1B68154AA2FB2F
:102B100003239B09144A1360134B1B686FF07F4219
:102B2000B2FBF3F3114A13600D4B1A680C4B1B6890
:102B3000B2FBF3F32D22B2FBF3F30D4A13600D4AFF
:102B4000074B1B680749A1FB03139B09013B13605B
:102B5000094B07221A60BD465DF8047B704700BF31
:102B6000EC0B0010D34D6210500A0010540A0010F4
:102B7000580A001014E000E010E000E080B58AB0D0
:102B800002AFF860B9603B601346FB80FB881846D3
:102B9000396B00F00DFDB861BB69002B66D0BB69D5
:102BA0001A6BFB8803F18043013B9B0013447B615C
:102BB0007B6923F007037B61FB880093B869B968E0
:102BC000BA6A7B6B00F0FEFB7869F9683A68FFF738
:102BD00013FE0246BB691A60FB6A002B02D0FB6A37
:102BE000BA691A60FFF780FE2C4B1B6801332B4A31
:102BF00013602B4B1B68002B09D1294ABB6913605A
:102C0000264B1B68012B0FD100F024FC0CE0254B58
:102C10001B68002B08D1224B1B68DA6ABB6A9A42F8
:102C200002D81F4ABB6913601F4B1B6801331E4A41
:102C30001360BB69DA6A1D4B1B689A4203D9BB69F2
:102C4000DB6A1A4A1360BB69DA6A13469B001344B5
:102C50009B00174A1A44BB69043310461946FFF714
:102C600045FD0123FB61FFF74FFE02E04FF0FF330C
:102C7000FB61FB69012B0BD10A4B1B68002B07D0B2
:102C8000074B1B68DA6ABB6A9A4201D2FFF71CFE47
:102C9000FB6918462037BD4680BD00BF700B001091
:102CA0005C0A00107C0B0010900B0010780B0010D9
:102CB000600A001080B584B000AF7860FFF714FEA2
:102CC0007B68002B02D11B4B1B6800E07B68FB601C
:102CD000FB6804331846FFF765FDFB689B6A002B11
:102CE00004D0FB6818331846FFF75CFDFB6804331B
:102CF00011481946FFF7FAFCFFF706FE0D4B1B685B
:102D0000FA689A4212D10D4B1B68002B02D0FFF7D4
:102D1000DBFD0BE0084B1A68094B1B689A4203D194
:102D2000044B00221A6001E000F0C2F91037BD46E2
:102D300080BD00BF5C0A00105C0B00107C0B001013
:102D4000700B001080B586B004AF00230093002301
:102D5000019300230293002303930B480B49802225
:102D60000023FFF70BFF78607B68012B09D1FFF789
:102D7000DDFD074B01221A60064B00221A60FFF7A7
:102D800087FD0837BD4680BD213300008C47000019
:102D90007C0B0010740B001080B400AF044B1B6858
:102DA0000133034A1360BD465DF8047B704700BFE2
:102DB000800B001080B483B000AF0E4B1B68DB6A41
:102DC000002B02D000237B600CE00B4B1B68012B17
:102DD00002D900237B6005E0084B1A68084B1B688A
:102DE000D31A7B607B6818460C37BD465DF8047BC0
:102DF000704700BF5C0A0010600A00105C01001000
:102E0000740B001080B582B000AF00237B60FFF729
:102E10006BFD334B1B68013B314A1360304B1B6821
:102E2000002B56D12F4B1B68002B52D02FE02E4B7E
:102E3000DB68DB683B603B6818331846FFF7B2FC81
:102E40003B6804331846FFF7ADFC3B68DA6A274B52
:102E50001B689A4203D93B68DB6A244A13603B68CB
:102E6000DA6A13469B0013449B00214A1A443B68CC
:102E7000043310461946FFF739FC3B68DA6A1D4BEC
:102E80001B68DB6A9A4202D31B4B01221A60164B65
:102E90001B68002BCBD1194B1B68002B11D00CE009
:102EA00000F040F80346002B02D0134B01221A60B9
:102EB000124B1B68013B114A1360104B1B68002B1F
:102EC000EED10D4B1B68012B03D101237B60FFF773
:102ED000FBFCFFF719FD7B6818460837BD4680BD2F
:102EE000800B0010700B0010300B0010780B0010DE
:102EF000600A00105C0A0010880B0010840B0010A0
:102F000080B483B000AF7860054B1A687B681344C7
:102F1000034A13600C37BD465DF8047B704700BF61
:102F2000740B001080B586B000AF00237B61554B59
:102F30001B68002B40F09580534B1B680133524AAD
:102F40001360514B1B683B613B69002B26D14F4BF3
:102F50001B68FB604E4B1B684C4A13604C4AFB6875
:102F600013604C4B1B6801334A4A1360474B1B6884
:102F70001B68002B01D1012300E00023002B04D0AB
:102F8000454B4FF0FF321A6008E0404B1B68DB688E
:102F9000DB68BB60BB685B683F4A13603E4B1B68E5
:102FA0003A699A424ED3394B1B681B68002B01D1FA
:102FB000012300E00023002B04D0374B4FF0FF32F9
:102FC0001A603FE0314B1B68DB68DB68BB60BB68A5
:102FD0005B687B603A697B689A4203D22E4A7B68C1
:102FE00013602FE0BB6804331846FFF7DBFBBB68B8
:102FF0009B6A002B04D0BB6818331846FFF7D2FB3E
:10300000BB68DA6A254B1B689A4203D9BB68DB6A46
:10301000224A1360BB68DA6A13469B0013449B0084
:103020001F4A1A44BB68043310461946FFF75EFB7B
:10303000BB68DA6A1B4B1B68DB6A9A4201D3012327
:103040007B61B0E7174B1B68DA6A154913469B0092
:1030500013449B000B441B68012B07D901237B61A0
:1030600004E0114B1B6801330F4A13600F4B1B68C0
:10307000002B01D001237B617B6918461837BD46C0
:1030800080BD00BF800B0010740B0010280B0010D7
:103090002C0B00108C0B00105C010010780B001042
:1030A000600A00105C0A0010840B0010880B0010EE
:1030B00080B483B000AF1F4B1B68002B03D01E4BA6
:1030C00001221A6031E01C4B00221A6004E01B4B05
:1030D0001B68013B194A1360184B1A6818491346BC
:1030E0009B0013449B000B441B68002BEFD0134B39
:1030F0001A6813469B0013449B00114A13447B60DB
:103100007B685B685A687B685A607B685A687B6832
:1031100008339A4204D17B685B685A687B685A60BE
:103120007B685B68DB68074A13600C37BD465DF857
:10313000047B7047800B0010880B0010780B001088
:10314000600A00105C0A001080B584B000AF78609F
:103150003960124B1B68183378681946FFF7EAFA92
:103160000E4B1B6804331846FFF71CFB3B68B3F19A
:10317000FF3F07D1094B1B68043309481946FFF785
:10318000B5FA07E0074B1A683B681344FB60F86820
:1031900000F0D8F91037BD4680BD00BF5C0A0010B2
:1031A0005C0B0010740B001080B584B000AF786029
:1031B0007B68DB68DB68BB60BB6818331846FFF7C9
:1031C000F1FA1E4B1B68002B1DD1BB680433184657
:1031D000FFF7E8FABB68DA6A194B1B689A4203D911
:1031E000BB68DB6A164A1360BB68DA6A13469B0049
:1031F00013449B00134A1A44BB6804331046194613
:10320000FFF774FA05E0BB6818330F481946FFF75B
:103210006DFABB68DA6A0D4B1B68DB6A9A4205D30C
:103220000123FB600A4B01221A6001E00023FB60CE
:10323000FB6818461037BD4680BD00BF800B0010EC
:10324000780B0010600A0010300B00105C0A0010B0
:10325000880B001080B483B000AF7860064B1A680A
:103260007B681A60054B1A687B685A600C37BD464C
:103270005DF8047B704700BF8C0B0010740B0010CE
:1032800080B584B000AF78603960FFF72DFB1C4B30
:103290001B68BB603B681B68B3F1FF3F02D1002392
:1032A000FB6026E07B681A68164B1B689A4207D0C1
:1032B0007B685A68BB689A4202D80123FB6018E019
:1032C0007B685B68BA68D21A3B681B689A420ED268
:1032D0003B681A687B685968BB68CB1A1A443B681C
:1032E0001A607868FFF7B6FF0023FB6001E0012356
:1032F000FB60FFF709FBFB6818461037BD4680BD31
:10330000740B00108C0B001080B400AF034B012233
:103310001A60BD465DF8047B704700BF880B001043
:1033200080B584B000AF786000F0D2F80D4B1B6818
:10333000012B01D9FFF7C8FA00F0DEF9FFF73AFDDB
:10334000F860FB68012B0CD9FFF726FDFFF732FD73
:10335000F860FB68012B02D9F868FFF727FBFFF73D
:1033600051FDE1E7600A001080B483B000AF012393
:10337000FB71104B1B68002B02D00023FB7112E085
:103380000D4B1B68002B02D00023FB710BE00123C7
:103390003B600A4B1A680A4B19683B68CB1A9A4281
:1033A00001D10223FB71FB7918460C37BD465DF84D
:1033B000047B7047300B0010880B00105C0B001072
:1033C000700B001080B586B000AFF860B9607A600D
:1033D0003B6000237B6113E0BA687B691344197872
:1033E000FA687B69134430330A461A71BA687B69FC
:1033F00013441B78002B00D105E07B6901337B610E
:103400007B69132BE8D9FB68002283F847207B688F
:10341000072B01D907237B60FB687A68DA62FB68B7
:103420007A689A64FB6804331846FFF753F9FB681F
:1034300018331846FFF74EF9FB68FA681A617B6883
:10344000C3F10802FB689A61FB68FA685A62183790
:10345000BD4680BD80B582B000AF00237B600CE02C
:103460007A6813469B0013449B00114A1344184684
:10347000FFF710F97B6801337B607B68072BEFD97E
:103480000C48FFF707F90C48FFF704F90B48FFF762
:1034900001F90B48FFF7FEF80A48FFF7FBF80A4B63
:1034A000044A1A60094B044A1A600837BD4680BDB9
:1034B000600A0010000B0010140B0010300B0010FD
:1034C000440B00105C0B0010280B00102C0B00109C
:1034D00080B582B000AF28E0FFF75EFC164B1B689A
:1034E000002B0CBF01230023DBB27B60FFF78AFCBB
:1034F0007B68002B19D1FFF7F7F90F4BDB68DB680E
:103500003B603B6804331846FFF74CF90B4B1B68D4
:10351000013B0A4A13600A4B1B68013B084A1360CF
:10352000FFF7F2F9386800F075F8054B1B68002BBF
:10353000D2D10837BD4680BD440B0010700B00107F
:10354000580B001080B582B000AF7860134B1B6839
:103550007A685A60124B1B687A689A4209D2114BFA
:103560001A680E4B1B68043310461946FFF7E2F841
:1035700010E00D4B1A68094B1B68043310461946BE
:10358000FFF7D8F8094B1B687A689A4202D2074ABB
:103590007B6813600837BD4680BD00BF5C0A001021
:1035A000740B00102C0B0010280B00105C01001095
:1035B00080B584B000AF03463960FB804C2000F03A
:1035C00077F8F860FB68002B1FD03B68002B06D112
:1035D000FB889B00184600F06BF8034600E03B6850
:1035E000FA681363FB681B6B002B05D1F86800F0C9
:1035F00071F80023FB6008E0FB681A6BFB889B00F6
:103600001046A5211A4600F019FFFB68184610372E
:10361000BD4680BD80B582B000AF78607B681B6B13
:10362000184600F057F8786800F054F80837BD469F
:1036300080BD00BF80B584B000AF78607B68FB6060
:103640007B68002B2CD0FB68DA6AFB689B6C9A4283
:1036500026D0FB6804331846FFF7A4F8FB689A6C81
:10366000FB68DA62FB68DB6AC3F10802FB689A61F7
:10367000FB68DA6A0C4B1B689A4203D9FB68DB6A69
:10368000094A1360FB68DA6A13469B0013449B00E7
:10369000064A1A44FB68043310461946FFF726F819
:1036A0001037BD4680BD00BF780B0010600A0010C7
:1036B00080B584B000AF7860FFF76EFB786800F0EB
:1036C000B1FB0346FB60FFF79DFBFB681846103714
:1036D000BD4680BD80B582B000AF78607B68002BAE
:1036E00006D0FFF759FB786800F0A4FBFFF78AFBD0
:1036F0000837BD4680BD00BF80B400AF30BFBD46B7
:103700005DF8047B704700BF80B485B000AF03460E
:10371000FB71084B1B68C3F30B03FB60054AFB7985
:103720001B031946FB680B4313601437BD465DF855
:10373000047B704700C00F4080B500AF02480349CA
:10374000162200F0FFF880BD00C002409447000040
:1037500080B500AF00F0A0F90420FFF7D5FF80BDD1
:1037600080B500AFFFF7E8FFFFF7F2FF80BD00BFB5
:1037700080B485B000AF78607B685B68FB607B6875
:1037800000225A607B6801229A607B685B6843F084
:1037900008027B685A607B68FA685A601437BD4635
:1037A0005DF8047B704700BF80B483B000AF7860E1
:1037B000084611461A460346FB700B46BB7013467B
:1037C0007B70FB78002B2FD07B78002B0AD07B6896
:1037D000DB6CFA780832012101FA02F21A437B68A5
:1037E000DA640AE07B68DB6CFA780832012101FABE
:1037F00002F2D2431A407B68DA64BB78012B09D10C
:103800007B68DB6CFA78012101FA02F21A437B68CB
:10381000DA6409E07B68DB6CFA78012101FA02F2D4
:10382000D2431A407B68DA640C37BD465DF8047BEE
:10383000704700BF80B483B000AF78600B46FB7068
:103840001346BB70BB78002B09D07B681B6DFA78E0
:10385000012101FA02F21A437B681A6509E07B68CC
:103860001B6DFA78012101FA02F2D2431A407B68FB
:103870001A650C37BD465DF8047B704790B587B07C
:1038800002AFF8607B600B46FB721346BB727B682D
:103890009C087B68DBB203F00303DBB2F97ABA7AE7
:1038A0000093F868234600F003F81437BD4690BD36
:1038B00080B487B000AFF8607B600B46FB721346A4
:1038C000BB72BB7A03F00F03DBB25B00FB75FB7AC4
:1038D0005B00DAB2BB7A1B09DBB21344BB75BA7D5D
:1038E000FB6853F82220FB7D032101FA03F3DB433D
:1038F00013403B61BA7D97F82010FB7D01FA03F37A
:1039000019463B691943FB6843F82210BA7DFB68EE
:10391000103253F82220FB7D032101FA03F3DB432D
:1039200013403B61BA7DFB7D796899403B6919433F
:10393000FB68103243F822101C37BD465DF8047B4B
:10394000704700BF90B587B000AFF860B9607A608B
:1039500000237B611FE07B699B00BA6813441B78DE
:10396000C3F30203DBB219467B699B00BA681344B8
:103970001B78C3F3C403DBB21C467B699B00BA68A7
:1039800013441B68C3F31723F8682246FFF776FF3A
:103990007B6901337B617A697B689A42DBD31C3790
:1039A000BD4690BD80B500AF00F030FA0246014B35
:1039B0001A6080BDEC0B001080B400AF074BD3F849
:1039C000883003F08073002B14BF01230023DBB287
:1039D0001846BD465DF8047B704700BF00C00F402D
:1039E00080B400AF074BD3F8883003F08063002B1E
:1039F00014BF01230023DBB21846BD465DF8047BEB
:103A0000704700BF00C00F4080B400AF074BD3F831
:103A1000883003F00073002B14BF01230023DBB2B6
:103A20001846BD465DF8047B704700BF00C00F40DC
:103A300080B400AF054A054BD3F8A03143F0200312
:103A4000C2F8A031BD465DF8047B704700C00F404E
:103A500080B400AF074BD3F8A03103F04003002B34
:103A600014BF01230023DBB21846BD465DF8047B7A
:103A7000704700BF00C00F4080B483B000AF034662
:103A8000FB71044AFB79C2F80C310C37BD465DF876
:103A9000047B704700C00F4080B500AFFFF7B4FF54
:103AA0000346002B03D00020022100F0D7F8FFF7D7
:103AB00083FF0346002B03D00020012100F0CEF845
:103AC000FFF7C6FF034683F00103DBB2002B01D0F2
:103AD000FFF7AEFF00BFFFF7BBFF034683F0010314
:103AE000DBB2002BF7D1002000F018F90120FFF71E
:103AF000C3FF00200F21002200F0D2F80020012196
:103B000000F08AF8032000F009F900BFFFF768FF12
:103B1000034683F00103DBB2002BF7D10020022122
:103B200000F07AF880BD00BF80B400AF074BD3F837
:103B3000883003F08073002B14BF01230023DBB215
:103B40001846BD465DF8047B704700BF00C00F40BB
:103B500080B400AF074BD3F8883003F00073002B1C
:103B600014BF01230023DBB21846BD465DF8047B79
:103B7000704700BF00C00F4080B483B000AF034661
:103B8000FB71094AFB795B0113448833AA225A600E
:103B9000054AFB795B011344883355225A600C3780
:103BA000BD465DF8047B704700C00F4080B400AF95
:103BB000054BD3F80C31DBB203F00303DBB218463C
:103BC000BD465DF8047B704700C00F4080B400AF75
:103BD000024B1846BD465DF8047B7047001BB700DA
:103BE00080B400AF024B1846BD465DF8047B7047B9
:103BF00000093D0080B400AF4FF400431846BD46B5
:103C00005DF8047B704700BF80B500AF00F0A4F8FA
:103C10000346184680BD00BF80B584B000AF0346A0
:103C20003960FB710C4AFB7904335B0113441B6858
:103C3000FB60FA683B681343FB60074AFB79043377
:103C40005B011344FA681A60FB791846FFF794FF8A
:103C50001037BD4680BD00BF00C00F4080B584B0A6
:103C600000AF03463960FB710C4AFB7904335B01FA
:103C700013441B68FB603B68DB43FA681340FB603E
:103C8000064AFB7904335B011344FA681A60FB7936
:103C90001846FFF771FF1037BD4680BD00C00F40CA
:103CA00080B586B000AF0346B9607A60FB73FB7BDA
:103CB000002B05D17B681A04BB6813437B6104E0C9
:103CC0007B685A01BB6813437B610A4AFB7B043360
:103CD0005B0113447A695A60064AFB7B04335B013B
:103CE000134401221A60FB7B1846FFF745FF183783
:103CF000BD4680BD00C00F4080B582B000AFFFF769
:103D000027FF0346002B02D00123FB7101E00023B3
:103D1000FB71FB7918460837BD4680BD80B483B07F
:103D200000AF7860044A7B68C2F804310C37BD46A6
:103D30005DF8047B704700BF00C00F4080B400AF47
:103D4000044BD3F80431DBB201331846BD465DF8AD
:103D5000047B704700C00F4080B500AFFFF726FF1F
:103D60000346012B0AD0022B0CD0002B02D000BF3F
:103D700000230AE0FFF734FF034606E0FFF726FFC3
:103D8000034602E0FFF736FF0346184680BD00BF3A
:103D900080B584B000AF0023FB60FFF7C5FE03468B
:103DA000002B18D00E4BD3F88430C3F30E0301332D
:103DB000BB600B4BD3F884301B0CDBB201337B6050
:103DC000FFF722FF0246BB6803FB02F35A007B6841
:103DD000B2FBF3F3FB60FB6818461037BD4680BDAD
:103DE00000C00F4080B500AFFFF786FF0346002BF1
:103DF00005D0012B07D1FFF7CBFF034604E0FFF707
:103E0000ABFF034600E00023184680BD98B500AF25
:103E1000FFF7E8FF0446FFF791FF0346B4FBF3F317
:103E2000184698BD024B0146186800F00BB800BF59
:103E300098090010024B0146186800F0B1BB00BFA2
:103E4000980900102DE9F04F01F10B05162D83B0F4
:103E5000064627D935F0070500F1B680A94200F2E1
:103E6000B38000F039FBB5F5FC7F22D2BC4FE808E7
:103E700007EBC003DC689C4200F0BC816368E1682A
:103E800023F0030323445A68A56842F00102E96065
:103E900030468D605A6000F021FB0834204603B0A4
:103EA000BDE8F08F102900F28F8000F015FB10257F
:103EB000DCE7680A00F08F80042800F24781A80937
:103EC00038304100A64F07EB8101CC68A14206D1F2
:103ED0000CE0002A80F28280E468A14206D0636888
:103EE00023F003035A1B0F2AF3DD013801309C49EC
:103EF0003C6901F1080E744500F07181636823F09C
:103F000003035A1B0F2A00F35781002AC1F814E05B
:103F1000C1F810E066DAB3F5007F80F02D81DB0890
:103F200001EBC3084FEAA30C4A68012303FA0CF320
:103F3000D8F808C01343C4F808C0C4F80C804B601C
:103F4000C8F80840CCF80C408210012494409C42F0
:103F500055D8234206D120F003006400234200F12B
:103F60000400FAD007EBC008C4468146DCF80C30E8
:103F70009C4507D135E1002980F24581DB689C45ED
:103F800000F02F815A6822F00302511B0F29F2DD45
:103F90001C46DA6854F808CF45F0010941F00108E1
:103FA0001D44C3F804903046CCF80C20C2F808C079
:103FB0007D613D61C5F80CE0C5F808E0C5F80480F6
:103FC000695000F08BFA69E7002420460C23336027
:103FD00003B0BDE8F08F7E213F2073E723445A6889
:103FE000E16851E723445A68304642F001025A60C2
:103FF000083400F073FA204603B0BDE8F08FBC68C7
:10400000636823F00308454504D8C5EB08030F2B6C
:1040100000F38C80534BDFF85CA11A68DAF80030AB
:104020002A44013304EB080B00F0518102F5805261
:104030000F3222F47F6222F00F02114630460192C5
:1040400000F04EFAB0F1FF3F8146019A00F048813E
:10405000834500F2EF80444BCB4519681144196049
:1040600000F04381DAF80000DFF808E101301BBFFF
:10407000CBEB090B5944CEF80090196019F00701F9
:1040800000F00881C1F10800C1F580518144083178
:104090004A44C2F30B02C2EB010A51463046019377
:1040A00000F01EFA431C019B00F02D81C9EB0002B9
:1040B000524442F001021968BC425144C7F80890CA
:1040C0001960C9F80420DFF8A0A016D0B8F10F0FCE
:1040D00040F2EF806268A8F10C0323F0070302F0BE
:1040E0000102E0184FF0050E1A430F2B6260C0F872
:1040F00004E0C0F808E000F20A811C4BBC681A68B2
:10410000914288BF19601A4B1A689142626888BF51
:10411000196022F003029542A2EB050301D80F2B90
:1041200004DC304600F0DAF90024B7E645F001027D
:1041300043F00103254462603046BD6008346B6083
:1041400000F0CCF9204603B0BDE8F08F142869D9FF
:10415000542800F29880280B6E304100B2E600BF70
:10416000600100109C0B0010A00B0010980B0010B9
:10417000940B00106C0500105A0A042A55D9142A11
:1041800000F2A7805B324FEA420C07EB8C0CDCF8A4
:104190000810DFF8B88161457FD04A6822F0030239
:1041A000934202D289688C45F7D1CA687B68E26085
:1041B000A1609460CC60C7E645F0010742F00103BE
:1041C0002544676030464D610D61C5F80CE0C5F8C7
:1041D00008E06B60AA50083400F080F95EE64B6896
:1041E000B2E609F1010919F0030F0CF1080C7FF494
:1041F000BDAE2CE004F108036469A34208BF02309D
:104200003FF475AE3AE61C461A445168DB6854F830
:10421000085F41F0010151603046EB609D6000F0A5
:104220005DF93BE65B3041004CE69A0938324FEAD3
:10423000420CAAE7BC42454B3FF40DAF9C68626854
:1042400022F0030267E7D8F8008098457CD110F08F
:10425000030FA8F1080300F1FF30F4D17B6823EAD3
:1042600004037B6064009C423FF6C9AE002C3FF41F
:10427000C6AE234248467FF475AE6400234200F187
:104280000400FAD06EE6B0F5AA7F18D8E80B7730B4
:10429000410017E64FF48051FAE6D8F80430921046
:1042A0004FF0010C0CFA02F21343C8F804300A462E
:1042B0007DE70123C9F804304C4600222BE740F289
:1042C000545398421CD8A80C7C304100FAE51032B7
:1042D000B3E6542A23D81A0B6E324FEA420C54E745
:1042E000BC68626822F0030215E7CBF30B000028DC
:1042F0007FF4B8AE4244BB6842F001025A60FCE66B
:10430000FC217E20DEE501224FF0000AD3E604F115
:104310000801304600F044F9DAF80010EDE6B2F595
:10432000AA7F04D8DA0B77324FEA420C2DE740F22D
:1043300054518A4204D89A0C7C324FEA420C24E74A
:104340004FF0FC0C7E2220E77B688BE760010010B9
:10435000844641EA000313F0030349D1403A23D3D2
:104360000B6803604B6843608B688360CB68C360F5
:104370000B6903614B6943618B698361CB69C361DD
:104380000B6A03624B6A43628B6A8362CB6AC362C5
:104390000B6B03634B6B43638B6B8363CB6BC363AD
:1043A00040304031403ADBD230320BD30B680360EF
:1043B0004B6843608B688360CB68C36010301031FA
:1043C000103AF3D20C3205D351F8043B40F8043BC9
:1043D000043AF9D2043208D0D2071CBF11F8013BCD
:1043E00000F8013B01D30B8803806046704700BF93
:1043F000082A13D38B07B1D010F00303AED0C3F15A
:104400000403D21ADB071CBF11F8013B00F8013B83
:10441000A4D331F8023B20F8023B9FE7043AD9D3FA
:10442000013A11F8013B00F8013BF9D20B78037017
:104430004B7843708B7883706046704770B4840704
:1044400046D0541E002A41D0CDB2034602E0621E7F
:10445000E4B3144603F8015B9A07F8D1032C2ED974
:10446000CDB245EA05250F2C45EA054519D9264662
:1044700003F11002103E0F2E42F8105C42F80C5C63
:1044800042F8085C42F8045C02F11002F2D8A4F190
:10449000100222F00F0204F00F041032032C134418
:1044A0000DD91E462246043A032A46F8045BFAD880
:1044B000221F22F003020432134404F003042CB13F
:1044C000C9B21C4403F8011BA342FBD170BC704766
:1044D00014460346C2E700BF704700BF704700BFE5
:1044E00038B5074C0023054608462360FDF730FD2C
:1044F000431C00D038BD2368002BFBD02B6038BD97
:10450000F00B0010F8B50C46224F0646FFF7E4FF0B
:10451000BB685D6825F00305291B01F6EF7121F4E6
:104520007F6121F00F01A1F58054B4F5805F07DBB6
:1045300030460021FFF7D4FFBB682B44984204D0DB
:104540003046FFF7CBFF0020F8BD30466142FFF751
:10455000C7FF01300DD0104BBA6819682D1B45F00C
:1045600001053046091B55601960FFF7B7FF0120B0
:10457000F8BD30460021FFF7B3FFBA68831A0F2B4E
:10458000DEDD064C0449246843F00103001B536040
:104590000860D5E760010010A00B00106C0500104A
:1045A00000294ED02DE9F0410C468046FFF794FFDC
:1045B00054F8047C6249A4F1080527F00102AB1805
:1045C0008E6858689E4220F003005AD0FE0758605B
:1045D0000BD454F8087C01F1080EED1BAC683A448A
:1045E000744567D0EF68E760BC601C186468E40736
:1045F0000CD4544F9C680244BC427CD0D86842F032
:104600000103E06084606B60AA5003E042F00103A4
:104610006B60AA50B2F5007F14D2D20801EBC2033E
:1046200001244868921004FA02F29C681043AC60BE
:10463000EB6048609D60E5604046BDE8F041FFF7F3
:104640004DBF7047530A042B47D8930903F1380430
:10465000600001EB800083683949834243D0596888
:1046600021F00301914202D99B689842F7D1DA68A0
:10467000EA60AB6040469560DD60BDE8F041FFF761
:104680002DBFFF07024407D454F8084C2D1BEB68DC
:10469000A8682244C36098602B4B42F001001B685D
:1046A00068609A428D60C7D3284B40461968FFF76F
:1046B00029FFC1E719184968C90709D4D968024414
:1046C0009B6842F00100D9608B606860AA50B3E734
:1046D00042F001036B60AA50AEE7142B14D803F12B
:1046E0005B046000B5E74A68A4100120A0400243C3
:1046F0004A601A46BCE742F001034D610D61EC606F
:10470000AC606B60AA5097E7542B04D8130B03F1ED
:104710006E0460009DE7B3F5AA7F04D8D30B03F1C4
:104720007704600095E740F25450834204D8930C1C
:1047300003F17C0460008CE7FC207E2489E700BF45
:104740006001001068010010680500109C0B00104B
:1047500065786974000000004865617020616E64CE
:1047600020737461636B20636F6C6C6973696F6E27
:104770000A00000053746172745570204D6F746F9D
:10478000722033004D6F746F7220330049444C45E2
:1047900000000000000A0000080A0000200A0000D3
:1047A000280A0000B0080000B8090000D00A000084
:1047B0000109000009090000210900004109000069
:1047C0004909000051090000710900007909000041
:1047D00081090000890900001A080000780800001B
:1047E0002208000080080000880800004300000044
:1047F00001000000000000000000000003000000B5
:1048000000000000010000000100000000000000A6
:104810000000000000000000020000000200000094
:10482000020000001C0000001B0000001A00000035
:104830000A0000001C0000001B0000001600000021
:10484000150000001400000000000000010000003E
:104850000200000003000000000000000000000053
:104860000100000001000000010000000000000045
:104870000000000000000000020000000200000034
:1048800002000000190000001D0000001E000000D2
:104890001A000000190000001800000013000000BA
:1048A00012000000110000000300000004000000DE
:1048B00005000000010000000100000001000000F0
:1048C00001000000010000000100000000000000E5
:1048D00000000000020000000200000002000000D2
:1048E000020000001200000013000000140000008D
:1048F0001500000016000000170000000F00000067
:104900001000000009000000060000000700000081
:104910000800000032000000730000000F000000DB
:104920001400000040010000000000000100000031
:10493000020000000300000003000000040000006B
:104940000500000006000000AAAAAAAAFFFFFFFFB8
:104950000000000000000000600100106001001075
:104960006801001068010010700100107001001053
:104970007801001078010010800100108001001003
:1049800088010010880100109001001090010010B3
:104990009801001098010010A0010010A001001063
:1049A000A8010010A8010010B0010010B001001013
:1049B000B8010010B8010010C0010010C0010010C3
:1049C000C8010010C8010010D0010010D001001073
:1049D000D8010010D8010010E0010010E001001023
:1049E000E8010010E8010010F0010010F0010010D3
:1049F000F8010010F8010010000200100002001081
:104A0000080200100802001010020010100200102E
:104A100018020010180200102002001020020010DE
:104A2000280200102802001030020010300200108E
:104A3000380200103802001040020010400200103E
:104A400048020010480200105002001050020010EE
:104A5000580200105802001060020010600200109E
:104A6000680200106802001070020010700200104E
:104A700078020010780200108002001080020010FE
:104A800088020010880200109002001090020010AE
:104A90009802001098020010A0020010A00200105E
:104AA000A8020010A8020010B0020010B00200100E
:104AB000B8020010B8020010C0020010C0020010BE
:104AC000C8020010C8020010D0020010D00200106E
:104AD000D8020010D8020010E0020010E00200101E
:104AE000E8020010E8020010F0020010F0020010CE
:104AF000F8020010F802001000030010000300107C
:104B00000803001008030010100300101003001029
:104B100018030010180300102003001020030010D9
:104B20002803001028030010300300103003001089
:104B30003803001038030010400300104003001039
:104B400048030010480300105003001050030010E9
:104B50005803001058030010600300106003001099
:104B60006803001068030010700300107003001049
:104B700078030010780300108003001080030010F9
:104B800088030010880300109003001090030010A9
:104B90009803001098030010A0030010A003001059
:104BA000A8030010A8030010B0030010B003001009
:104BB000B8030010B8030010C0030010C0030010B9
:104BC000C8030010C8030010D0030010D003001069
:104BD000D8030010D8030010E0030010E003001019
:104BE000E8030010E8030010F0030010F0030010C9
:104BF000F8030010F8030010000400100004001077
:104C00000804001008040010100400101004001024
:104C100018040010180400102004001020040010D4
:104C20002804001028040010300400103004001084
:104C30003804001038040010400400104004001034
:104C400048040010480400105004001050040010E4
:104C50005804001058040010600400106004001094
:104C60006804001068040010700400107004001044
:104C700078040010780400108004001080040010F4
:104C800088040010880400109004001090040010A4
:104C90009804001098040010A0040010A004001054
:104CA000A8040010A8040010B0040010B004001004
:104CB000B8040010B8040010C0040010C0040010B4
:104CC000C8040010C8040010D0040010D004001064
:104CD000D8040010D8040010E0040010E004001014
:104CE000E8040010E8040010F0040010F0040010C4
:104CF000F8040010F8040010000500100005001072
:104D0000080500100805001010050010100500101F
:104D100018050010180500102005001020050010CF
:104D2000280500102805001030050010300500107F
:104D3000380500103805001040050010400500102F
:104D400048050010480500105005001050050010DF
:104D5000580500105805001000000200FFFFFFFF7B
:104D6000000000005C080010C40800102C090010AE
:104D70000000000000000000000000000000000033
:104D80000000000000000000000000000000000023
:104D900000000000EC4700000000000000000000E0
:104DA0000000000000000000000000000000000003
:104DB00000000000000000000000000000000000F3
:104DC00000000000000000000000000000000000E3
:104DD00000000000000000000000000000000000D3
:104DE00000000000000000000000000000000000C3
:104DF00000000000000000000000000000000000B3
:104E000000000000000000000100000000000000A1
:104E10000E33CDAB34126DE6ECDE05000B00000066
:104E20000000000000000000000000000000000082
:104E30000000000000000000000000000000000072
:104E40000000000000000000000000000000000062
:104E50000000000000000000000000000000000052
:0C5180000000000000000000700500109E
:040000030000017187
:00000001FF
