:100000000080001071010000E9010000F101000012
:10001000F9010000010200000902000000000000D8
:1000200000000000000000000000000011020000BD
:100030001902000000000000210200002902000057
:1000400031020000310200003102000031020000E4
:1000500031020000310200003102000031020000D4
:1000600031020000C5190000310200003102000019
:1000700031020000310200003102000031020000B4
:1000800031020000310200003102000031020000A4
:10009000310200008D210000310200003102000019
:1000A0003102000031020000310200003102000084
:1000B0003102000031020000310200003102000074
:1000C000310200003102000031020000C4290000AA
:1000D0000000001048010000C429000000C00720F3
:1000E0000000000048010010A400000000C007202C
:1000F0000000000080B489B000AFF860B9607A6099
:10010000BB68FB61FB68BB6100237B610AE0FB69A4
:100110001A1DFA61BA69111DB96112681A607B690A
:1001200004337B617A697B689A42F0D32437BD46F9
:100130005DF8047B704700BF80B485B000AF786085
:1001400039607B68FB600023BB6007E0FB681A1D19
:10015000FA6000221A60BB680433BB60BA683B686F
:100160009A42F3D31437BD465DF8047B704700BF55
:1001700080B584B000AF194BFB6013E0FB681A1D1B
:10018000FA601B68BB60FB681A1DFA601B687B6025
:10019000FB681A1DFA601B683B60B86879683A68AA
:1001A000FFF7A8FFFB680E4A9342E7D30DE0FB6818
:1001B0001A1DFA601B687B60FB681A1DFA601B68D9
:1001C0003B6078683968FFF7B7FFFB68054A9342E0
:1001D000EDD302F02BF801F09DFFFEE7CC0000000C
:1001E000E4000000F400000080B400AFFEE700BFB0
:1001F00080B400AFFEE700BF80B400AFFEE700BFF1
:1002000080B400AFFEE700BF80B400AFFEE700BFE0
:1002100080B400AFFEE700BF80B400AFFEE700BFD0
:1002200080B400AFFEE700BF80B400AFFEE700BFC0
:1002300080B400AFFEE700BFFFFFFFFFFFFFFFFF3F
:10024000FFFFFFFFFFFFFFFFFFFFFFFFFFFFFFFFBE
:10025000FFFFFFFFFFFFFFFFFFFFFFFFFFFFFFFFAE
:10026000FFFFFFFFFFFFFFFFFFFFFFFFFFFFFFFF9E
:10027000FFFFFFFFFFFFFFFFFFFFFFFFFFFFFFFF8E
:10028000FFFFFFFFFFFFFFFFFFFFFFFFFFFFFFFF7E
:10029000FFFFFFFFFFFFFFFFFFFFFFFFFFFFFFFF6E
:1002A000FFFFFFFFFFFFFFFFFFFFFFFFFFFFFFFF5E
:1002B000FFFFFFFFFFFFFFFFFFFFFFFFFFFFFFFF4E
:1002C000FFFFFFFFFFFFFFFFFFFFFFFFFFFFFFFF3E
:1002D000FFFFFFFFFFFFFFFFFFFFFFFFFFFFFFFF2E
:1002E000FFFFFFFFFFFFFFFFFFFFFFFFFFFFFFFF1E
:1002F000FFFFFFFFFFFFFFFFFFFFFFFFFFFFFFFF0E
:1003000080B483B000AF0346FB71084997F907300A
:100310005B09FA7902F01F02012000FA02F241F8AB
:1003200023200C37BD465DF8047B704700E100E0F8
:1003300080B483B000AF78600B46FB701346BB708F
:10034000FB785B017A681344FA78520179680A44B1
:100350001168BA78012000FA02F20A431A600C37D9
:10036000BD465DF8047B704780B483B000AF786011
:100370000B46FB701346BB70FB785B017A68134435
:10038000FA78520179680A441168BA78012000FAB3
:1003900002F2D2430A401A600C37BD465DF8047B76
:1003A000704700BF80B582B000AF78600846114644
:1003B0001A460346FB700B46BB7013467B707B7876
:1003C000002B07D0FA78BB78786811461A46FFF7F9
:1003D000AFFF06E0FA78BB78786811461A46FFF757
:1003E000C3FF0837BD4680BD80B584B000AFF8605C
:1003F000B9607A60FB70BB68D9B27B68DAB2FB780F
:10040000F868FFF7CFFF1037BD4680BD80B483B0DA
:1004100000AF78600B46FB707B681B6897F9032080
:10042000032A05DC97F90320012101FA02F205E015
:1004300097F903200432012101FA02F21340002B44
:1004400014BF01230023DBB218460C37BD465DF80C
:10045000047B704780B483B000AF78600B46FB70BC
:1004600097F90330032B06DC97F90330012202FAD7
:1004700003F31A4606E097F903300433012202FA27
:1004800003F31A467B681A600C37BD465DF8047B9F
:10049000704700BF80B483B000AF78607B685B6852
:1004A00043F001027B685A607B685B6843F0080296
:1004B0007B685A600C37BD465DF8047B704700BF0F
:1004C00080B483B000AF786039607B683A68DA60E6
:1004D0000C37BD465DF8047B704700BF80B485B023
:1004E00000AFF8600B467A60FB7297F90B30062B71
:1004F0002CD801A252F823F0150500001D050000BC
:10050000250500002D050000350500003D05000013
:1005100045050000FB687A689A6118E0FB687A6814
:10052000DA6114E0FB687A681A6210E0FB687A68A6
:100530005A620CE0FB687A681A6408E0FB687A6823
:100540005A6404E0FB687A689A6400E000BF1437DC
:10055000BD465DF8047B704780B483B000AF78601F
:100560000B46FB707B685B69FA7802F0070251006A
:10057000FA7802F007020A44012101FA02F21A4352
:100580007B685A610C37BD465DF8047B704700BF3D
:1005900080B483B000AF78600B46FB707B6859690C
:1005A00097F9032013465B0013440133012202FA3A
:1005B00003F341EA03027B685A610C37BD465DF8DC
:1005C000047B704780B483B000AF78600B46FB704B
:1005D0007B68596997F9032013465B001344013384
:1005E000012202FA03F3DB4301EA03027B685A614A
:1005F0000C37BD465DF8047B704700BF80B483B004
:1006000000AF78600B46FB707B68596997F903204F
:1006100013465B0013440233012202FA03F3DB4367
:1006200001EA03027B685A610C37BD465DF8047B22
:10063000704700BF80B500AF0F480021FFF740FFB3
:100640000D4800214FF47A72FFF748FF0A48002155
:10065000FFF782FF08480021FFF79AFF06480021B4
:10066000FFF7CCFF044801F027FE0348FFF712FF15
:100670000920FFF745FE80BD0080014080B582B0B3
:1006800000AF7860214A7B6852F82330DBB2204803
:1006900019460022002301F02BFE1C4A7B6852F809
:1006A0002330DBB25BB21A4819461422FFF716FF5B
:1006B000164A7B6852F82330DBB25BB21448194605
:1006C000FFF74AFF114A7B6852F82330DBB25BB276
:1006D0000F481946FFF776FF0C4A7B6852F8233023
:1006E000DBB25BB20A481946FFF788FF074A7B680E
:1006F00052F82330DBB206481946012201F03EFED3
:10070000034801F0D9FD0837BD4680BD380100100F
:100710000080014090B5A1B000AF7860B9497A6817
:1007200013465B0013449B000B441C68B6497A686F
:1007300013465B0013449B000B441B68B3482146DF
:100740001A460123FFF750FEAE497A6813465B0054
:1007500013449B000B4404331C68AB497A6813466E
:100760005B0013449B000B4404331B68A7482146DD
:100770001A460123FFF738FEA2497A6813465B0048
:1007800013449B000B4408331C689F497A68134646
:100790005B0013449B000B4408331B689B482146B5
:1007A0001A460123FFF720FE99497A6813465B0039
:1007B00013449B000B441C6896497A6813465B00FF
:1007C00013449B000B441B68904821461A460123A2
:1007D000FFF70AFE8E497A6813465B0013449B00BC
:1007E0000B4404331C688B497A6813465B0013443E
:1007F0009B000B4404331B68844821461A4601239E
:10080000FFF7F2FD82497A6813465B0013449B00B0
:100810000B4408331C687F497A6813465B00134415
:100820009B000B4408331B68784821461A46012375
:10083000FFF7DAFD73497A6813465B0013449B00A7
:100840000B44196870487A6813465B0013449B0098
:1008500003441B68DAB26D4BFB67B967134687F830
:100860007730002387F87630BB6FDAB2FB6F3B67D7
:10087000134687F86F3097F8773087F86E3097F81F
:10088000763087F86D3097F86D30002B12D097F8DE
:100890006F305B013A6F134497F86F205201396F44
:1008A0000A44916997F86E20012000FA02F20A4387
:1008B0009A6111E097F86F305B013A6F134497F833
:1008C0006F205201396F0A44D16997F86E200120D8
:1008D00000FA02F20A43DA614A497A6813465B0079
:1008E00013449B000B440433196847487A68134645
:1008F0005B0013449B00034404331B68DAB2434B90
:10090000BB667966134687F86330002387F8623048
:100910007B6EDAB2BB6EFB65134687F85B3097F8E7
:10092000633087F85A3097F8623087F8593097F873
:100930005930002B12D097F85B305B01FA6D1344ED
:1009400097F85B205201F96D0A44916997F85A2093
:10095000012000FA02F20A439A6111E097F85B3035
:100960005B01FA6D134497F85B205201F96D0A445C
:10097000D16997F85A20012000FA02F20A43DA619D
:1009800020497A6813465B0013449B000B440833EC
:1009900019681D487A6813465B0013449B000344A2
:1009A00008331B68DAB2194B7B653965134687F843
:1009B0004F30002387F84E303B6DDAB27B6DBB645D
:1009C000134687F8473097F84F3087F8463097F846
:1009D0004E3087F8453097F84530002B1CD097F8FB
:1009E00047305B01BA6C134497F847205201B96C49
:1009F0000A44916997F84620012000FA02F20A435E
:100A00009A611BE0640000109400001000C00920EF
:100A1000040000103400001097F847305B01BA6CF6
:100A2000134497F847205201B96C0A44D16997F8EA
:100A30004620012000FA02F20A43DA6195497A68F9
:100A400013465B0013449B000B44196892487A6874
:100A500013465B0013449B0003441B68DAB28F4BC0
:100A60003B64F963134687F83B30012387F83A303B
:100A7000FB6BDAB23B6C7B63134687F8333097F835
:100A80003B3087F8323097F83A3087F8313097F8B2
:100A90003130002B12D097F833305B017A6B13445E
:100AA00097F833205201796B0A44916997F8322004
:100AB000012000FA02F20A439A6111E097F83330FC
:100AC0005B017A6B134497F833205201796B0A4427
:100AD000D16997F83220012000FA02F20A43DA6164
:100AE0006C497A6813465B0013449B000B44043343
:100AF000196869487A6813465B0013449B000344F5
:100B000004331B68DAB2654BFB62B962134687F89F
:100B10002730012387F82630BB6ADAB2FB6A3B62D2
:100B20001346FB7797F82730BB7797F826307B770B
:100B30007B7F002B0FD0FB7F5B013A6A1344FA7F67
:100B40005201396A0A449169BA7F012000FA02F21F
:100B50000A439A610EE0FB7F5B013A6A1344FA7F15
:100B60005201396A0A44D169BA7F012000FA02F2BF
:100B70000A43DA6147497A6813465B0013449B00D5
:100B80000B440833196844487A6813465B001344E1
:100B90009B00034408331B68DAB2404BBB617961A8
:100BA0001346FB740123BB747B69DAB2BB69FB603B
:100BB0001346FB72FB7CBB72BB7C7B727B7A002B87
:100BC0000FD0FB7A5B01FA681344FA7A5201F96894
:100BD0000A449169BA7A012000FA02F20A439A6142
:100BE0000EE0FB7A5B01FA681344FA7A5201F96865
:100BF0000A44D169BA7A012000FA02F20A43DA61A2
:100C000027497A6813465B0013449B000B441C6819
:100C100024497A6813465B0013449B000B441B680D
:100C20001E4821461A460023FFF7DEFB1C497A685E
:100C300013465B0013449B000B4404331C681949A2
:100C40007A6813465B0013449B000B4404331B6813
:100C5000124821461A460023FFF7C6FB10497A685E
:100C600013465B0013449B000B4408331C680D497A
:100C70007A6813465B0013449B000B4408331B68DF
:100C8000064821461A460023FFF7AEFB8437BD46CF
:100C900090BD00BF040000103400001000C0092007
:100CA000C4000010F400001080B4A1B000AF786060
:100CB000A74B5B681946A74A7B6842F82310A44BF0
:100CC000DB681946A44A7B6842F82310A24A7B6875
:100CD00052F82320A1497B6841F82320A0497A6873
:100CE00013465B0013449B000B4419689D487A68C7
:100CF00013465B0013449B0003441B68DAB29A4B13
:100D0000FB67B967134687F87730002387F876309A
:100D1000BB6FDAB2FB6F3B67134687F86F3097F80B
:100D2000773087F86E3097F8763087F86D3097F81F
:100D30006D30002B12D097F86F305B013A6F13447F
:100D400097F86F205201396F0A44916997F86E2025
:100D5000012000FA02F20A439A6111E097F86F301D
:100D60005B013A6F134497F86F205201396F0A44C0
:100D7000D16997F86E20012000FA02F20A43DA6185
:100D800077497A6813465B0013449B000B44043395
:100D9000196874487A6813465B0013449B00034447
:100DA00004331B68DAB2704BBB667966134687F86A
:100DB0006330002387F862307B6EDAB2BB6EFB656E
:100DC000134687F85B3097F8633087F85A3097F806
:100DD000623087F8593097F85930002B12D097F8C5
:100DE0005B305B01FA6D134497F85B205201F96D9B
:100DF0000A44916997F85A20012000FA02F20A4346
:100E00009A6111E097F85B305B01FA6D134497F833
:100E10005B205201F96D0A44D16997F85A200120EC
:100E200000FA02F20A43DA614D497A6813465B0020
:100E300013449B000B44083319684A487A681346E8
:100E40005B0013449B00034408331B68DAB2464B33
:100E50007B653965134687F84F30002387F84E309D
:100E60003B6DDAB27B6DBB64134687F8473097F869
:100E70004F3087F8463097F84E3087F8453097F86E
:100E80004530002B12D097F847305B01BA6C134401
:100E900097F847205201B96C0A44916997F84620A7
:100EA000012000FA02F20A439A6111E097F84730F4
:100EB0005B01BA6C134497F847205201B96C0A449D
:100EC000D16997F84620012000FA02F20A43DA615C
:100ED00026497A6813465B0013449B000B4419684B
:100EE00023487A6813465B0013449B0003441B6845
:100EF000DAB21D4B3B64F963134687F83B3001239C
:100F000087F83A30FB6BDAB23B6C7B63134687F8A9
:100F1000333097F83B3087F8323097F83A3087F81B
:100F2000313097F83130002B24D097F833305B0103
:100F30007A6B134497F833205201796B0A44916914
:100F400097F83220012000FA02F20A439A6123E066
:100F5000240100107401001084010010940100109D
:100F6000640000109400001000C00920040000106C
:100F70003400001097F833305B017A6B134497F814
:100F800033205201796B0A44D16997F8322001204D
:100F900000FA02F20A43DA614A497A6813465B00B2
:100FA00013449B000B440433196847487A6813467E
:100FB0005B0013449B00034404331B68DAB2434BC9
:100FC000FB62B962134687F82730012387F8263081
:100FD000BB6ADAB2FB6A3B621346FB7797F82730AD
:100FE000BB7797F826307B777B7F002B0FD0FB7F7A
:100FF0005B013A6A1344FA7F5201396A0A449169E3
:10100000BA7F012000FA02F20A439A610EE0FB7FE8
:101010005B013A6A1344FA7F5201396A0A44D16982
:10102000BA7F012000FA02F20A43DA6125497A68A0
:1010300013465B0013449B000B4408331968224895
:101040007A6813465B0013449B00034408331B6813
:10105000DAB21E4BBB6179611346FB740123BB748A
:101060007B69DAB2BB69FB601346FB72FB7CBB7227
:10107000BB7C7B727B7A002B0FD0FB7A5B01FA681A
:101080001344FA7A5201F9680A449169BA7A012044
:1010900000FA02F20A439A610EE0FB7A5B01FA68F9
:1010A0001344FA7A5201F9680A44D169BA7A0120E4
:1010B00000FA02F20A43DA618437BD465DF8047B28
:1010C000704700BF040000103400001000C0092069
:1010D00080B582B000AF7860584A7B6852F8233000
:1010E000012B12D0012B02D3022B2FD083E0786882
:1010F00000F0BCF8524A7B68002142F823104F4AA6
:101100007B68012142F8231092E04E4B1A694D4B47
:10111000DB68D21A4B4B1B6892FBF3F31A464A4B1F
:101120001A60484B5A68474B9B68D21A454B1B685C
:1011300092FBF3F31A46454B1A60454B00221A60A6
:101140003E4A7B68022142F8231071E0414A7B68E5
:1011500052F823303B4A926893422ED93E4A7B682C
:1011600052F823203B497B6851F823309A4241D3FF
:10117000786800F07BF8334BDB681946344B1B680A
:10118000314A126802FB03F3CA1834497B6841F8FC
:1011900023202C4B5B6819462D4B1B682B4A126889
:1011A00002FB03F3CA1A2B497B6841F82320284B22
:1011B0001B680133264A13603AE0284A7B6896216F
:1011C00042F82310264A7B6852F82330D9B2234ACA
:1011D0007B6852F823304AB2224811461A46FFF77C
:1011E0007DF9214B01221A60144A7B68002142F8E4
:1011F00023101DE01CE0194A7B68962142F8231059
:10120000174A7B6852F82330D9B2144A7B6852F8E7
:1012100023304AB2134811461A46FFF75FF9124BC2
:1012200001221A60054A7B68002142F8231000BFA2
:101230000D4B1B6818460837BD4680BDC401001021
:10124000B401001024010010480100104C010010EE
:1012500000000010740100106401001084010010EF
:1012600038010010008001405001001080B5B0B07E
:1012700000AF7860CE4A7B6852F82320CD497B6866
:1012800051F823309A4220D0CB4A7B6852F8233061
:10129000D9B2C74A7B6852F823304AB2C7481146D0
:1012A0001A46FFF71BF9C44A7B6852F82330DBB2B9
:1012B000C2481946012201F061F8BD4A7B6852F824
:1012C0002320BC497B6841F82320BD4A7B6852F843
:1012D0002330042B00F2F88201A252F823F000BF61
:1012E000F5120000671400002D150000AB16000079
:1012F0005F170000B3497A6813465B0013449B00F4
:101300000B4408331968B0487A6813465B001344ED
:101310009B00034408331B68DAB2AC4BC7F8BC30FF
:10132000C7F8B810134687F8B730012387F8B630EE
:10133000D7F8B830DAB2D7F8BC30C7F8B0301346B7
:1013400087F8AF3097F8B73087F8AE3097F8B630F7
:1013500087F8AD3097F8AD30002B14D097F8AF3048
:101360005B01D7F8B020134497F8AF205201D7F8AB
:10137000B0100A44916997F8AE20012000FA02F2F9
:101380000A439A6113E097F8AF305B01D7F8B020B9
:10139000134497F8AF205201D7F8B0100A44D1692E
:1013A00097F8AE20012000FA02F20A43DA6185497B
:1013B0007A6813465B0013449B000B44196882480B
:1013C0007A6813465B0013449B0003441B68DAB23F
:1013D0007E4BC7F8A830C7F8A410134687F8A3308F
:1013E000002387F8A230D7F8A430DAB2D7F8A830B3
:1013F000C7F89C30134687F89B3097F8A33087F8DE
:101400009A3097F8A23087F8993097F89930002BE6
:1014100014D097F89B305B01D7F89C20134497F8C1
:101420009B205201D7F89C100A44916997F89A20A2
:10143000012000FA02F20A439A618EE297F89B308B
:101440005B01D7F89C20134497F89B205201D7F8F2
:101450009C100A44D16997F89A20012000FA02F200
:101460000A43DA6179E25A497A6813465B00134409
:101470009B000B440433196856487A6813465B0096
:1014800013449B00034404331B68DAB24F4BC7F884
:101490009430C7F89010134687F88F30002387F8F0
:1014A0008E30D7F89030DAB2D7F89430C7F8883059
:1014B000134687F8873097F88F3087F8863097F88B
:1014C0008E3087F8853097F88530002B14D097F848
:1014D00087305B01D7F88820134497F887205201A2
:1014E000D7F888100A44916997F88620012000FAFD
:1014F00002F20A439A6113E097F887305B01D7F84C
:101500008820134497F887205201D7F888100A449E
:10151000D16997F88620012000FA02F20A43DA61C5
:101520002D4A7B68022142F8231016E225497A6889
:1015300013465B0013449B000B44196822487A68E9
:1015400013465B0013449B0003441B68DAB21F4B35
:10155000C7F88030F967134687F87B30012387F896
:101560007A30FB6FDAB2D7F880307B67134687F8A2
:10157000733097F87B3087F8723097F87A3087F8B5
:10158000713097F87130002B28D097F873305B01D9
:101590007A6F134497F873205201796F0A44916966
:1015A00097F87220012000FA02F20A439A6127E0BC
:1015B00084010010940100103801001000800140E7
:1015C000A4010010040000103400001000C0092025
:1015D00064000010940000105401001097F873305C
:1015E0005B017A6F134497F873205201796F0A44B4
:1015F000D16997F87220012000FA02F20A43DA61F9
:10160000AB497A6813465B0013449B000B440433D8
:101610001968A8487A6813465B0013449B0003448A
:1016200004331B68DAB2A44BFB66B966134687F82D
:101630006730002387F86630BB6EDAB2FB6E3B661C
:10164000134687F85F3097F8673087F85E3097F871
:10165000663087F85D3097F85D30002B12D097F830
:101660005F305B013A6E134497F85F205201396E88
:101670000A44916997F85E20012000FA02F20A43B9
:101680009A616AE197F85F305B013A6E134497F80C
:101690005F205201396E0A44D16997F85E2001201B
:1016A00000FA02F20A43DA6157E184497A68134684
:1016B0005B0013449B000B440833196880487A6828
:1016C00013465B0013449B00034408331B68DAB2E3
:1016D000794BBB657965134687F85330002387F84B
:1016E00052307B6DDAB2BB6DFB64134687F84B302A
:1016F00097F8533087F84A3097F8523087F84930D6
:1017000097F84930002B12D097F84B305B01FA6CF8
:10171000134497F84B205201F96C0A44916997F8E9
:101720004A20012000FA02F20A439A6111E097F878
:101730004B305B01FA6C134497F84B205201F96C63
:101740000A44D16997F84A20012000FA02F20A43BC
:10175000DA615C4A7B68002142F82310FDE05449BD
:101760007A6813465B0013449B000B4404331968EA
:1017700050487A6813465B0013449B0003440433CB
:101780001B68DAB24C4B7B643964134687F83F30F0
:10179000012387F83E303B6CDAB27B6CBB631346A7
:1017A00087F8373097F83F3087F8363097F83E3073
:1017B00087F8353097F83530002B12D097F837304E
:1017C0005B01BA6B134497F837205201B96B0A4496
:1017D000916997F83620012000FA02F20A439A61D3
:1017E00011E097F837305B01BA6B134497F8372054
:1017F0005201B96B0A44D16997F83620012000FAEA
:1018000002F20A43DA612A497A6813465B001344FC
:101810009B000B440833196826487A6813465B001E
:1018200013449B00034408331B68DAB2224B3B632A
:10183000F962134687F82B30002387F82A30FB6AB9
:10184000DAB23B6B7B62134687F8233097F82B3074
:1018500087F8223097F82A3087F8213097F821301E
:10186000002B12D097F823305B017A6A134497F863
:1018700023205201796A0A44916997F822200120B5
:1018800000FA02F20A439A6167E097F823305B019D
:101890007A6A134497F823205201796A0A44D1697D
:1018A00097F82220012000FA02F20A43DA6154E09C
:1018B000040000103400001000C009206400001073
:1018C000940000105401001037497A6813465B00F9
:1018D00013449B000B44196834487A6813465B0034
:1018E00013449B0003441B68DAB2314BFB61B961BE
:1018F0001346FB750023BB75BB69DAB2FB693B611C
:101900001346FB73FB7DBB73BB7D7B737B7B002B23
:101910000FD0FB7B5B013A691344FA7B52013969B2
:101920000A449169BA7B012000FA02F20A439A61E3
:101930000EE0FB7B5B013A691344FA7B5201396983
:101940000A44D169BA7B012000FA02F20A43DA6143
:10195000184A7B68012142F82310174A7B6852F825
:101960002330042B0ED9144A7B68002142F823103F
:10197000124A7B6852F823305A1C10497B6841F8A0
:10198000232008E00C4A7B6852F823305A1C0A498D
:101990007B6841F823200A4A7B68002142F8231023
:1019A000C037BD4680BD00BF640000109400001029
:1019B00000C0092054010010A4010010B40100105F
:1019C0006401001080B5A8B000AFA8480021FEF760
:1019D0001DFD0346002B00F06781A54B1B680133FA
:1019E000A34A1360A24B5B680133A14A5360A04B2A
:1019F0009B6801339E4A93609D4BDB6801339C4A90
:101A0000D3609A480021FEF725FD9A4B1B689A4A3D
:101A100052F82330974A1268984951F82220D1B2DF
:101A2000974AC7F89C20C7F898300B4687F897303C
:101A3000012387F89630D7F89830DAB2D7F89C307F
:101A4000C7F89030134687F88F3097F8973087F8AB
:101A50008E3097F8963087F88D3097F88D30002BC0
:101A600014D097F88F305B01D7F89020134497F883
:101A70008F205201D7F890100A44916997F88E2070
:101A8000012000FA02F20A439A6113E097F88F30BE
:101A90005B01D7F89020134497F88F205201D7F8B4
:101AA00090100A44D16997F88E20012000FA02F2C2
:101AB0000A43DA616F4B5B686F4A033352F8233095
:101AC0006C4A52686D49033251F82220D1B26C4AF7
:101AD000C7F88820C7F884300B4687F88330012385
:101AE00087F88230D7F88430DAB2D7F88830FB67CD
:101AF000134687F87B3097F8833087F87A3097F869
:101B0000823087F8793097F87930002B12D097F827
:101B10007B305B01FA6F134497F87B205201F96F19
:101B20000A44916997F87A20012000FA02F20A43E8
:101B30009A6111E097F87B305B01FA6F134497F8D4
:101B40007B205201F96F0A44D16997F87A2001206D
:101B500000FA02F20A43DA61464B9B68464A0633B2
:101B600052F82330434A92684449063251F8222001
:101B7000D1B2434A7A673B670B4687F86F3001233F
:101B800087F86E303B6FDAB27B6FBB66134687F81F
:101B9000673097F86F3087F8663097F86E3087F8BF
:101BA000653097F86530002B12D097F867305B01ED
:101BB000BA6E134497F867205201B96E0A449169CE
:101BC00097F86620012000FA02F20A439A6111E0B8
:101BD00097F867305B01BA6E134497F8672052019B
:101BE000B96E0A44D16997F86620012000FA02F222
:101BF0000A43DA611F4BDB681F4A093352F823306E
:101C00001C4AD2681D49093251F82220D1B21C4A1F
:101C10003A66FB650B4687F85B30012387F85A303C
:101C2000FB6DDAB23B6E7B65134687F8533097F84D
:101C30005B3087F8523097F85A3087F8513097F870
:101C40005130002B1ED097F853305B017A6D13444E
:101C500097F853205201796D0A44916997F8522000
:101C6000012000FA02F20A439A611DE0008001405F
:101C70006401001054010010640000109400001072
:101C800000C0092097F853305B017A6D134497F830
:101C900053205201796D0A44D16997F852200120EE
:101CA00000FA02F20A43DA61A4480321FEF7AEFB10
:101CB0000346002B4FD0A1480321FEF7CBFBA04BDE
:101CC0001B68A04A52F823309D4A12689E4951F879
:101CD0002220D1B29D4AFA64BB640B4687F8473094
:101CE000002387F84630BB6CDAB2FB6C3B641346CA
:101CF00087F83F3097F8473087F83E3097F84630FE
:101D000087F83D3097F83D30002B12D097F83F30E0
:101D10005B013A6C134497F83F205201396C0A4436
:101D2000916997F83E20012000FA02F20A439A6175
:101D300011E097F83F305B013A6C134497F83F206D
:101D40005201396C0A44D16997F83E20012000FA0B
:101D500002F20A43DA6179480421FEF757FB034691
:101D6000002B51D075480421FEF774FB744B5B685F
:101D7000744A033352F82330714A5268724903326D
:101D800051F82220D1B2714ABA637B630B4687F8BF
:101D90003330002387F832307B6BDAB2BB6BFB62E7
:101DA000134687F82B3097F8333087F82A3097F8A6
:101DB000323087F8293097F82930002B12D097F865
:101DC0002B305B01FA6A134497F82B205201F96A11
:101DD0000A44916997F82A20012000FA02F20A4386
:101DE0009A6111E097F82B305B01FA6A134497F877
:101DF0002B205201F96A0A44D16997F82A20012060
:101E000000FA02F20A43DA614C480521FEF7FEFAB5
:101E10000346002B43D049480521FEF71BFB484BE6
:101E20009B68484A063352F82330454A926846492F
:101E3000063251F82220D1B2444A7A623B620B4604
:101E4000FB770023BB773B6ADAB27B6ABB61134640
:101E5000FB75FB7FBB75BB7F7B757B7D002B0FD03C
:101E6000FB7D5B01BA691344FA7D5201B9690A44EA
:101E70009169BA7D012000FA02F20A439A610EE0EC
:101E8000FB7D5B01BA691344FA7D5201B9690A44CA
:101E9000D169BA7D012000FA02F20A43DA612748CB
:101EA0000621FEF7B3FA0346002B43D02348062150
:101EB000FEF7D0FA224BDB68224A093352F823306E
:101EC0001F4AD2682049093251F82220D1B21F4A54
:101ED0003A61FB600B46FB720023BB72FB68DAB20F
:101EE0003B697B601346FB70FB7ABB70BB7A7B70EF
:101EF0007B78002B0FD0FB785B017A681344FA786B
:101F0000520179680A449169BA78012000FA02F214
:101F10000A439A610EE0FB785B017A681344FA7811
:101F2000520179680A44D169BA78012000FA02F2B4
:101F30000A43DA61A037BD4680BD00BF0080014082
:101F400054010010640000109400001000C009202B
:101F500080B483B000AF0346FB71084997F907309E
:101F60005B09FA7902F01F02012000FA02F241F83F
:101F700023200C37BD465DF8047B704700E100E08C
:101F800080B483B000AF03463960FB7197F9073026
:101F9000002B0BDA0D49FB7903F00F03043B3A6881
:101FA000D2B2D200D2B20B441A7609E0084997F9AE
:101FB00007303A68D2B2D200D2B20B4483F8002381
:101FC0000C37BD465DF8047B704700BF00ED00E0B4
:101FD00000E100E080B582B000AF78607B68013B33
:101FE000B3F1807F01D301230FE00A4A7B68013BF4
:101FF00053604FF0FF301F21FFF7C2FF054B002257
:102000009A60044B07221A60002318460837BD4621
:1020100080BD00BF10E000E080B485B000AF034693
:10202000FB71084B1B68C3F30B03FB60054AFB798C
:102030001B031946FB680B4313601437BD465DF85C
:10204000047B704700C00F4080B500AF00F0C8FAB5
:102050000420FFF7E1FF00F049FA2A4B1B682A4AE7
:10206000A2FB03239B091846FFF7B4FF0020FEF7ED
:1020700005FB0120FEF702FB0220FEF7FFFA03201A
:10208000FEF7FCFAFEF7D6FA0020FEF743FB01202C
:10209000FEF740FB0220FEF73DFB0320FEF73AFB74
:1020A0000020FEF701FE0120FEF7FEFD0220FEF7F4
:1020B000FBFD0320FEF7F8FD144B1A6842F04002C6
:1020C0001A60124B1A6842F080021A600F4B1A68AD
:1020D00042F480721A600E4B1A6842F040021A6095
:1020E0000B4B1A6842F080021A60094B1A6842F4DE
:1020F00080721A6015200121FFF742FF1520FFF7BB
:1021000027FF80BDE8010010D34D6210B08002406F
:10211000B480024080B584B000AF0023FB60002390
:102120007B600023BB60FFF78FFFFB68002B02D0B2
:10213000012B19D024E0134B00221A600320FEF774
:10214000C7FF78607B68002B03D000237B600123EE
:10215000FB600023BB6002E0BB680133BB60BB686F
:10216000B3F57A7FF8D30BE0074BDB68002B06D082
:10217000054B0022DA600320FFF778F8FFE700BF85
:10218000D3E700BFE4010010D401001080B400AF19
:10219000224B1B689B0903F00103DBB2002B27D104
:1021A0001F4B1B689B0903F00103DBB2002B1FD1FF
:1021B0001A4B1B68DB0903F00103DBB2002B17D1BC
:1021C000174B1B68DB0903F00103DBB2002B0FD1B7
:1021D000124B1B681B0A03F00103DBB2002B07D173
:1021E0000F4B1B681B0A03F00103DBB2002B11D05D
:1021F0000C4B1A6842F040021A600A4B1A6842F00F
:1022000080021A60074B1A6842F480721A60064B0B
:102210000122DA60BD465DF8047B7047A48002406D
:10222000A8800240AC800240D401001080B582B08A
:1022300000AF054B7B60054A7B681A6000F034F8FC
:102240000837BD4680BD00BF08ED00E0000000007B
:1022500080B485B000AF0346FB71084B1B68C3F325
:102260000B03FB60054AFB791B031946FB680B4314
:1022700013601437BD465DF8047B704700C00F4003
:1022800080B500AF02480349162200F0FFF880BD78
:1022900000C002406C29000080B500AF00F0A0F93A
:1022A0000420FFF7D5FF80BD80B500AFFFF7E8FF42
:1022B000FFF7F2FF80BD00BF80B485B000AF78604B
:1022C0007B685B68FB607B6800225A607B68012248
:1022D0009A607B685B6843F008027B685A607B68A1
:1022E000FA685A601437BD465DF8047B704700BF3A
:1022F00080B483B000AF7860084611461A460346A2
:10230000FB700B46BB7013467B70FB78002B2FD005
:102310007B78002B0AD07B68DB6CFA7808320121CD
:1023200001FA02F21A437B68DA640AE07B68DB6C2C
:10233000FA780832012101FA02F2D2431A407B688E
:10234000DA64BB78012B09D17B68DB6CFA78012158
:1023500001FA02F21A437B68DA6409E07B68DB6CFD
:10236000FA78012101FA02F2D2431A407B68DA645A
:102370000C37BD465DF8047B704700BF80B483B066
:1023800000AF78600B46FB701346BB70BB78002B28
:1023900009D07B681B6DFA78012101FA02F21A4319
:1023A0007B681A6509E07B681B6DFA78012101FAE8
:1023B00002F2D2431A407B681A650C37BD465DF8BD
:1023C000047B704790B587B002AFF8607B600B4626
:1023D000FB721346BB727B689C087B68DBB203F020
:1023E0000303DBB2F97ABA7A0093F868234600F067
:1023F00003F81437BD4690BD80B487B000AFF860D5
:102400007B600B46FB721346BB72BB7A03F00F0373
:10241000DBB25B00FB75FB7A5B00DAB2BB7A1B09AF
:10242000DBB21344BB75BA7DFB6853F82220FB7DF9
:10243000032101FA03F3DB4313403B61BA7D97F8B4
:102440002010FB7D01FA03F319463B691943FB6831
:1024500043F82210BA7DFB68103253F82220FB7D2E
:10246000032101FA03F3DB4313403B61BA7DFB7D9B
:10247000796899403B691943FB68103243F8221090
:102480001C37BD465DF8047B704700BF90B587B030
:1024900000AFF860B9607A6000237B611FE07B6960
:1024A0009B00BA6813441B78C3F30203DBB21946DE
:1024B0007B699B00BA6813441B78C3F3C403DBB287
:1024C0001C467B699B00BA6813441B68C3F317233F
:1024D000F8682246FFF776FF7B6901337B617A69F2
:1024E0007B689A42DBD31C37BD4690BD80B500AFF8
:1024F00000F030FA0246014B1A6080BDE80100107E
:1025000080B400AF074BD3F8883003F08073002B02
:1025100014BF01230023DBB21846BD465DF8047BDF
:10252000704700BF00C00F4080B400AF074BD3F826
:10253000883003F08063002B14BF01230023DBB23B
:102540001846BD465DF8047B704700BF00C00F40D1
:1025500080B400AF074BD3F8883003F00073002B32
:1025600014BF01230023DBB21846BD465DF8047B8F
:10257000704700BF00C00F4080B400AF054A054B54
:10258000D3F8A03143F02003C2F8A031BD465DF876
:10259000047B704700C00F4080B400AF074BD3F8F6
:1025A000A03103F04003002B14BF01230023DBB252
:1025B0001846BD465DF8047B704700BF00C00F4061
:1025C00080B483B000AF0346FB71044AFB79C2F8C4
:1025D0000C310C37BD465DF8047B704700C00F40DE
:1025E00080B500AFFFF7B4FF0346002B03D00020F7
:1025F000022100F0D7F8FFF783FF0346002B03D03A
:102600000020012100F0CEF8FFF7C6FF034683F05B
:102610000103DBB2002B01D0FFF7AEFF00BFFFF7D5
:10262000BBFF034683F00103DBB2002BF7D1002090
:1026300000F018F90120FFF7C3FF00200F2100224E
:1026400000F0D2F80020012100F08AF8032000F009
:1026500009F900BFFFF768FF034683F00103DBB20F
:10266000002BF7D10020022100F07AF880BD00BFD6
:1026700080B400AF074BD3F8883003F08073002B91
:1026800014BF01230023DBB21846BD465DF8047B6E
:10269000704700BF00C00F4080B400AF074BD3F8B5
:1026A000883003F00073002B14BF01230023DBB23A
:1026B0001846BD465DF8047B704700BF00C00F4060
:1026C00080B483B000AF0346FB71094AFB795B011C
:1026D00013448833AA225A60054AFB795B011344EC
:1026E000883355225A600C37BD465DF8047B70472D
:1026F00000C00F4080B400AF054BD3F80C31DBB203
:1027000003F00303DBB21846BD465DF8047B704757
:1027100000C00F4080B400AF024B1846BD465DF8C4
:10272000047B7047001BB70080B400AF024B184613
:10273000BD465DF8047B704700093D0080B400AFE2
:102740004FF400431846BD465DF8047B704700BF58
:1027500080B500AF00F0A4F80346184680BD00BF66
:1027600080B584B000AF03463960FB710C4AFB7939
:1027700004335B0113441B68FB60FA683B68134336
:10278000FB60074AFB7904335B011344FA681A6063
:10279000FB791846FFF794FF1037BD4680BD00BF98
:1027A00000C00F4080B584B000AF03463960FB71B4
:1027B0000C4AFB7904335B0113441B68FB603B68E4
:1027C000DB43FA681340FB60064AFB7904335B0184
:1027D0001344FA681A60FB791846FFF771FF103747
:1027E000BD4680BD00C00F4080B586B000AF034637
:1027F000B9607A60FB73FB7B002B05D17B681A0400
:10280000BB6813437B6104E07B685A01BB681343D8
:102810007B610A4AFB7B04335B0113447A695A608B
:10282000064AFB7B04335B01134401221A60FB7BE5
:102830001846FFF745FF1837BD4680BD00C00F4062
:1028400080B582B000AFFFF727FF0346002B02D010
:102850000123FB7101E00023FB71FB791846083767
:10286000BD4680BD80B483B000AF7860044A7B6809
:10287000C2F804310C37BD465DF8047B704700BFD9
:1028800000C00F4080B400AF044BD3F80431DBB27A
:1028900001331846BD465DF8047B704700C00F4009
:1028A00080B500AFFFF726FF0346012B0AD0022BAD
:1028B0000CD0002B02D000BF00230AE0FFF734FF4A
:1028C000034606E0FFF726FF034602E0FFF736FF68
:1028D0000346184680BD00BF80B584B000AF00231A
:1028E000FB60FFF7C5FE0346002B18D00E4BD3F854
:1028F0008430C3F30E030133BB600B4BD3F8843039
:102900001B0CDBB201337B60FFF722FF0246BB6882
:1029100003FB02F35A007B68B2FBF3F3FB60FB6836
:1029200018461037BD4680BD00C00F4080B500AFCF
:10293000FFF786FF0346002B05D0012B07D1FFF7D9
:10294000CBFF034604E0FFF7ABFF034600E00023A4
:10295000184680BD98B500AFFFF7E8FF0446FFF7C3
:1029600091FF0346B4FBF3F3184698BD000A00003C
:10297000080A0000200A0000280A0000B008000031
:10298000B8090000D00A0000010900000909000090
:102990002109000041090000490900005109000017
:1029A000710900007909000081090000890900000F
:1029B0001A080000780800002208000080080000C3
:0429C0008808000083
:1029C40001000000000000000000000003000000FF
:1029D40000000000010000000100000000000000F1
:1029E40000000000000000000200000002000000DF
:1029F400020000001C0000001B0000001A00000080
:102A04000A0000001C0000001B000000160000006B
:102A14001500000014000000000000000100000088
:102A2400020000000300000000000000000000009D
:102A3400010000000100000001000000000000008F
:102A4400000000000000000002000000020000007E
:102A540002000000190000001D0000001E0000001C
:102A64001A00000019000000180000001300000004
:102A74001200000011000000030000000400000028
:102A8400050000000100000001000000010000003A
:102A9400010000000100000001000000000000002F
:102AA400000000000200000002000000020000001C
:102AB40002000000120000001300000014000000D7
:102AC4001500000016000000170000000F000000B1
:102AD40010000000090000000600000007000000CC
:102AE4000800000032000000410000000F00000058
:102AF4001400000040010000030000000400000076
:082B04000500000006000000BE
:040000030000017187
:00000001FF
