:100000000080001071010000E9010000F101000012
:10001000F9010000010200000902000000000000D8
:10002000000000000000000000000000A11500001A
:1000300019020000000000008D160000C916000023
:1000400031020000310200003102000031020000E4
:1000500031020000310200003102000031020000D4
:1000600031020000E10B000031020000310200000B
:1000700031020000310200003102000031020000B4
:1000800031020000310200003102000031020000A4
:100090003102000031020000310200003102000094
:1000A0003102000031020000310200003102000084
:1000B0003102000031020000310200003102000074
:1000C000310200003102000031020000AC430000A8
:1000D0000000001094090000AC43000000C007209D
:1000E0000000000094090010D001000000C00720AB
:1000F0000000000080B489B000AFF860B9607A6099
:10010000BB68FB61FB68BB6100237B610AE0FB69A4
:100110001A1DFA61BA69111DB96112681A607B690A
:1001200004337B617A697B689A42F0D32437BD46F9
:100130005DF8047B704700BF80B485B000AF786085
:1001400039607B68FB600023BB6007E0FB681A1D19
:10015000FA6000221A60BB680433BB60BA683B686F
:100160009A42F3D31437BD465DF8047B704700BF55
:1001700080B584B000AF194BFB6013E0FB681A1D1B
:10018000FA601B68BB60FB681A1DFA601B687B6025
:10019000FB681A1DFA601B683B60B86879683A68AA
:1001A000FFF7A8FFFB680E4A9342E7D30DE0FB6818
:1001B0001A1DFA601B687B60FB681A1DFA601B68D9
:1001C0003B6078683968FFF7B7FFFB68054A9342E0
:1001D000EDD300F065FE00F0F1FDFEE7CC0000007D
:1001E000E4000000F400000080B400AFFEE700BFB0
:1001F00080B400AFFEE700BF80B400AFFEE700BFF1
:1002000080B400AFFEE700BF80B400AFFEE700BFE0
:1002100080B400AFFEE700BF80B400AFFEE700BFD0
:1002200080B400AFFEE700BF80B400AFFEE700BFC0
:1002300080B400AFFEE700BFFFFFFFFFFFFFFFFF3F
:10024000FFFFFFFFFFFFFFFFFFFFFFFFFFFFFFFFBE
:10025000FFFFFFFFFFFFFFFFFFFFFFFFFFFFFFFFAE
:10026000FFFFFFFFFFFFFFFFFFFFFFFFFFFFFFFF9E
:10027000FFFFFFFFFFFFFFFFFFFFFFFFFFFFFFFF8E
:10028000FFFFFFFFFFFFFFFFFFFFFFFFFFFFFFFF7E
:10029000FFFFFFFFFFFFFFFFFFFFFFFFFFFFFFFF6E
:1002A000FFFFFFFFFFFFFFFFFFFFFFFFFFFFFFFF5E
:1002B000FFFFFFFFFFFFFFFFFFFFFFFFFFFFFFFF4E
:1002C000FFFFFFFFFFFFFFFFFFFFFFFFFFFFFFFF3E
:1002D000FFFFFFFFFFFFFFFFFFFFFFFFFFFFFFFF2E
:1002E000FFFFFFFFFFFFFFFFFFFFFFFFFFFFFFFF1E
:1002F000FFFFFFFFFFFFFFFFFFFFFFFFFFFFFFFF0E
:1003000080B483B000AF0346FB71084997F907300A
:100310005B09FA7902F01F02012000FA02F241F8AB
:1003200023200C37BD465DF8047B704700E100E0F8
:1003300080B483B000AF7860084611461A46034681
:10034000FB700B46BB7013467B707B78002B0FD085
:10035000FB785B017A681344FA78520179680A44A1
:100360009169BA78012000FA02F20A439A610EE01C
:10037000FB785B017A681344FA78520179680A4481
:10038000D169BA78012000FA02F20A43DA610C3727
:10039000BD465DF8047B704780B584B000AFF8605F
:1003A000B96011461A460B46FB711346BB71BB6818
:1003B000D9B2FA79BB79F868FFF7BAFF1037BD46B2
:1003C00080BD00BF80B483B000AF78600B46FB7087
:1003D0001346BB70FB785B017A6813445A69BB789B
:1003E00022FA03F303F00103002B14BF01230023BF
:1003F000DBB218460C37BD465DF8047B704700BF82
:1004000080B584B000AFF860B9601346FB71BB687B
:10041000DAB2FB79F86811461A46FFF7D3FF0346B4
:1004200018461037BD4680BD80B483B000AF7860F9
:100430000B46FB701346BB70FB785B017A68134474
:10044000FA78520179680A441168BA78012000FAF2
:1004500002F20A431A600C37BD465DF8047B704710
:1004600080B483B000AF78600B46FB701346BB705E
:10047000FB785B017A681344FA78520179680A4480
:100480001168BA78012000FA02F2D2430A401A60D9
:100490000C37BD465DF8047B704700BF80B582B065
:1004A00000AF7860084611461A460346FB700B46BB
:1004B000BB7013467B707B78002B07D0FA78BB7833
:1004C000786811461A46FFF7AFFF06E0FA78BB7866
:1004D000786811461A46FFF7C3FF0837BD4680BD4E
:1004E00080B582B000AF7860084611461A460346D0
:1004F000FB700B46BB7013467B70F978BA787B783B
:100500007868FFF7CBFF0837BD4680BD80B483B065
:1005100000AF78600B46FB707B681B6897F903207F
:10052000032A05DC97F90320012101FA02F205E014
:1005300097F903200432012101FA02F21340002B43
:1005400014BF01230023DBB218460C37BD465DF80B
:10055000047B704780B483B000AF78600B46FB70BB
:1005600097F90330032B06DC97F90330012202FAD6
:1005700003F31A4606E097F903300433012202FA26
:1005800003F31A467B681A600C37BD465DF8047B9E
:10059000704700BF80B483B000AF78607B685B6851
:1005A00043F001027B685A607B685B6843F0080295
:1005B0007B685A600C37BD465DF8047B704700BF0E
:1005C00080B483B000AF786039607B683A68DA60E5
:1005D0000C37BD465DF8047B704700BF80B485B022
:1005E00000AFF8600B467A60FB7297F90B30062B70
:1005F0002CD801A252F823F0150600001D060000B9
:10060000250600002D060000350600003D0600000E
:1006100045060000FB687A689A6118E0FB687A6812
:10062000DA6114E0FB687A681A6210E0FB687A68A5
:100630005A620CE0FB687A681A6408E0FB687A6822
:100640005A6404E0FB687A689A6400E000BF1437DB
:10065000BD465DF8047B704780B483B000AF78601E
:100660000B46FB707B685B69FA7802F00702510069
:10067000FA7802F007020A44012101FA02F21A4351
:100680007B685A610C37BD465DF8047B704700BF3C
:1006900080B483B000AF78600B46FB707B6859690B
:1006A00097F9032013465B0013440133012202FA39
:1006B00003F341EA03027B685A610C37BD465DF8DB
:1006C000047B704780B483B000AF78600B46FB704A
:1006D0007B68596997F9032013465B001344013383
:1006E000012202FA03F3DB4301EA03027B685A6149
:1006F0000C37BD465DF8047B704700BF80B483B003
:1007000000AF78600B46FB707B68596997F903204E
:1007100013465B0013440233012202FA03F3DB4366
:1007200001EA03027B685A610C37BD465DF8047B21
:10073000704700BF80B500AF1B480021FFF740FFA6
:10074000194800214FF47A72FFF748FF164800213C
:10075000FFF782FF14480021FFF79AFF124800219B
:10076000FFF7CCFF104805210022002302F086FB92
:100770000D4805211422FFF731FF0B480521FFF733
:100780006BFF09480521FFF79DFF07480521FFF78B
:10079000B5FF054802F056FB0348FFF7FBFE0920B2
:1007A000FFF7AEFD80BD00BF0080014080B500AF07
:1007B0002D4802210C220123FFF792FE2A48022134
:1007C0000B220123FFF78CFE27480221042201237C
:1007D000FFF786FE2448022103220123FFF780FE53
:1007E0002148022102220123FFF77AFE1E48002140
:1007F00011220123FFF774FE1B4802210B22002364
:10080000FFF7CAFD1848022104220123FFF7C4FDA7
:100810001548022103220023FFF7BEFD12480221E2
:1008200002220123FFF7B8FD0F4800211122002307
:10083000FFF7B2FD0C4802210C220123FFF7ACFDAB
:100840000948012113220023FFF74AFE064801212F
:1008500016220023FFF744FE03480121192200233A
:10086000FFF73EFE80BD00BF00C0092080B500AF8D
:10087000194B5B68194A1360174BDB689AB2184B27
:100880001A80174B1B889AB2164B1A801648022101
:100890000B220023FFF780FD1348022104220123CD
:1008A000FFF77AFD1048022103220023FFF774FDB1
:1008B0000D48022102220123FFF76EFD0A480021A4
:1008C00011220023FFF768FD074802210C220123B3
:1008D000FFF762FD80BD00BF38010010440B00101F
:1008E0003C0B0010540B001000C0092080B584B0F0
:1008F00000AF0123FB60344B00221A7000F070F847
:1009000009E000BF314B1B681A46314B1B689A4205
:10091000F8D800F065F82C4B1B78092BF1D92D4B3A
:100920001A692C4BDB68D21A2A4B1B6892FBF3F333
:10093000BB60284B5A68274B9B68D21A254B1B6813
:1009400092FBF3F37B600023FB6025E000BF1F4BAD
:100950001B681A461E4B1B689A42F8D800F040F8F4
:100960001C4BDB689AB2FB689BB2B96889B201FB89
:1009700003F39BB213449AB2174B1A80154B5B6872
:100980001946FB687A6802FB03F3CB1A1A460F4B31
:100990001A60FB680133FB600C4B1A680D4B9B68B7
:1009A0009A42D3DC0C4B96221A800B4B1B889BB2CD
:1009B0000A4805211A46FFF711FE084802F042FADC
:1009C0001037BD4680BD00BFC0090010440B0010A9
:1009D0009C090010380100103C0B00100080014001
:1009E00080B500AF6D4B1B889AB26D4B1B889BB2D4
:1009F0009A420FD0694B1B889BB26A4805211A4660
:100A0000FFF7ECFD674802F01DFA644B1B889AB2B1
:100A1000634B1A80644B1B68042B70D801A252F8F8
:100A200023F000BF390A0000670A0000850A0000B1
:100A3000B30A0000D10A00005C4B9A685C4B9B68CB
:100A4000DBB25C4811461A460123FFF7A5FC574B61
:100A50001A68574B1B68DBB2564811461A460023EA
:100A6000FFF79AFC59E0544B5A68544B5B68DBB271
:100A7000504811461A460023FFF78EFC504B0222C5
:100A80001A604AE0494B1A68494B1B68DBB2494877
:100A900011461A460123FFF77FFC444B5A68444B2A
:100AA0005B68DBB2434811461A460023FFF774FC2B
:100AB00033E0444B9A68414B9B68DBB23D4811469A
:100AC0001A460023FFF768FC3D4B00221A6024E021
:100AD0003D4B5A68364B5B68DBB2364811461A46C6
:100AE0000123FFF759FC384B9A68314B9B68DBB206
:100AF000304811461A460023FFF74EFC0DE02E4BFE
:100B00001A682E4B1B68DBB22A4811461A4600238E
:100B1000FFF742FC2A4B01221A60234B1B68042B6F
:100B200009DD214B00221A60284B1B780133DAB211
:100B3000264B1A7004E01C4B1B6801331A4A1360E1
:100B4000234B00221A60234B1A68234B1B68DBB22D
:100B5000184811461A46FFF753FC03461A461F4B26
:100B60001A701C4B5A681C4B5B68DBB2114811466B
:100B70001A46FFF745FC03461A46184B5A70154BA8
:100B80009A68154B9B68DBB20A4811461A46FFF774
:100B900037FC03461A46114B9A7080BD3C0B00107F
:100BA000540B001000800140B009001078000010C4
:100BB000A800001000C00920180000104800001014
:100BC000A0090010000000100C000010C009001067
:100BD0009C090010D800001008010010A4090010A2
:100BE00080B500AF1D480021FFF790FC0346002BA5
:100BF00018D01B4B1B680133194A1360174800219A
:100C0000FFF7A8FC174B1B68174A52F82310154B27
:100C10001B68164A52F82330DBB215481A460123E6
:100C2000FFF7BAFB0D480521FFF770FC0346002BC8
:100C300013D00A480521FFF78DFC0A4B1B680A4AAE
:100C400052F82310074B1B68084A52F82330DBB2D6
:100C500007481A460023FFF79FFB80BD0080014034
:100C60009C090010A0090010180000104800001096
:100C700000C0092090B585B000AF7860154B1B68A7
:100C8000002B02D1134B144A1A60124B1B68FB60F5
:100C9000EFF308831C462346BB600E4B1A687B6843
:100CA0001A44BB689A420AD902200C49192200F062
:100CB00019F80B4B0C221A604FF0FF3306E0054B7E
:100CC0001A687B681344034A1360FB68184614379C
:100CD000BD4690BD94090010640B0010E83A000076
:100CE000600B001080B485B000AFF860B9607A6026
:100CF000FB68012B07D0022B07D0084B09221A6092
:100D00004FF0FF3303E000BF00E000BF7B681846F0
:100D10001437BD465DF8047B704700BF600B0010C0
:100D200080B500AF02F084F901F02AFDFFF79EFDC7
:100D3000FFF73CFDFFF7FEFC80BD00BF80B584B02F
:100D400000AF78607B68FB600A4B1B681846002187
:100D50004FF0FF32002300F07FF9F86801F0FCFC4F
:100D6000044B1B68184600210022002300F0E8F81D
:100D7000EAE700BF9809001080B485B000AF786042
:100D80000123FB60FEE700BF80B582B000AF786052
:100D9000FFF726FE024B1B68184600F02DFEF7E712
:100DA000440B001080B582B000AF7860FFF79EFD65
:100DB000002000F049FE0837BD4680BD80B584B0F4
:100DC00004AFFFF7ADFF012300930023019300233D
:100DD000029300230393264826494FF48062264B52
:100DE00000F06EFD01230093002301930023029382
:100DF000002303931E4821494FF48062204B00F0EA
:100E00005FFD01230093002301930023029300233D
:100E100003931C481C494FF48062002300F050FDEE
:100E200001230093002301930023029300230393E3
:100E3000164817494FF48062002300F041FD01235A
:100E4000009300230193002302930023039311488E
:100E500011494FF48062002300F032FD012000F0C0
:100E600031F802460D4B1A6000F036FEFEE700BF77
:100E70003D0D00000C430000043B00001443000043
:100E8000083F0000790D00001C430000A50D000084
:100E900024430000890D000034430000980900102D
:100EA00080B582B000AF054B7B60054A7B681A6055
:100EB00001F0A4FC0837BD4680BD00BF08ED00E08E
:100EC0000000000080B584B000AF0346FB714C20E9
:100ED00001F022FBF860FB68002B2CD0FB6800229D
:100EE0005A60FB6800221A60FB6800229A60FB6867
:100EF0000022DA60FB6800229A63FB680122DA6351
:100F0000FB6800221A64FB684FF0FF325A64FB68EA
:100F10004FF0FF329A64FB681033184600F05CFA19
:100F2000FB682433184600F057FAF86800210022C5
:100F3000002300F005F8FB6818461037BD4680BD59
:100F400080B588B000AFF860B9607A603B6000237C
:100F5000FB61FB68BB6100F069FBBB699A6BBB6915
:100F6000DB6B9A4202D33B68022B16D1B869B96891
:100F70003A6800F029F9BB695B6A002B09D0BB69AC
:100F80002433184600F0DAFF0346012B01D100F0AC
:100F90003DFB00F05BFB012359E07B68002B03D194
:100FA00000F054FB002352E0FB69002B06D107F14F
:100FB0001003184601F018F80123FB6100F046FB0E
:100FC00000F0B4FD00F032FBBB695B6CB3F1FF3F96
:100FD00002D1BB6900225A64BB699B6CB3F1FF3F2D
:100FE00002D1BB6900229A6400F030FB07F11002C5
:100FF0003B1D1046194601F00DF80346002B1ED18B
:10100000B86900F0D1F90346002B12D0BB6903F197
:1010100010027B681046194600F060FFB86900F0C6
:1010200061F900F0B9FD0346002B0FD100F0EEFA94
:101030000CE0B86900F056F900F0AEFD8BE7B86936
:1010400000F050F900F0A8FD002300E083E7184607
:101050002037BD4680BD00BF80B58AB000AFF860C4
:10106000B9607A603B6000237B62FB683B6200F002
:10107000DDFA3B6A9B6B002B3BD03B6ADB68FB6174
:10108000386AB96800F008F93B68002B1CD13B6A4C
:101090009B6B5A1E3B6A9A633B6A1B68002B04D108
:1010A00001F092F902463B6A5A603B6A1B69002BC9
:1010B0001BD03B6A1033184600F040FF0346012B5B
:1010C00013D100F0A3FA10E03B6AFA69DA603B6AD8
:1010D0005B6A002B09D03B6A2433184600F02EFFD0
:1010E0000346002B01D000F091FA00F0AFFA012383
:1010F00066E07B68002B03D100F0A8FA00235FE0D4
:101100007B6A002B06D107F11403184600F06CFF30
:1011100001237B6200F09AFA00F008FD00F086FAE5
:101120003B6A5B6CB3F1FF3F02D13B6A00225A6419
:101130003B6A9B6CB3F1FF3F02D13B6A00229A6489
:1011400000F084FA07F114023B1D1046194600F026
:1011500061FF0346002B2BD1386A00F00FF90346DC
:10116000002B1FD03B6A1B68002B08D100F05EFAF1
:101170003B6A5B68184601F037F900F067FA3B6A92
:1011800003F124027B681046194600F0A7FE386A76
:1011900000F0A8F800F000FD0346002B0FD100F08E
:1011A00035FA0CE0386A00F09DF800F0F5FC5EE7D7
:1011B000386A00F097F800F0EFFC002300E056E7F3
:1011C00018462837BD4680BD80B584B000AFF860B2
:1011D000B9607A60FB681B6C002B0CD1FB681B6844
:1011E000002B51D1FB685B68184601F057F9FB688A
:1011F00000225A6048E07B68002B1AD1FB689A688D
:10120000FB681B6C1046B9681A4602F069FAFB6865
:101210009A68FB681B6C1A44FB689A60FB689A68C2
:10122000FB685B689A422FD3FB681A68FB689A6078
:101230002AE0FB68DA68FB681B6C1046B9681A463E
:1012400002F04EFAFB68DA68FB681B6C5B421A44DA
:10125000FB68DA60FB68DA68FB681B689A4207D2B1
:10126000FB685A68FB681B6C5B421A44FB68DA60D7
:101270007B68022B08D1FB689B6B002B04D0FB68BA
:101280009B6B5A1EFB689A63FB689B6B5A1CFB683E
:101290009A631037BD4680BD80B582B000AF7860DC
:1012A00039607B681B68002B19D07B68DA687B6823
:1012B0001B6C1A447B68DA607B68DA687B685B6861
:1012C0009A4203D37B681A687B68DA607B68DA68C5
:1012D0007B681B6C386811461A4602F001FA083721
:1012E000BD4680BD80B582B000AF786000F09EF949
:1012F00014E07B685B6A002B0AD07B6824331846B5
:1013000000F01CFE0346002B03D000F0C7FE00E0F7
:1013100008E07B689B6C5A1E7B689A647B689B6CB8
:10132000002BE6DC7B684FF0FF329A6400F08EF908
:1013300000F07CF914E07B681B69002B0FD07B6800
:101340001033184600F0FAFD0346002B01D000F0E0
:10135000A5FE7B685B6C5A1E7B685A6400E003E064
:101360007B685B6C002BE6DC7B684FF0FF325A64D5
:1013700000F06CF90837BD4680BD00BF80B584B071
:1013800000AF786000F052F97B689B6B002B02D1B4
:101390000123FB6001E00023FB6000F057F9FB68CC
:1013A00018461037BD4680BD80B584B000AF786068
:1013B00000F03CF97B689A6B7B68DB6B9A4202D148
:1013C0000123FB6001E00023FB6000F03FF9FB68B4
:1013D00018461037BD4680BD80B483B000AF78603A
:1013E0007B6803F108027B685A607B684FF0FF322C
:1013F0009A607B6803F108027B68DA607B6803F11E
:1014000008027B681A617B6800221A600C37BD46AF
:101410005DF8047B704700BF80B483B000AF786094
:101420007B6800221A610C37BD465DF8047B70476B
:1014300080B485B000AF786039607B685B68FB6022
:101440003B68FA685A60FB689A683B689A60FB6878
:101450009B683A685A60FB683A689A603B687A68A9
:101460001A617B681B685A1C7B681A601437BD467A
:101470005DF8047B704700BF80B485B000AF786032
:1014800039603B681B68BB60BB68B3F1FF3F03D1A9
:101490007B681B69FB600CE07B680833FB6002E043
:1014A000FB685B68FB60FB685B681A68BB689A4214
:1014B000F6D9FB685A683B685A603B685B683A68D3
:1014C0009A603B68FA689A60FB683A685A603B68C1
:1014D0007A681A617B681B685A1C7B681A6014372B
:1014E000BD465DF8047B704780B485B000AF78607E
:1014F0007B685B687A6892689A607B689B687A68A8
:1015000052685A607B681B69FB60FB685A687B689D
:101510009A4203D17B689A68FB685A607B68002214
:101520001A61FB681B685A1EFB681A60FB681B681F
:1015300018461437BD465DF8047B704780B485B00B
:1015400000AFF860B9607A60FB68043BFB60FB6841
:101550004FF080721A60FB68043BFB60BA68FB685E
:101560001A60FB68043BFB60094AFB681A60FB6871
:10157000143BFB607A68FB681A60FB68203BFB60E9
:10158000FB6818461437BD465DF8047B704700BF02
:101590009515000080B500AF00F06AF8FEE700BFC7
:1015A000064B19680868B0E8F00F80F309884FF01F
:1015B000000080F311884EF00D0E7047D009001026
:1015C00003480068006880F3088862B600DF00BF47
:1015D00008ED00E080B500AF0A4A0A4B1B6843F4EF
:1015E00078031360074A074B1B6843F07843136086
:1015F00000F02AF9044B00221A60FFF7E1FF0023F4
:10160000184680BD20ED00E04C01001080B400AF12
:10161000054B4FF080521A60BFF34F8FBFF36F8FAF
:10162000BD465DF8047B704704ED00E080B500AF77
:1016300000F01EF8044B1B680133034A1360BFF32C
:101640004F8FBFF36F8F80BD4C01001080B500AF8E
:10165000064B1B68013B054A1360044B1B68002BBB
:1016600002D1002000F00EF880BD00BF4C01001038
:10167000EFF311804FF0280181F3118870470023A8
:10168000184600BF80F31188704700BFEFF3098050
:101690000C4B1A6820E9F00F10602DE908404FF05C
:1016A000280080F3118800F0CDFB4FF0000080F39C
:1016B0001188BDE8084019680868B0E8F00F80F3A9
:1016C00009887047D009001080B500AFFFF7D0FF40
:1016D00000F0F2FA0346002B03D0044B4FF0805287
:1016E0001A600020FFF7CEFF80BD00BF04ED00E0D0
:1016F00080B588B000AF78604D4B1B687A689A421D
:1017000002D94B4B1B687B604A4B06221A604A4B3E
:101710001A687B68013B4949096801FB03F31344DC
:10172000FB61474B1B68FA699A4204D9444B1B681A
:10173000FA69D31AFB6172B600F0E0FC0346002B95
:101740000DD1404A3C4B1B6813603A4B07221A608C
:101750003C4A3A4B1B68013B136062B665E0394A6C
:10176000FB691360344B00221A60324B07221A6067
:101770007B683B613B69002B04D0BFF34F8F30BFC8
:10178000BFF36F8F2B4B06221A6062B6294B1B6882
:1017900003F48033002B1DD0284B1A68264B1968A0
:1017A000FB69CB1A1344013B7B61254B1B687A69AB
:1017B0009A4204D3214B1B687A699A4203D91F4B82
:1017C0001B68013B7B611F4A7B6913607B68013B9F
:1017D000BB6118E0194B1B687A6802FB03F2164BD9
:1017E0001B68D31AFB60154B1B68FA68B2FBF3F356
:1017F000BB611449BB690133104A126802FB03F252
:10180000FB68D31A0B600C4B00221A60FFF70EFF27
:10181000084B07221A60B86900F03CFA094A074BE6
:101820001B68013B1360FFF711FF2037BD4680BDE9
:10183000C809001010E000E018E000E0C409001042
:10184000CC09001014E000E080B400AF154B1B6819
:10185000154AA2FB03239B09144A1360134B1B6810
:101860006FF07F42B2FBF3F3114A13600D4B1A681D
:101870000C4B1B68B2FBF3F32D22B2FBF3F30D4AC2
:1018800013600D4A074B1B680749A1FB03139B0913
:10189000013B1360094B07221A60BD465DF8047BCB
:1018A000704700BF5C0B0010D34D6210C4090010DC
:1018B000C8090010CC09001014E000E010E000E0BE
:1018C00080B58AB002AFF860B9603B601346FB8018
:1018D000FB881846396B00F035FDB861BB69002BF9
:1018E00066D0BB691A6BFB8803F18043013B9B0008
:1018F00013447B617B6923F007037B61FB880093C2
:10190000B869B968BA6A7B6B00F026FC7869F96837
:101910003A68FFF713FE0246BB691A60FB6A002BA8
:1019200002D0FB6ABA691A60FFF780FE2C4B1B6875
:1019300001332B4A13602B4B1B68002B09D1294A1A
:10194000BB691360264B1B68012B0FD100F04CFCC8
:101950000CE0254B1B68002B08D1224B1B68DA6A70
:10196000BB6A9A4202D81F4ABB6913601F4B1B68AF
:1019700001331E4A1360BB69DA6A1D4B1B689A4229
:1019800003D9BB69DB6A1A4A1360BB69DA6A13467A
:101990009B0013449B00174A1A44BB69043310464A
:1019A0001946FFF745FD0123FB61FFF74FFE02E0FB
:1019B0004FF0FF33FB61FB69012B0BD10A4B1B6816
:1019C000002B07D0074B1B68DA6ABB6A9A4201D228
:1019D000FFF71CFEFB6918462037BD4680BD00BFDF
:1019E000E40A0010D0090010F00A0010040B0010E7
:1019F000EC0A0010D409001080B584B000AF786004
:101A00000023FB607B68002B12D000F08FF80C4B9A
:101A10001A687B681344BB600A4B1B680433184682
:101A2000FFF762FDB86800F057FC00F0B5F8F86009
:101A3000FB68002B01D1FFF7E9FD1037BD4680BDE3
:101A4000E80A0010D009001080B584B000AF7860BB
:101A5000FFF7ECFD7B68002B02D11B4B1B6800E0FD
:101A60007B68FB60FB6804331846FFF73DFDFB68AD
:101A70009B6A002B04D0FB6818331846FFF734FD2F
:101A8000FB68043311481946FFF7D2FCFFF7DEFD6F
:101A90000D4B1B68FA689A4212D10D4B1B68002B44
:101AA00002D0FFF7B3FD0BE0084B1A68094B1B6827
:101AB0009A4203D1044B00221A6001E000F0C2F9FF
:101AC0001037BD4680BD00BFD0090010D00A0010FD
:101AD000F00A0010E40A001080B586B004AF0023BD
:101AE00000930023019300230293002303930B48E8
:101AF0000B4980220023FFF7E3FE78607B68012B0F
:101B000009D1FFF7B5FD074B01221A60064B0022F1
:101B10001A60FFF75FFD0837BD4680BDB5200000A5
:101B20003C430000F00A0010E80A001080B400AF47
:101B3000044B1B680133034A1360BD465DF8047B08
:101B4000704700BFF40A001080B483B000AF0E4BA2
:101B50001B68DB6A002B02D000237B600CE00B4B80
:101B60001B68012B02D900237B6005E0084B1A6833
:101B7000084B1B68D31A7B607B6818460C37BD4640
:101B80005DF8047B704700BFD0090010D409001035
:101B900050010010E80A001080B582B000AF0023A9
:101BA0007B60FFF743FD334B1B68013B314A1360F9
:101BB000304B1B68002B56D12F4B1B68002B52D08B
:101BC0002FE02E4BDB68DB683B603B681833184620
:101BD000FFF78AFC3B6804331846FFF785FC3B6837
:101BE000DA6A274B1B689A4203D93B68DB6A244AAE
:101BF00013603B68DA6A13469B0013449B00214A3A
:101C00001A443B68043310461946FFF711FC3B6841
:101C1000DA6A1D4B1B68DB6A9A4202D31B4B012216
:101C20001A60164B1B68002BCBD1194B1B68002B7D
:101C300011D00CE000F040F80346002B02D0134B0B
:101C400001221A60124B1B68013B114A1360104BB2
:101C50001B68002BEED10D4B1B68012B03D1012318
:101C60007B60FFF7D3FCFFF7F1FC7B681846083771
:101C7000BD4680BDF40A0010E40A0010A40A00105A
:101C8000EC0A0010D4090010D0090010FC0A001062
:101C9000F80A001080B483B000AF7860054B1A6872
:101CA0007B681344034A13600C37BD465DF8047B20
:101CB000704700BFE80A001080B586B000AF00236F
:101CC0007B61554B1B68002B40F09580534B1B6884
:101CD0000133524A1360514B1B683B613B69002B37
:101CE00026D14F4B1B68FB604E4B1B684C4A136060
:101CF0004C4AFB6813604C4B1B6801334A4A136023
:101D0000474B1B681B68002B01D1012300E0002317
:101D1000002B04D0454B4FF0FF321A6008E0404BD7
:101D20001B68DB68DB68BB60BB685B683F4A1360AD
:101D30003E4B1B683A699A424ED3394B1B681B686D
:101D4000002B01D1012300E00023002B04D0374BEE
:101D50004FF0FF321A603FE0314B1B68DB68DB68F5
:101D6000BB60BB685B687B603A697B689A4203D260
:101D70002E4A7B6813602FE0BB6804331846FFF7D8
:101D8000B3FBBB689B6A002B04D0BB6818331846B2
:101D9000FFF7AAFBBB68DA6A254B1B689A4203D996
:101DA000BB68DB6A224A1360BB68DA6A13469B0091
:101DB00013449B001F4A1A44BB680433104619465B
:101DC000FFF736FBBB68DA6A1B4B1B68DB6A9A427B
:101DD00001D301237B61B0E7174B1B68DA6A154911
:101DE00013469B0013449B000B441B68012B07D92F
:101DF00001237B6104E0114B1B6801330F4A136020
:101E00000F4B1B68002B01D001237B617B691846B7
:101E10001837BD4680BD00BFF40A0010E80A001064
:101E20009C0A0010A00A0010000B001050010010C6
:101E3000EC0A0010D4090010D0090010F80A0010B4
:101E4000FC0A001080B483B000AF1F4B1B68002B4E
:101E500003D01E4B01221A6031E01C4B00221A6095
:101E600004E01B4B1B68013B194A1360184B1A68AE
:101E7000184913469B0013449B000B441B68002B1E
:101E8000EFD0134B1A6813469B0013449B00114A72
:101E900013447B607B685B685A687B685A607B6828
:101EA0005A687B6808339A4204D17B685B685A6839
:101EB0007B685A607B685B68DB68074A13600C3795
:101EC000BD465DF8047B7047F40A0010FC0A001060
:101ED000EC0A0010D4090010D009001080B584B0BD
:101EE00000AF78603960124B1B6818337868194668
:101EF000FFF7C2FA0E4B1B6804331846FFF7F4FADB
:101F00003B68B3F1FF3F07D1094B1B680433094815
:101F10001946FFF78DFA07E0074B1A683B68134430
:101F2000FB60F86800F0D8F91037BD4680BD00BFEF
:101F3000D0090010D00A0010E80A001080B584B063
:101F400000AF78607B68DB68DB68BB60BB68183318
:101F50001846FFF7C9FA1E4B1B68002B1DD1BB6842
:101F600004331846FFF7C0FABB68DA6A194B1B68DE
:101F70009A4203D9BB68DB6A164A1360BB68DA6A07
:101F800013469B0013449B00134A1A44BB68043356
:101F900010461946FFF74CFA05E0BB6818330F48A6
:101FA0001946FFF745FABB68DA6A0D4B1B68DB6A16
:101FB0009A4205D30123FB600A4B01221A6001E01B
:101FC0000023FB60FB6818461037BD4680BD00BF8C
:101FD000F40A0010EC0A0010D4090010A40A001042
:101FE000D0090010FC0A001080B483B000AF786004
:101FF000064B1A687B681A60054B1A687B685A6042
:102000000C37BD465DF8047B704700BF000B001025
:10201000E80A001080B584B000AF78603960FFF73F
:1020200005FB1C4B1B68BB603B681B68B3F1FF3FA3
:1020300002D10023FB6026E07B681A68164B1B6800
:102040009A4207D07B685A68BB689A4202D801233B
:10205000FB6018E07B685B68BA68D21A3B681B6853
:102060009A420ED23B681A687B685968BB68CB1AE3
:102070001A443B681A607868FFF7B6FF0023FB60DC
:1020800001E00123FB60FFF7E1FAFB681846103717
:10209000BD4680BDE80A0010000B001080B400AF00
:1020A000034B01221A60BD465DF8047B704700BFF8
:1020B000FC0A001080B584B000AF786000F0D2F860
:1020C0000D4B1B68012B01D9FFF7A0FA00F048FA6D
:1020D000FFF73AFDF860FB68012B0CD9FFF726FDEE
:1020E000FFF732FDF860FB68012B02D9F868FFF7B3
:1020F000FFFAFFF751FDE1E7D409001080B483B087
:1021000000AF0123FB71104B1B68002B02D0002392
:10211000FB7112E00D4B1B68002B02D00023FB71FA
:102120000BE001233B600A4B1A680A4B19683B68B5
:10213000CB1A9A4201D10223FB71FB7918460C3766
:10214000BD465DF8047B7047A40A0010FC0A00102D
:10215000D00A0010E40A001080B586B000AFF86025
:10216000B9607A603B6000237B6113E0BA687B69E9
:1021700013441978FA687B69134430330A461A719C
:10218000BA687B6913441B78002B00D105E07B699A
:1021900001337B617B69132BE8D9FB68002283F84C
:1021A00047207B68072B01D907237B60FB687A688F
:1021B000DA62FB687A689A64FB6804331846FFF7B2
:1021C0002BF9FB6818331846FFF726F9FB68FA6805
:1021D0001A617B68C3F10802FB689A61FB68FA68C0
:1021E0005A621837BD4680BD80B582B000AF00236B
:1021F0007B600CE07A6813469B0013449B00114AF5
:1022000013441846FFF7E8F87B6801337B607B686E
:10221000072BEFD90C48FFF7DFF80C48FFF7DCF885
:102220000B48FFF7D9F80B48FFF7D6F80A48FFF735
:10223000D3F80A4B044A1A60094B044A1A6008375B
:10224000BD4680BDD4090010740A0010880A001031
:10225000A40A0010B80A0010D00A00109C0A00104E
:10226000A00A001080B582B000AF28E0FFF75EFC46
:10227000164B1B68002B0CBF01230023DBB27B60D5
:10228000FFF78AFC7B68002B19D1FFF7CFF90F4BC2
:10229000DB68DB683B603B6804331846FFF724F9D2
:1022A0000B4B1B68013B0A4A13600A4B1B68013B3E
:1022B000084A1360FFF7CAF9386800F075F8054B53
:1022C0001B68002BD2D10837BD4680BDB80A00106C
:1022D000E40A0010CC0A001080B582B000AF78602C
:1022E000134B1B687A685A60124B1B687A689A42D3
:1022F00009D2114B1A680E4B1B680433104619465D
:10230000FFF7BAF810E00D4B1A68094B1B6804334D
:1023100010461946FFF7B0F8094B1B687A689A42D5
:1023200002D2074A7B6813600837BD4680BD00BFF4
:10233000D0090010E80A0010A00A00109C0A001042
:102340005001001080B584B000AF03463960FB80B7
:102350004C2000F0E1F8F860FB68002B1FD03B68D0
:10236000002B06D1FB889B00184600F0D5F80346E9
:1023700000E03B68FA681363FB681B6B002B05D118
:10238000F86800F0DBF80023FB6008E0FB681A6BDC
:10239000FB889B001046A5211A4601F017FAFB683E
:1023A00018461037BD4680BD80B582B000AF78605A
:1023B0007B681B6B184600F0C1F8786800F0BEF827
:1023C0000837BD4680BD00BF80B483B000AF054B69
:1023D0001B687B607B6818460C37BD465DF8047B44
:1023E000704700BFD009001080B584B000AF78609E
:1023F0007B68FB607B68002B46D0FB68DA6A244B65
:102400001B68DB6A9A423FD2214B1B68DB6AC3F12F
:102410000802FB689A61FB685969FB68DA6A13462F
:102420009B0013449B001B4A1344994201D1012392
:1024300000E00023002B22D0FB6804331846FFF78E
:1024400053F8134B1B68DA6AFB68DA62FB68DA6AD6
:10245000114B1B689A4203D9FB68DB6A0E4A136072
:10246000FB68DA6A13469B0013449B00094A1A442E
:10247000FB68043310461946FEF7DAFF04E0044B0C
:102480001B68DA6AFB68DA621037BD4680BD00BFA0
:10249000D0090010D4090010EC0A001080B584B0F7
:1024A00000AF78607B68FB607B68002B2CD0FB68FA
:1024B000DA6AFB689B6C9A4226D0FB6804331846A4
:1024C000FFF712F8FB689A6CFB68DA62FB68DB6A5C
:1024D000C3F10802FB689A61FB68DA6A0C4B1B685F
:1024E0009A4203D9FB68DB6A094A1360FB68DA6A1F
:1024F00013469B0013449B00064A1A44FB680433AE
:1025000010461946FEF794FF1037BD4680BD00BF48
:10251000EC0A0010D409001080B584B000AF7860D8
:10252000FFF704FB786800F045FE0346FB60FFF709
:1025300033FBFB6818461037BD4680BD80B582B0BE
:1025400000AF78607B68002B06D0FFF7EFFA786861
:1025500000F038FEFFF720FB0837BD4680BD00BF06
:1025600080B400AF30BFBD465DF8047B704700BF4C
:1025700080B582B000AF78600F2000F033FA0837E2
:10258000BD4680BD80B582B000AF78600F2000F0FE
:1025900029FA0837BD4680BD80B483B000AF7860AB
:1025A0000B46FB701346BB70FB785B017A681344E3
:1025B000FA78520179680A441168BA78012000FA61
:1025C00002F20A431A600C37BD465DF8047B70477F
:1025D00080B483B000AF78600B46FB701346BB70CD
:1025E000FB785B017A681344FA78520179680A44EF
:1025F0001168BA78012000FA02F2D2430A401A6048
:102600000C37BD465DF8047B704700BF80B582B0D3
:1026100000AF7860084611461A460346FB700B4629
:10262000BB7013467B707B78002B07D0FA78BB78A1
:10263000786811461A46FFF7AFFF06E0FA78BB78D4
:10264000786811461A46FFF7C3FF0837BD4680BDBC
:1026500080B582B000AF7860084611461A4603463E
:10266000FB700B46BB7013467B70F978BA787B78A9
:102670007868FFF7CBFF0837BD4680BD80B483B0D4
:1026800000AF78600B46FB70FA787B681A600C37F5
:10269000BD465DF8047B704780B483B000AF7860BE
:1026A00039607B683A68DA600C37BD465DF8047BB8
:1026B000704700BF80B483B000AF78607B685B690F
:1026C00018460C37BD465DF8047B704780B500AFF7
:1026D0000348002116220123FFF7BAFF80BD00BF87
:1026E00000C0092080B483B000AF78600C37BD46CD
:1026F0005DF8047B704700BF80B500AF0948FFF765
:10270000F1FF084800F01AFB06484FF4E13100F0F1
:1027100067FB04480321FFF7BFFF024800F048FBB6
:1027200080BD00BF00C0094080B582B000AF034645
:10273000FB7100BF0748FFF7BDFF034603F020030E
:10274000002BF7D0FB7903481946FFF797FF0837AE
:10275000BD4680BD00C0094080B582B000AF786042
:1027600006E07B685A1C7A601B781846FFF7DCFF8E
:102770007B681B78002BF4D10837BD4680BD00BFB5
:1027800080B500AFFFF7B8FF0448FFF7FBFE044831
:10279000FFF7EEFEFFF79AFF80BD00BF00C00920E3
:1027A00000C0024080B485B000AF0346FB71084B07
:1027B0001B68C3F30B03FB60054AFB791B03194637
:1027C000FB680B4313601437BD465DF8047B70470C
:1027D00000C00F4080B500AF02480349172200F047
:1027E000F7FB80BD00C002404C43000080B500AF45
:1027F00000F098FC0420FFF7D5FF80BD80B500AF46
:10280000FFF7E8FFFFF7F2FF80BD00BF80B400AF25
:10281000074BD3F8883003F08073002B14BF0123DB
:102820000023DBB21846BD465DF8047B704700BF4D
:1028300000C00F4080B400AF074BD3F8883003F0DE
:102840000073002B14BF01230023DBB21846BD46E2
:102850005DF8047B704700BF00C00F4080B483B0B8
:1028600000AF0346FB71094AFB795B0113448833CF
:10287000AA225A60054AFB795B011344883355222A
:102880005A600C37BD465DF8047B704700C00F40AE
:1028900080B400AF054BD3F80C31DBB203F0030377
:1028A000DBB21846BD465DF8047B704700C00F40A0
:1028B00080B400AF034B1B681846BD465DF8047B2F
:1028C000704700BF4443000080B400AF024B18467D
:1028D000BD465DF8047B704700093D0080B400AF41
:1028E000034B1B681846BD465DF8047B704700BF6C
:1028F0004843000080B500AF00F006F903461846D3
:1029000080BD00BF80B584B000AF03463960FB7165
:102910000C4AFB7904335B0113441B68FB60FA68C3
:102920003B681343FB60074AFB7904335B011344A4
:10293000FA681A60FB791846FFF790FF1037BD461A
:1029400080BD00BF00C00F4080B584B000AF03461B
:102950003960FB710C4AFB7904335B0113441B683B
:10296000FB603B68DB43FA681340FB60064AFB7977
:1029700004335B011344FA681A60FB791846FFF7C9
:102980006DFF1037BD4680BD00C00F4080B586B0DA
:1029900000AF0346B9607A60FB73FB7B002B05D167
:1029A0007B681A04BB6813437B6104E07B685A01AF
:1029B000BB6813437B610A4AFB7B04335B0113440E
:1029C0007A695A60064AFB7B04335B011344012297
:1029D0001A60FB7B1846FFF741FF1837BD4680BDE4
:1029E00000C00F4080B485B000AF0346FB71FB7997
:1029F000FB600849074BD3F8C430FA68012000FA9D
:102A000002F21343C1F8C4301437BD465DF8047BAD
:102A1000704700BF00C00F4080B582B000AFFFF725
:102A200009FF0346002B02D00123FB7101E00023C4
:102A3000FB71FB7918460837BD4680BD80B483B072
:102A400000AF7860044A7B68C2F804310C37BD4699
:102A50005DF8047B704700BF00C00F4080B400AF3A
:102A6000044BD3F80431DBB201331846BD465DF8A0
:102A7000047B704700C00F4080B487B000AF0346AE
:102A8000FB7101237B61FB795B003B613B6903F0D8
:102A90001F03FB603B695B093B611A4A3B696A3370
:102AA00052F823307B61FB687A6922FA03F303F062
:102AB00003037B617B69002B02D104237B6119E056
:102AC0007B69012B02D101237B6113E07B69022B1F
:102AD00002D102237B610DE0FB790D2B05D0FB7940
:102AE0000E2B02D0FB790F2B02D106237B6101E074
:102AF00008237B617B6918461C37BD465DF8047B63
:102B0000704700BF00C00F4080B500AFFFF7C0FEA8
:102B10000346012B0AD0022B0CD0002B02D000BFA1
:102B200000230AE0FFF7D0FE034606E0FFF7C0FEF1
:102B3000034602E0FFF7D2FE0346184680BD00BF01
:102B400080B584B000AF0023FB60FFF75FFE034653
:102B5000002B18D00E4BD3F88430C3F30E0301338F
:102B6000BB600B4BD3F884301B0CDBB201337B60B2
:102B7000FFF7C0FE0246BB6803FB02F35A007B6806
:102B8000B2FBF3F3FB60FB6818461037BD4680BD0F
:102B900000C00F4080B500AFFFF73EFF0346002B9B
:102BA00005D0012B07D1FFF7CBFF034604E0FFF769
:102BB000ABFF034600E00023184680BD98B500AF88
:102BC000FFF7E8FF0446FFF749FF0346B4FBF3F3C2
:102BD000184698BD90B583B000AF0346FB71FFF770
:102BE000EDFF0446FB791846FFF746FF0346B4FBAA
:102BF000F3F318460C37BD4690BD00BF80B483B0D8
:102C000000AF786039607B683A689A600C37BD46DF
:102C10005DF8047B704700BF80B483B000AF78607C
:102C200039607B683A68DA600C37BD465DF8047B32
:102C3000704700BF80B483B000AF78607B68DB680A
:102C400043F080027B68DA600C37BD465DF8047B98
:102C5000704700BF80B483B000AF78607B68DB68EA
:102C600023F080027B68DA600C37BD465DF8047B98
:102C7000704700BF80B483B000AF78600B46FB7034
:102C80001346BB70FA787B681A60BA787B685A6022
:102C90000C37BD465DF8047B704700BF80B485B03B
:102CA00000AF78607B680E4A934202D10423FB7325
:102CB0000FE07B680B4A934202D11823FB7308E0B4
:102CC0007B68094A934202D11923FB7301E0032375
:102CD000FB73FB7B18461437BD465DF8047B7047D9
:102CE000000001400080094000C0094080B485B068
:102CF00000AF78607B680E4A934202D10423FB73D5
:102D00000FE07B680B4A934202D11823FB7308E063
:102D10007B68094A934202D11923FB7301E0032324
:102D2000FB73FB7B18461437BD465DF8047B704788
:102D3000000001400080094000C0094080B584B017
:102D400000AF78607868FFF7A9FF03461846FFF7E1
:102D500049FE78680721FFF751FF786800F034F8E2
:102D60007B6800225A607B680022DA607B68002260
:102D70001A627B680022DA647B6800225A657B68ED
:102D800000221A657B68094A934205D17B680022BC
:102D90001A617B689B69FB6078680321FFF73CFF41
:102DA0007B6810229A621037BD4680BD000001404A
:102DB00080B483B000AF78607B6880221A630C37E0
:102DC000BD465DF8047B704780B483B000AF786087
:102DD0007B6800221A630C37BD465DF8047B7047A0
:102DE00080B586B000AF786039607868FFF77EFF05
:102DF00003461846FFF7EEFE78613B681B017A69CF
:102E0000B2FBF3F33B613B691B0AFB60FB681B02EF
:102E10003A69D31ABB607868FFF70CFFBB68DAB277
:102E2000FB68DBB2786811461A46FFF723FF786823
:102E3000FFF710FF7A693B69B2FBF3F318461837C6
:102E4000BD4680BD80B485B000AF78607B685B68AC
:102E5000FB607B6800225A607B6801229A607B6875
:102E60005B6843F008027B685A607B68FA685A60C6
:102E70001437BD465DF8047B704700BF80B483B053
:102E800000AF7860084611461A460346FB700B46B1
:102E9000BB7013467B70FB78002B2FD07B78002B08
:102EA0000AD07B68DB6CFA780832012101FA02F261
:102EB0001A437B68DA640AE07B68DB6CFA780832D4
:102EC000012101FA02F2D2431A407B68DA64BB782E
:102ED000012B09D17B68DB6CFA78012101FA02F23F
:102EE0001A437B68DA6409E07B68DB6CFA780121BD
:102EF00001FA02F2D2431A407B68DA640C37BD460D
:102F00005DF8047B704700BF90B587B002AFF860F2
:102F10007B600B46FB721346BB727B689C087B6828
:102F2000DBB203F00303DBB2F97ABA7A0093F868F4
:102F3000234600F003F81437BD4690BD80B487B037
:102F400000AFF8607B600B46FB721346BB72BB7A26
:102F500003F00F03DBB25B00FB75FB7A5B00DAB2B8
:102F6000BB7A1B09DBB21344BB75BA7DFB6853F80F
:102F70002220FB7D032101FA03F3DB4313403B6175
:102F8000BA7D97F82010FB7D01FA03F319463B69DF
:102F90001943FB6843F82210BA7DFB68103253F8DE
:102FA0002220FB7D032101FA03F3DB4313403B6145
:102FB000BA7DFB7D796899403B691943FB68103203
:102FC00043F822101C37BD465DF8047B704700BFF4
:102FD00090B587B000AFF860B9607A6000237B617C
:102FE0001FE07B699B00BA6813441B78C3F302039C
:102FF000DBB219467B699B00BA6813441B78C3F3A4
:10300000C403DBB21C467B699B00BA6813441B688F
:10301000C3F31723F8682246FFF776FF7B69013375
:103020007B617A697B689A42DBD31C37BD4690BDD1
:1030300080B500AFFFF7C2FD0246014B1A6080BDAC
:103040005C0B001080B400AF074BD3F8883003F05E
:103050008073002B14BF01230023DBB21846BD464A
:103060005DF8047B704700BF00C00F4080B400AF24
:10307000074BD3F8883003F08063002B14BF012383
:103080000023DBB21846BD465DF8047B704700BFE5
:1030900000C00F4080B400AF074BD3F8883003F076
:1030A0000073002B14BF01230023DBB21846BD467A
:1030B0005DF8047B704700BF00C00F4080B400AFD4
:1030C000054A054BD3F8A03143F02003C2F8A031E4
:1030D000BD465DF8047B704700C00F4080B400AF70
:1030E000074BD3F8A03103F04003002B14BF01239A
:1030F0000023DBB21846BD465DF8047B704700BF75
:1031000000C00F4080B483B000AF0346FB71044A97
:10311000FB79C2F80C310C37BD465DF8047B704773
:1031200000C00F4080B500AFFFF7B4FF0346002B8F
:1031300003D000200221FFF707FCFFF783FF0346BF
:10314000002B03D000200121FFF7FEFBFFF7C6FF95
:10315000034683F00103DBB2002B01D0FFF7AEFF83
:1031600000BFFFF7BBFF034683F00103DBB2002B78
:10317000F7D10020FFF762FC0120FFF7C3FF00201A
:103180000F210022FFF702FC00200121FFF7BAFB0C
:103190000320FFF753FC00BFFFF768FF034683F0EF
:1031A0000103DBB2002BF7D100200221FFF7AAFBBD
:1031B00080BD00BF024B0146186800F00BB800BF8D
:1031C00090090010024B0146186800F0B1BB00BF27
:1031D000900900102DE9F04F01F10B05162D83B079
:1031E000064627D935F0070500F1B680A94200F25E
:1031F000B38000F039FBB5F5FC7F22D2BC4FE80864
:1032000007EBC003DC689C4200F0BC816368E168A6
:1032100023F0030323445A68A56842F00102E960E1
:1032200030468D605A6000F021FB0834204603B020
:10323000BDE8F08F102900F28F8000F015FB1025FB
:10324000DCE7680A00F08F80042800F24781A809B3
:1032500038304100A64F07EB8101CC68A14206D16E
:103260000CE0002A80F28280E468A14206D0636804
:1032700023F003035A1B0F2AF3DD013801309C4968
:103280003C6901F1080E744500F07181636823F018
:1032900003035A1B0F2A00F35781002AC1F814E0D8
:1032A000C1F810E066DAB3F5007F80F02D81DB080D
:1032B00001EBC3084FEAA30C4A68012303FA0CF39D
:1032C000D8F808C01343C4F808C0C4F80C804B6099
:1032D000C8F80840CCF80C408210012494409C426D
:1032E00055D8234206D120F003006400234200F1A8
:1032F0000400FAD007EBC008C4468146DCF80C3065
:103300009C4507D135E1002980F24581DB689C4569
:1033100000F02F815A6822F00302511B0F29F2DDC1
:103320001C46DA6854F808CF45F0010941F001085D
:103330001D44C3F804903046CCF80C20C2F808C0F5
:103340007D613D61C5F80CE0C5F808E0C5F8048072
:10335000695000F08BFA69E7002420460C233360A3
:1033600003B0BDE8F08F7E213F2073E723445A6805
:10337000E16851E723445A68304642F001025A603E
:10338000083400F073FA204603B0BDE8F08FBC6843
:10339000636823F00308454504D8C5EB08030F2BE9
:1033A00000F38C80534BDFF85CA11A68DAF8003028
:1033B0002A44013304EB080B00F0518102F58052DE
:1033C0000F3222F47F6222F00F0211463046019242
:1033D00000F04EFAB0F1FF3F8146019A00F04881BB
:1033E000834500F2EF80444BCB45196811441960C6
:1033F00000F04381DAF80000DFF808E101301BBF7C
:10340000CBEB090B5944CEF80090196019F0070175
:1034100000F00881C1F10800C1F5805181440831F4
:103420004A44C2F30B02C2EB010A514630460193F3
:1034300000F01EFA431C019B00F02D81C9EB000235
:10344000524442F001021968BC425144C7F8089046
:103450001960C9F80420DFF8A0A016D0B8F10F0F4A
:1034600040F2EF806268A8F10C0323F0070302F03A
:103470000102E0184FF0050E1A430F2B6260C0F8EE
:1034800004E0C0F808E000F20A811C4BBC681A682E
:10349000914288BF19601A4B1A689142626888BFCE
:1034A000196022F003029542A2EB050301D80F2B0D
:1034B00004DC304600F0DAF90024B7E645F00102FA
:1034C00043F00103254462603046BD6008346B6000
:1034D00000F0CCF9204603B0BDE8F08F142869D97C
:1034E000542800F29880280B6E304100B2E600BFED
:1034F00054010010100B0010140B00100C0B0010E6
:10350000080B0010600500105A0A042A55D9142A25
:1035100000F2A7805B324FEA420C07EB8C0CDCF820
:103520000810DFF8B88161457FD04A6822F00302B5
:10353000934202D289688C45F7D1CA687B68E26001
:10354000A1609460CC60C7E645F0010742F001033A
:103550002544676030464D610D61C5F80CE0C5F843
:1035600008E06B60AA50083400F080F95EE64B6812
:10357000B2E609F1010919F0030F0CF1080C7FF410
:10358000BDAE2CE004F108036469A34208BF023019
:103590003FF475AE3AE61C461A445168DB6854F8AD
:1035A000085F41F0010151603046EB609D6000F022
:1035B0005DF93BE65B3041004CE69A0938324FEA50
:1035C000420CAAE7BC42454B3FF40DAF9C686268D1
:1035D00022F0030267E7D8F8008098457CD110F00C
:1035E000030FA8F1080300F1FF30F4D17B6823EA50
:1035F00004037B6064009C423FF6C9AE002C3FF49C
:10360000C6AE234248467FF475AE6400234200F103
:103610000400FAD06EE6B0F5AA7F18D8E80B773030
:10362000410017E64FF48051FAE6D8F804309210C2
:103630004FF0010C0CFA02F21343C8F804300A46AA
:103640007DE70123C9F804304C4600222BE740F205
:10365000545398421CD8A80C7C304100FAE5103233
:10366000B3E6542A23D81A0B6E324FEA420C54E7C1
:10367000BC68626822F0030215E7CBF30B00002858
:103680007FF4B8AE4244BB6842F001025A60FCE6E7
:10369000FC217E20DEE501224FF0000AD3E604F192
:1036A0000801304600F044F9DAF80010EDE6B2F512
:1036B000AA7F04D8DA0B77324FEA420C2DE740F2AA
:1036C00054518A4204D89A0C7C324FEA420C24E7C7
:1036D0004FF0FC0C7E2220E77B688BE75401001042
:1036E000844641EA000313F0030349D1403A23D34F
:1036F0000B6803604B6843608B688360CB68C36072
:103700000B6903614B6943618B698361CB69C36159
:103710000B6A03624B6A43628B6A8362CB6AC36241
:103720000B6B03634B6B43638B6B8363CB6BC36329
:1037300040304031403ADBD230320BD30B6803606B
:103740004B6843608B688360CB68C3601030103176
:10375000103AF3D20C3205D351F8043B40F8043B45
:10376000043AF9D2043208D0D2071CBF11F8013B49
:1037700000F8013B01D30B8803806046704700BF0F
:10378000082A13D38B07B1D010F00303AED0C3F1D6
:103790000403D21ADB071CBF11F8013B00F8013B00
:1037A000A4D331F8023B20F8023B9FE7043AD9D377
:1037B000013A11F8013B00F8013BF9D20B78037094
:1037C0004B7843708B7883706046704770B4840781
:1037D00046D0541E002A41D0CDB2034602E0621EFC
:1037E000E4B3144603F8015B9A07F8D1032C2ED9F1
:1037F000CDB245EA05250F2C45EA054519D92646DF
:1038000003F11002103E0F2E42F8105C42F80C5CDF
:1038100042F8085C42F8045C02F11002F2D8A4F10C
:10382000100222F00F0204F00F041032032C134494
:103830000DD91E462246043A032A46F8045BFAD8FC
:10384000221F22F003020432134404F003042CB1BB
:10385000C9B21C4403F8011BA342FBD170BC7047E2
:1038600014460346C2E700BF704700BF704700BF61
:1038700038B5074C0023054608462360FDF7FAF9E2
:10388000431C00D038BD2368002BFBD02B6038BD13
:10389000600B0010F8B50C46224F0646FFF7E4FF18
:1038A000BB685D6825F00305291B01F6EF7121F463
:1038B0007F6121F00F01A1F58054B4F5805F07DB33
:1038C00030460021FFF7D4FFBB682B44984204D058
:1038D0003046FFF7CBFF0020F8BD30466142FFF7CE
:1038E000C7FF01300DD0104BBA6819682D1B45F089
:1038F00001053046091B55601960FFF7B7FF01202D
:10390000F8BD30460021FFF7B3FFBA68831A0F2BCA
:10391000DEDD064C0449246843F00103001B5360BC
:103920000860D5E754010010140B0010600500106A
:1039300000294ED02DE9F0410C468046FFF794FF58
:1039400054F8047C6249A4F1080527F00102AB1881
:103950008E6858689E4220F003005AD0FE075860D7
:103960000BD454F8087C01F1080EED1BAC683A4406
:10397000744567D0EF68E760BC601C186468E407B2
:103980000CD4544F9C680244BC427CD0D86842F0AE
:103990000103E06084606B60AA5003E042F0010321
:1039A0006B60AA50B2F5007F14D2D20801EBC203BB
:1039B00001244868921004FA02F29C681043AC603B
:1039C000EB6048609D60E5604046BDE8F041FFF770
:1039D0004DBF7047530A042B47D8930903F13804AD
:1039E000600001EB800083683949834243D0596805
:1039F00021F00301914202D99B689842F7D1DA681D
:103A0000EA60AB6040469560DD60BDE8F041FFF7DD
:103A10002DBFFF07024407D454F8084C2D1BEB6858
:103A2000A8682244C36098602B4B42F001001B68D9
:103A300068609A428D60C7D3284B40461968FFF7EB
:103A400029FFC1E719184968C90709D4D968024490
:103A50009B6842F00100D9608B606860AA50B3E7B0
:103A600042F001036B60AA50AEE7142B14D803F1A7
:103A70005B046000B5E74A68A4100120A04002433F
:103A80004A601A46BCE742F001034D610D61EC60EB
:103A9000AC606B60AA5097E7542B04D8130B03F16A
:103AA0006E0460009DE7B3F5AA7F04D8D30B03F141
:103AB0007704600095E740F25450834204D8930C99
:103AC00003F17C0460008CE7FC207E2489E700BFC2
:103AD000540100105C0100105C050010100B001078
:103AE00065786974000000004865617020616E644B
:103AF00020737461636B20636F6C6C6973696F6EA4
:103B00000A0000003E313131313131313131313152
:103B10003131313131313131313131313131313195
:103B20003131313131313131313131313131313185
:103B30003131313131313131313131313131313175
:103B40003131313131313131313131313131313165
:103F0000313131313C0D0A003E32323232323232FE
:103F10003232323232323232323232323232323281
:103F20003232323232323232323232323232323271
:103F30003232323232323232323232323232323261
:103F40003232323232323232323232323232323251
:1043000032323232323232323C0D0A007461736B17
:10431000310000007461736B320000007461736BD4
:104320004C45440053746172745570204D6F746F26
:10433000722031004D6F746F7231000049444C455A
:1043400000000000001BB70000800000000A000011
:10435000080A0000200A0000280A0000B008000037
:10436000B8090000D00A0000010900000909000096
:10437000210900004109000049090000510900001D
:104380007109000079090000810900008909000015
:10439000D90900001A08000078080000220800006F
:0C43A000800800008808000043000000B6
:1043AC0002000000020000000000000002000000FB
:1043BC0002000000020000000200000002000000E9
:1043CC0000000000020000000200000000000000DD
:1043DC0002000000020000000000000002000000CB
:1043EC0002000000000000000B00000003000000B1
:1043FC00110000000B000000030000001100000081
:10440C000B00000003000000110000000B00000076
:10441C000300000011000000020000000200000078
:10442C000200000002000000020000000200000078
:10443C000200000002000000020000000200000068
:10444C0002000000020000000C000000040000004C
:10445C00020000000C00000004000000020000003C
:10446C000C00000004000000020000000C00000022
:10447C000400000002000000010000000100000028
:10448C00010000000100000001000000010000001C
:10449C00010000000100000001000000010000000C
:1044AC0001000000010000001300000016000000D5
:1044BC001900000013000000160000001900000095
:1044CC00130000001600000019000000130000008B
:1044DC001600000019000000960000002C010000DE
:1044EC00640000003C00000096000000AAAAAAAAE2
:1044FC00FFFFFFFF0000000000000000540100104F
:10450C00540100105C0100105C01001064010010EB
:10451C00640100106C0100106C010010740100109B
:10452C00740100107C0100107C010010840100104B
:10453C00840100108C0100108C01001094010010FB
:10454C00940100109C0100109C010010A4010010AB
:10455C00A4010010AC010010AC010010B40100105B
:10456C00B4010010BC010010BC010010C40100100B
:10457C00C4010010CC010010CC010010D4010010BB
:10458C00D4010010DC010010DC010010E40100106B
:10459C00E4010010EC010010EC010010F40100101B
:1045AC00F4010010FC010010FC01001004020010CA
:1045BC00040200100C0200100C0200101402001077
:1045CC00140200101C0200101C0200102402001027
:1045DC00240200102C0200102C02001034020010D7
:1045EC00340200103C0200103C0200104402001087
:1045FC00440200104C0200104C0200105402001037
:10460C00540200105C0200105C02001064020010E6
:10461C00640200106C0200106C0200107402001096
:10462C00740200107C0200107C0200108402001046
:10463C00840200108C0200108C02001094020010F6
:10464C00940200109C0200109C020010A4020010A6
:10465C00A4020010AC020010AC020010B402001056
:10466C00B4020010BC020010BC020010C402001006
:10467C00C4020010CC020010CC020010D4020010B6
:10468C00D4020010DC020010DC020010E402001066
:10469C00E4020010EC020010EC020010F402001016
:1046AC00F4020010FC020010FC02001004030010C5
:1046BC00040300100C0300100C0300101403001072
:1046CC00140300101C0300101C0300102403001022
:1046DC00240300102C0300102C03001034030010D2
:1046EC00340300103C0300103C0300104403001082
:1046FC00440300104C0300104C0300105403001032
:10470C00540300105C0300105C03001064030010E1
:10471C00640300106C0300106C0300107403001091
:10472C00740300107C0300107C0300108403001041
:10473C00840300108C0300108C03001094030010F1
:10474C00940300109C0300109C030010A4030010A1
:10475C00A4030010AC030010AC030010B403001051
:10476C00B4030010BC030010BC030010C403001001
:10477C00C4030010CC030010CC030010D4030010B1
:10478C00D4030010DC030010DC030010E403001061
:10479C00E4030010EC030010EC030010F403001011
:1047AC00F4030010FC030010FC03001004040010C0
:1047BC00040400100C0400100C040010140400106D
:1047CC00140400101C0400101C040010240400101D
:1047DC00240400102C0400102C04001034040010CD
:1047EC00340400103C0400103C040010440400107D
:1047FC00440400104C0400104C040010540400102D
:10480C00540400105C0400105C04001064040010DC
:10481C00640400106C0400106C040010740400108C
:10482C00740400107C0400107C040010840400103C
:10483C00840400108C0400108C04001094040010EC
:10484C00940400109C0400109C040010A40400109C
:10485C00A4040010AC040010AC040010B40400104C
:10486C00B4040010BC040010BC040010C4040010FC
:10487C00C4040010CC040010CC040010D4040010AC
:10488C00D4040010DC040010DC040010E40400105C
:10489C00E4040010EC040010EC040010F40400100C
:1048AC00F4040010FC040010FC04001004050010BB
:1048BC00040500100C0500100C0500101405001068
:1048CC00140500101C0500101C0500102405001018
:1048DC00240500102C0500102C05001034050010C8
:1048EC00340500103C0500103C0500104405001078
:1048FC00440500104C0500104C050010000002008F
:10490C00FFFFFFFF00000000000000005408001033
:10491C00BC0800102409001000000000000000007A
:10492C00000000000000000000000000000000007B
:10493C00000000000000000000000000A843000080
:10494C00000000000000000000000000000000005B
:10495C00000000000000000000000000000000004B
:10496C00000000000000000000000000000000003B
:10497C00000000000000000000000000000000002B
:10498C00000000000000000000000000000000001B
:10499C00000000000000000000000000000000000B
:1049AC0000000000000000000000000000000000FB
:1049BC0001000000000000000E33CDAB34126DE698
:1049CC00ECDE05000B000000000000000000000001
:1049DC0000000000000000000000000000000000CB
:1049EC0000000000000000000000000000000000BB
:1049FC0000000000000000000000000000000000AB
:104A0C00000000000000000000000000000000009A
:044D3C0068050010F6
:040000030000017187
:00000001FF
