:100000000080001071010000E9010000F101000012
:10001000F9010000010200000902000000000000D8
:10002000000000000000000000000000C11D0000F2
:100030001902000000000000AD1E0000E91E0000D3
:1000400031020000310200003102000031020000E4
:1000500031020000310200003102000031020000D4
:10006000310200007D0F000031020000310200006B
:1000700031020000310200003102000031020000B4
:1000800031020000310200003102000031020000A4
:100090003102000031020000310200003102000094
:1000A0003102000031020000310200003102000084
:1000B0003102000031020000310200003102000074
:1000C00031020000310200003102000094300000D3
:1000D000000000103C0900009430000000C0072020
:1000E000000000003C090010C001000000C0072013
:1000F0000000000080B489B000AFF860B9607A6099
:10010000BB68FB61FB68BB6100237B610AE0FB69A4
:100110001A1DFA61BA69111DB96112681A607B690A
:1001200004337B617A697B689A42F0D32437BD46F9
:100130005DF8047B704700BF80B485B000AF786085
:1001400039607B68FB600023BB6007E0FB681A1D19
:10015000FA6000221A60BB680433BB60BA683B686F
:100160009A42F3D31437BD465DF8047B704700BF55
:1001700080B584B000AF194BFB6013E0FB681A1D1B
:10018000FA601B68BB60FB681A1DFA601B687B6025
:10019000FB681A1DFA601B683B60B86879683A68AA
:1001A000FFF7A8FFFB680E4A9342E7D30DE0FB6818
:1001B0001A1DFA601B687B60FB681A1DFA601B68D9
:1001C0003B6078683968FFF7B7FFFB68054A9342E0
:1001D000EDD301F03BF800F0FBFFFEE7CC000000A0
:1001E000E4000000F400000080B400AFFEE700BFB0
:1001F00080B400AFFEE700BF80B400AFFEE700BFF1
:1002000080B400AFFEE700BF80B400AFFEE700BFE0
:1002100080B400AFFEE700BF80B400AFFEE700BFD0
:1002200080B400AFFEE700BF80B400AFFEE700BFC0
:1002300080B400AFFEE700BFFFFFFFFFFFFFFFFF3F
:10024000FFFFFFFFFFFFFFFFFFFFFFFFFFFFFFFFBE
:10025000FFFFFFFFFFFFFFFFFFFFFFFFFFFFFFFFAE
:10026000FFFFFFFFFFFFFFFFFFFFFFFFFFFFFFFF9E
:10027000FFFFFFFFFFFFFFFFFFFFFFFFFFFFFFFF8E
:10028000FFFFFFFFFFFFFFFFFFFFFFFFFFFFFFFF7E
:10029000FFFFFFFFFFFFFFFFFFFFFFFFFFFFFFFF6E
:1002A000FFFFFFFFFFFFFFFFFFFFFFFFFFFFFFFF5E
:1002B000FFFFFFFFFFFFFFFFFFFFFFFFFFFFFFFF4E
:1002C000FFFFFFFFFFFFFFFFFFFFFFFFFFFFFFFF3E
:1002D000FFFFFFFFFFFFFFFFFFFFFFFFFFFFFFFF2E
:1002E000FFFFFFFFFFFFFFFFFFFFFFFFFFFFFFFF1E
:1002F000FFFFFFFFFFFFFFFFFFFFFFFFFFFFFFFF0E
:1003000080B483B000AF0346FB71084997F907300A
:100310005B09FA7902F01F02012000FA02F241F8AB
:1003200023200C37BD465DF8047B704700E100E0F8
:1003300080B483B000AF7860084611461A46034681
:10034000FB700B46BB7013467B707B78002B0FD085
:10035000FB785B017A681344FA78520179680A44A1
:100360009169BA78012000FA02F20A439A610EE01C
:10037000FB785B017A681344FA78520179680A4481
:10038000D169BA78012000FA02F20A43DA610C3727
:10039000BD465DF8047B704780B584B000AFF8605F
:1003A000B96011461A460B46FB711346BB71BB6818
:1003B000D9B2FA79BB79F868FFF7BAFF1037BD46B2
:1003C00080BD00BF80B483B000AF78600B46FB7087
:1003D0001346BB70FB785B017A681344FA785201CC
:1003E00079680A441168BA78012000FA02F20A43D7
:1003F0001A600C37BD465DF8047B704780B483B04B
:1004000000AF78600B46FB701346BB70FB785B0156
:100410007A681344FA78520179680A441168BA7804
:10042000012000FA02F2D2430A401A600C37BD469E
:100430005DF8047B704700BF80B582B000AF786084
:10044000084611461A460346FB700B46BB7013461E
:100450007B707B78002B07D0FA78BB7878681146E0
:100460001A46FFF7AFFF06E0FA78BB7878681146C6
:100470001A46FFF7C3FF0837BD4680BD80B582B07E
:1004800000AF7860084611461A460346FB700B46DB
:10049000BB7013467B70F978BA787B787868FFF781
:1004A000CBFF0837BD4680BD80B483B000AF786015
:1004B0000B46FB707B681B6897F90320032A05DC59
:1004C00097F90320012101FA02F205E097F90320D0
:1004D0000432012101FA02F21340002B14BF012360
:1004E0000023DBB218460C37BD465DF8047B70472D
:1004F00080B483B000AF78600B46FB7097F903308F
:10050000032B06DC97F90330012202FA03F31A46A3
:1005100006E097F903300433012202FA03F31A4686
:100520007B681A600C37BD465DF8047B704700BFDE
:1005300080B483B000AF78607B685B6843F00102F1
:100540007B685A607B685B6843F008027B685A608E
:100550000C37BD465DF8047B704700BF80B483B0A4
:1005600000AF786039607B683A68DA600C37BD4666
:100570005DF8047B704700BF80B485B000AFF860C1
:100580000B467A60FB7297F90B30062B2CD801A230
:1005900052F823F0B1050000B9050000C1050000C4
:1005A000C9050000D1050000D9050000E1050000E3
:1005B000FB687A689A6118E0FB687A68DA6114E08F
:1005C000FB687A681A6210E0FB687A685A620CE08D
:1005D000FB687A681A6408E0FB687A685A6404E089
:1005E000FB687A689A6400E000BF1437BD465DF886
:1005F000047B704780B483B000AF78600B46FB701B
:100600007B685B69FA7802F007025100FA7802F021
:1006100007020A44012101FA02F21A437B685A6177
:100620000C37BD465DF8047B704700BF80B483B0D3
:1006300000AF78600B46FB707B68596997F903201F
:1006400013465B0013440133012202FA03F341EA2B
:1006500003027B685A610C37BD465DF8047B704726
:1006600080B483B000AF78600B46FB707B6859693B
:1006700097F9032013465B0013440133012202FA69
:1006800003F3DB4301EA03027B685A610C37BD4682
:100690005DF8047B704700BF80B483B000AF786022
:1006A0000B46FB707B68596997F9032013465B0082
:1006B00013440233012202FA03F3DB4301EA03028B
:1006C0007B685A610C37BD465DF8047B704700BFFC
:1006D00080B582B000AF78602A480021FFF73EFF66
:1006E000284800214FF47A72FFF746FF2548002181
:1006F000FFF780FF23480021FFF798FF21480021E2
:10070000FFF7CAFF204A7B6852F82330DBB21D484E
:1007100019460022002301F033FD1B4A7B6852F882
:100720002330DBB25BB2174819461422FFF724FFCF
:10073000154A7B6852F82330DBB25BB21148194688
:10074000FFF758FF104A7B6852F82330DBB25BB2E8
:100750000C481946FFF784FF0B4A7B6852F8233098
:10076000DBB25BB207481946FFF796FF054801F078
:10077000EBFC0448FFF7DCFE0920FFF7C1FD08375A
:10078000BD4680BD00800140E400001090B583B0FC
:1007900000AF786096497A6813465B0013449B006B
:1007A0000B441B68DCB293497A6813465B00134420
:1007B0009B000B441B68DBB28F4821461A4601237D
:1007C000FFF75CFE8A497A6813465B0013449B007E
:1007D0000B4404331B68DCB286497A6813465B001D
:1007E00013449B000B4404331B68DBB28248214650
:1007F0001A460123FFF742FE7D497A6813465B00E3
:1008000013449B000B4408331B68DCB279497A68B7
:1008100013465B0013449B000B4408331B68DBB298
:10082000754821461A460123FFF728FE73497A6866
:1008300013465B0013449B000B441B68DCB27049F9
:100840007A6813465B0013449B000B441B68DBB2C1
:10085000694821461A460123FFF710FE67497A6866
:1008600013465B0013449B000B4404331B68DCB24B
:1008700063497A6813465B0013449B000B440433BE
:100880001B68DBB25C4821461A460123FFF7F6FDE0
:100890005A497A6813465B0013449B000B440833A3
:1008A0001B68DCB256497A6813465B0013449B0010
:1008B0000B4408331B68DBB24F4821461A4601231C
:1008C000FFF7DCFD4A497A6813465B0013449B003E
:1008D0000B441C6847497A6813465B0013449B002D
:1008E0000B441B68DBB2444821461A460023FFF73D
:1008F00053FD3F497A6813465B0013449B000B4449
:1009000004331C683B497A6813465B0013449B0020
:100910000B4404331B68DBB2374821461A460023D8
:10092000FFF73AFD32497A6813465B0013449B0097
:100930000B4408331C682F497A6813465B00134444
:100940009B000B4408331B68DBB22B4821461A4638
:100950000023FFF721FD29497A6813465B00134401
:100960009B000B441C6826497A6813465B001344BD
:100970009B000B441B68DBB21F4821461A4601232B
:10098000FFF70AFD1D497A6813465B0013449B007C
:100990000B4404331C681A497A6813465B001344FD
:1009A0009B000B4404331B68DBB2134821461A46F4
:1009B0000123FFF7F1FC11497A6813465B001344E9
:1009C0009B000B4408331C680D497A6813465B0092
:1009D00013449B000B4408331B68DBB206482146D6
:1009E0001A460123FFF7D8FC0C37BD4690BD00BF67
:1009F000000000103000001000C00920600000104E
:100A00009000001090B583B000AF7860554B5A68E5
:100A100055497B6841F82320524BDB6899B2534A11
:100A20007B6822F81310514A7B6832F8133099B270
:100A30004F4A7B6822F813104E497A6813465B00D0
:100A400013449B000B441C684B497A6813465B00B7
:100A500013449B000B441B68DBB2484821461A46EE
:100A60000023FFF799FC43497A6813465B0013445F
:100A70009B000B4404331C683F497A6813465B00B3
:100A800013449B000B4404331B68DBB23B482146F4
:100A90001A460023FFF780FC36497A6813465B004C
:100AA00013449B000B4408331C6833497A6813468F
:100AB0005B0013449B000B4408331B68DBB22F48D8
:100AC00021461A460023FFF767FC2D497A68134632
:100AD0005B0013449B000B441C682A497A68134648
:100AE0005B0013449B000B441B68DBB22348214688
:100AF0001A460123FFF750FC21497A6813465B0030
:100B000013449B000B4404331C681E497A68134647
:100B10005B0013449B000B4404331B68DBB2174893
:100B200021461A460123FFF737FC15497A68134618
:100B30005B0013449B000B4408331C6811497A681E
:100B400013465B0013449B000B4408331B68DBB265
:100B50000A4821461A460123FFF71EFC0C37BD4602
:100B600090BD00BFC0000010DC0A0010D40A0010C5
:100B7000EC0A0010000000103000001000C0092036
:100B8000600000109000001080B586B000AF786063
:100B900001237B61404B00221A70786800F08AF8CC
:100BA0000CE000BF3D4A7B6852F823301A463C4BAC
:100BB0001B689A42F6D8786800F07CF8364B1B78B0
:100BC000092BEED9374B1A69364BDB68D21A354BF5
:100BD0001B6892FBF3F33B61324B5A68314B9B68C5
:100BE000D21A304B1B6892FBF3F3FB6000237B614E
:100BF0002CE000BF294A7B6852F823301A46284B64
:100C00001B689A42F6D8786800F054F8254BDB68E8
:100C10009AB27B699BB2396989B201FB03F39BB23B
:100C2000134499B2204A7B6822F813101D4B5B686D
:100C300019467B69FA6802FB03F3CB1A1946174A77
:100C40007B6842F823107B6901337B61134A7B6820
:100C500052F8232013497B689B000B445B689A423F
:100C6000C7DC114A7B68962122F813100F4A7B6873
:100C700052F82330D9B20C4A7B6832F813309BB259
:100C80001A464BB20A481946FFF776FC084801F0AD
:100C90005BFA1837BD4680BD58090010DC0A001009
:100CA00044090010C0000010D40A0010E400001035
:100CB0000080014090B583B000AF7860A24A7B68A5
:100CC00032F813309AB2A1497B6831F813309BB2E5
:100CD0009A421BD09E4A7B6852F82330D9B29A4A76
:100CE0007B6832F813309BB21A464BB299481946CA
:100CF000FFF742FC974801F027FA934A7B6832F8E5
:100D0000133099B2914A7B6822F81310924A7B689B
:100D100052F82330042B00F2DC8001A252F823F0B9
:100D2000350D0000970D0000D10D0000330E0000BE
:100D30006D0E000089497A6813465B0013449B00DE
:100D40000B4408331C6886497A6813465B001344D9
:100D50009B000B4408331B68DBB2824821461A46CD
:100D60000123FFF719FB7D497A6813465B001344A2
:100D70009B000B441C687A497A6813465B00134455
:100D80009B000B441B68DBB2764821461A460023C1
:100D9000FFF702FBB7E074497A6813465B0013441F
:100DA0009B000B4404331C6870497A6813465B004F
:100DB00013449B000B4404331B68DBB26948214693
:100DC0001A460023FFF7E8FA694B02221A609AE0FC
:100DD00062497A6813465B0013449B000B441C680D
:100DE0005F497A6813465B0013449B000B441B6801
:100DF000DBB25C4821461A460123FFF7CDFA57497A
:100E00007A6813465B0013449B000B4404331C6850
:100E100053497A6813465B0013449B000B44043328
:100E20001B68DBB24F4821461A460023FFF7B4FA8D
:100E300069E04D497A6813465B0013449B000B44FC
:100E400008331C6849497A6813465B0013449B00C9
:100E50000B4408331B68DBB2424821461A46002384
:100E6000FFF79AFA424B00221A604CE03B497A683D
:100E700013465B0013449B000B4404331C68384941
:100E80007A6813465B0013449B000B4404331B68D1
:100E9000DBB2344821461A460123FFF77DFA2F4979
:100EA0007A6813465B0013449B000B4408331C68AC
:100EB0002B497A6813465B0013449B000B440833AC
:100EC0001B68DBB2274821461A460023FFF764FA65
:100ED00019E025497A6813465B0013449B000B44D4
:100EE0001C6822497A6813465B0013449B000B443C
:100EF0001B68DBB21B4821461A460023FFF74CFA59
:100F00001B4B01221A60144A7B6852F82330042BD1
:100F10000BDD114A7B68002142F82310154B1B782A
:100F20000133DAB2134B1A7008E00B4A7B6852F8AF
:100F300023305A1C08497B6841F823200E4B0022BD
:100F40001A600C37BD4690BDD40A0010EC0A0010A0
:100F5000E40000100080014048090010600000100B
:100F60009000001000C009200000001030000010A8
:100F700040090010580900104409001098B500AF4E
:100F800037480021FFF790FA0346002B2BD0354B52
:100F90001B680133334A136031480021FFF7A8FA78
:100FA000314B1B68314A52F82320314B19683148C4
:100FB00013465B0013440B4450F823402A4B1B6834
:100FC0002A4A52F823202A4B19682B4813465B0003
:100FD00013440B4450F82330DBB2284821461A460C
:100FE0000123FFF7D9F9204B1B68254A52F823301B
:100FF000DBB25BB21A481946FFF756FA0346002BDC
:101000002DD0194B1B681E4A52F82330DBB25BB25D
:1010100013481946FFF76CFA134B1B68134A52F832
:101020002320134B1968134813465B0013440B44E9
:1010300050F823400C4B1B680C4A52F823200C4BF1
:1010400019680D4813465B0013440B4450F82330D5
:10105000DBB20A4821461A460023FFF79DF998BDE6
:101060000080014044090010F4000010D40000107A
:1010700040090010000000103000001000C00920DE
:10108000E400001090B585B000AF7860154B1B6888
:10109000002B02D1134B144A1A60124B1B68FB60E1
:1010A000EFF308831C462346BB600E4B1A687B682F
:1010B0001A44BB689A420AD902200C49192200F04E
:1010C00019F80B4B0C221A604FF0FF3306E0054B6A
:1010D0001A687B681344034A1360FB681846143788
:1010E000BD4690BD3C090010FC0A0010FC2F00001A
:1010F000F80A001080B485B000AFF860B9607A607B
:10110000FB68012B07D0022B07D0084B09221A607D
:101110004FF0FF3303E000BF00E000BF7B681846DC
:101120001437BD465DF8047B704700BFF80A001015
:1011300080B500AF01F0FEF80C4B1B680C4A52F86A
:1011400023301846FFF7C4FA084B1B68084A52F8C8
:1011500023301846FFF71AFB044B1B68044A52F869
:1011600023301846FFF74EFC80BD00BFF40000108E
:10117000D400001080B584B000AF78607B68FB605D
:10118000FB681B781A46054B53F822301846FFF7C8
:1011900091FD642000F008F9F2E700BFD4000010D0
:1011A00080B584B000AF78607B68FB60FB681B781B
:1011B0001A46064B53F822301846FFF7E5FC00208C
:1011C00000F01AF91037BD4680BD00BFD4000010F2
:1011D00090B585B004AFFFF7ABFF164B1B68164AFE
:1011E00052F823301C46022300930023019300236E
:1011F000029300230393114811494FF48062234660
:1012000000F036F80B4B1B680B4A52F823301C4693
:1012100001230093002301930023029300230393EF
:10122000084809494FF48062234600F021F800F095
:101230002BF9FEE7F4000010D4000010A11100000B
:1012400018300000751100002830000080B582B011
:1012500000AF054B7B60054A7B681A6000F06CFFAD
:101260000837BD4680BD00BF08ED00E0000000006B
:1012700080B58AB002AFF860B9603B601346FB806E
:10128000FB881846396B00F049FCB861BB69002B3C
:1012900066D0BB691A6BFB8803F18043013B9B005E
:1012A00013447B617B6923F007037B61FB88009318
:1012B000B869B968BA6A7B6B00F03AFB7869F9687B
:1012C0003A6800F04BFD0246BB691A60FB6A002BCE
:1012D00002D0FB6ABA691A6000F0B8FD2C4B1B689B
:1012E00001332B4A13602B4B1B68002B09D1294A71
:1012F000BB691360264B1B68012B0FD100F060FB0C
:101300000CE0254B1B68002B08D1224B1B68DA6AC6
:10131000BB6A9A4202D81F4ABB6913601F4B1B6805
:1013200001331E4A1360BB69DA6A1D4B1B689A427F
:1013300003D9BB69DB6A1A4A1360BB69DA6A1346D0
:101340009B0013449B00174A1A44BB6904331046A0
:10135000194600F07DFC0123FB6100F087FD02E0EF
:101360004FF0FF33FB61FB69012B0BD10A4B1B686C
:10137000002B07D0074B1B68DA6ABB6A9A4201D27E
:1013800000F054FDFB6918462037BD4680BD00BF04
:10139000700A00105C0900107C0A0010900A00100E
:1013A000780A00106009001080B584B000AF786042
:1013B0000023FB607B68002B12D000F08FF80C4BF1
:1013C0001A687B681344BB600A4B1B6804331846D9
:1013D00000F09AFCB86800F06BFB00F0B5F8F8601C
:1013E000FB68002B01D100F021FD1037BD4680BD08
:1013F000740A00105C09001080B584B000AF7860FA
:1014000000F024FD7B68002B02D11B4B1B6800E021
:101410007B68FB60FB680433184600F075FCFB68D2
:101420009B6A002B04D0FB681833184600F06CFC54
:10143000FB6804331148194600F00AFC00F016FD61
:101440000D4B1B68FA689A4212D10D4B1B68002B9A
:1014500002D000F0EBFC0BE0084B1A68094B1B684C
:101460009A4203D1044B00221A6001E000F0C2F955
:101470001037BD4680BD00BF5C0900105C0A00103B
:101480007C0A0010700A001080B586B004AF0023FB
:1014900000930023019300230293002303930B483E
:1014A0000B4980220023FFF7E3FE78607B68012B65
:1014B00009D100F0EDFC074B01221A60064B002217
:1014C0001A6000F097FC0837BD4680BD8D180000FB
:1014D000303000007C0A0010740A001080B400AFA5
:1014E000044B1B680133034A1360BD465DF8047B5F
:1014F000704700BF800A001080B483B000AF0E4B6D
:101500001B68DB6A002B02D000237B600CE00B4BD6
:101510001B68012B02D900237B6005E0084B1A6889
:10152000084B1B68D31A7B607B6818460C37BD4696
:101530005DF8047B704700BF5C0900106009001073
:10154000F8000010740A001080B582B000AF0023CC
:101550007B6000F07BFC334B1B68013B314A13601E
:10156000304B1B68002B56D12F4B1B68002B52D0E1
:101570002FE02E4BDB68DB683B603B681833184676
:1015800000F0C2FB3B680433184600F0BDFB3B682B
:10159000DA6A274B1B689A4203D93B68DB6A244A04
:1015A00013603B68DA6A13469B0013449B00214A90
:1015B0001A443B6804331046194600F049FB3B6867
:1015C000DA6A1D4B1B68DB6A9A4202D31B4B01226D
:1015D0001A60164B1B68002BCBD1194B1B68002BD4
:1015E00011D00CE000F040F80346002B02D0134B62
:1015F00001221A60124B1B68013B114A1360104B09
:101600001B68002BEED10D4B1B68012B03D101236E
:101610007B6000F00BFC00F029FC7B681846083763
:10162000BD4680BD800A0010700A0010300A00100C
:10163000780A0010600900105C090010880A001088
:10164000840A001080B483B000AF7860054B1A683C
:101650007B681344034A13600C37BD465DF8047B76
:10166000704700BF740A001080B586B000AF002339
:101670007B61554B1B68002B40F09580534B1B68DA
:101680000133524A1360514B1B683B613B69002B8D
:1016900026D14F4B1B68FB604E4B1B684C4A1360B6
:1016A0004C4AFB6813604C4B1B6801334A4A136079
:1016B000474B1B681B68002B01D1012300E000236E
:1016C000002B04D0454B4FF0FF321A6008E0404B2E
:1016D0001B68DB68DB68BB60BB685B683F4A136004
:1016E0003E4B1B683A699A424ED3394B1B681B68C4
:1016F000002B01D1012300E00023002B04D0374B45
:101700004FF0FF321A603FE0314B1B68DB68DB684B
:10171000BB60BB685B687B603A697B689A4203D2B6
:101720002E4A7B6813602FE0BB680433184600F034
:10173000EBFABB689B6A002B04D0BB6818331846D1
:1017400000F0E2FABB68DA6A254B1B689A4203D9BB
:10175000BB68DB6A224A1360BB68DA6A13469B00E7
:1017600013449B001F4A1A44BB68043310461946B1
:1017700000F06EFABB68DA6A1B4B1B68DB6A9A42A0
:1017800001D301237B61B0E7174B1B68DA6A154967
:1017900013469B0013449B000B441B68012B07D985
:1017A00001237B6104E0114B1B6801330F4A136076
:1017B0000F4B1B68002B01D001237B617B6918460E
:1017C0001837BD4680BD00BF800A0010740A0010A3
:1017D000280A00102C0A00108C0A0010F8000010D3
:1017E000780A0010600900105C090010840A0010DB
:1017F000880A001080B483B000AF1F4B1B68002B19
:1018000003D01E4B01221A6031E01C4B00221A60EB
:1018100004E01B4B1B68013B194A1360184B1A6804
:10182000184913469B0013449B000B441B68002B74
:10183000EFD0134B1A6813469B0013449B00114AC8
:1018400013447B607B685B685A687B685A607B687E
:101850005A687B6808339A4204D17B685B685A688F
:101860007B685A607B685B68DB68074A13600C37EB
:10187000BD465DF8047B7047800A0010880A00109E
:10188000780A0010600900105C09001080B584B06F
:1018900000AF786000F0D2F80D4B1B68012B01D926
:1018A00000F0C4FA00F0A0F9FFF726FEF860FB682C
:1018B000012B0CD9FFF712FEFFF71EFEF860FB6844
:1018C000012B02D9F86800F023FBFFF73DFEE1E7AA
:1018D0006009001080B483B000AF0123FB71104B8E
:1018E0001B68002B02D00023FB7112E00D4B1B681C
:1018F000002B02D00023FB710BE001233B600A4B5D
:101900001A680A4B19683B68CB1A9A4201D1022324
:10191000FB71FB7918460C37BD465DF8047B7047B8
:10192000300A0010880A00105C0A0010700A0010CB
:1019300080B586B000AFF860B9607A603B60002384
:101940007B6113E0BA687B6913441978FA687B6994
:10195000134430330A461A71BA687B6913441B7802
:10196000002B00D105E07B6901337B617B69132B80
:10197000E8D9FB68002283F847207B68072B01D950
:1019800007237B60FB687A68DA62FB687A689A648E
:10199000FB680433184600F04FF9FB68183318460B
:1019A00000F04AF9FB68FA681A617B68C3F1080223
:1019B000FB689A61FB68FA685A621837BD4680BDB9
:1019C00080B582B000AF00237B600CE07A681346DC
:1019D0009B0013449B00114A1344184600F00CF975
:1019E0007B6801337B607B68072BEFD90C4800F0E4
:1019F00003F90C4800F000F90B4800F0FDF80B4823
:101A000000F0FAF80A4800F0F7F80A4B044A1A60A6
:101A1000094B044A1A600837BD4680BD60090010B2
:101A2000000A0010140A0010300A0010440A0010C6
:101A30005C0A0010280A00102C0A001080B582B041
:101A400000AF28E0FFF74AFD164B1B68002B0CBFC8
:101A500001230023DBB27B60FFF776FD7B68002B60
:101A600019D100F0F3F90F4BDB68DB683B603B6892
:101A70000433184600F048F90B4B1B68013B0A4A37
:101A800013600A4B1B68013B084A136000F0EEF933
:101A9000386800F075F8054B1B68002BD2D1083769
:101AA000BD4680BD440A0010700A0010580A00109C
:101AB00080B582B000AF7860134B1B687A685A60BB
:101AC000124B1B687A689A4209D2114B1A680E4B66
:101AD0001B6804331046194600F0DEF810E00D4B89
:101AE0001A68094B1B6804331046194600F0D4F8F5
:101AF000094B1B687A689A4202D2074A7B681360D6
:101B00000837BD4680BD00BF5C090010740A001094
:101B10002C0A0010280A0010F800001080B584B0CC
:101B200000AF03463960FB804C2000F039F8F860C4
:101B3000FB68002B1FD03B68002B06D1FB889B0065
:101B4000184600F02DF8034600E03B68FA6813637E
:101B5000FB681B6B002B05D1F86800F033F80023FD
:101B6000FB6008E0FB681A6BFB889B001046A52110
:101B70001A4601F0B5F8FB6818461037BD4680BD1F
:101B800080B582B000AF78607B681B6B184600F0B0
:101B900019F8786800F016F80837BD4680BD00BF18
:101BA00080B584B000AF7860FFF798FC786800F0EB
:101BB00001FE0346FB60FFF7C7FCFB6818461037C1
:101BC000BD4680BD80B582B000AF78607B68002BD9
:101BD00006D0FFF783FC786800F0F4FDFFF7B4FC53
:101BE0000837BD4680BD00BF80B400AF30BFBD46E2
:101BF0005DF8047B704700BF80B483B000AF7860AD
:101C00007B6803F108027B685A607B684FF0FF3203
:101C10009A607B6803F108027B68DA607B6803F1F5
:101C200008027B681A617B6800221A600C37BD4687
:101C30005DF8047B704700BF80B483B000AF78606C
:101C40007B6800221A610C37BD465DF8047B704743
:101C500080B485B000AF786039607B685B68FB60FA
:101C60003B68FA685A60FB689A683B689A60FB6850
:101C70009B683A685A60FB683A689A603B687A6881
:101C80001A617B681B685A1C7B681A601437BD4652
:101C90005DF8047B704700BF80B485B000AF78600A
:101CA00039603B681B68BB60BB68B3F1FF3F03D181
:101CB0007B681B69FB600CE07B680833FB6002E01B
:101CC000FB685B68FB60FB685B681A68BB689A42EC
:101CD000F6D9FB685A683B685A603B685B683A68AB
:101CE0009A603B68FA689A60FB683A685A603B6899
:101CF0007A681A617B681B685A1C7B681A60143703
:101D0000BD465DF8047B704780B485B000AF786055
:101D10007B685B687A6892689A607B689B687A687F
:101D200052685A607B681B69FB60FB685A687B6875
:101D30009A4203D17B689A68FB685A607B680022EC
:101D40001A61FB681B685A1EFB681A60FB681B68F7
:101D500018461437BD465DF8047B704780B485B0E3
:101D600000AFF860B9607A60FB68043BFB60FB6819
:101D70004FF080721A60FB68043BFB60BA68FB6836
:101D80001A60FB68043BFB60094AFB681A60FB6849
:101D9000143BFB607A68FB681A60FB68203BFB60C1
:101DA000FB6818461437BD465DF8047B704700BFDA
:101DB000B51D000080B500AF00F06AF8FEE700BF77
:101DC000064B19680868B0E8F00F80F309884FF0F7
:101DD000000080F311884EF00D0E70475C09001072
:101DE00003480068006880F3088862B600DF00BF1F
:101DF00008ED00E080B500AF0A4A0A4B1B6843F4C7
:101E000078031360074A074B1B6843F0784313605D
:101E100000F02AF9044B00221A60FFF7E1FF0023CB
:101E2000184680BD20ED00E0FC00001080B400AF3B
:101E3000054B4FF080521A60BFF34F8FBFF36F8F87
:101E4000BD465DF8047B704704ED00E080B500AF4F
:101E500000F01EF8044B1B680133034A1360BFF304
:101E60004F8FBFF36F8F80BDFC00001080B500AFB7
:101E7000064B1B68013B054A1360044B1B68002B93
:101E800002D1002000F00EF880BD00BFFC00001061
:101E9000EFF311804FF0280181F311887047002380
:101EA000184600BF80F31188704700BFEFF3098028
:101EB0000C4B1A6820E9F00F10602DE908404FF034
:101EC000280080F31188FFF795FC4FF0000080F3A5
:101ED0001188BDE8084019680868B0E8F00F80F381
:101EE000098870475C09001080B500AFFFF7D0FF8C
:101EF000FFF7BAFB0346002B03D0044B4FF0805290
:101F00001A600020FFF7CEFF80BD00BF04ED00E0A7
:101F100080B588B000AF78604D4B1B687A689A42F4
:101F200002D94B4B1B687B604A4B06221A604A4B16
:101F30001A687B68013B4949096801FB03F31344B4
:101F4000FB61474B1B68FA699A4204D9444B1B68F2
:101F5000FA69D31AFB6172B6FFF7BCFC0346002B8B
:101F60000DD1404A3C4B1B6813603A4B07221A6064
:101F70003C4A3A4B1B68013B136062B665E0394A44
:101F8000FB691360344B00221A60324B07221A603F
:101F90007B683B613B69002B04D0BFF34F8F30BFA0
:101FA000BFF36F8F2B4B06221A6062B6294B1B685A
:101FB00003F48033002B1DD0284B1A68264B196878
:101FC000FB69CB1A1344013B7B61254B1B687A6983
:101FD0009A4204D3214B1B687A699A4203D91F4B5A
:101FE0001B68013B7B611F4A7B6913607B68013B77
:101FF000BB6118E0194B1B687A6802FB03F2164BB1
:102000001B68D31AFB60154B1B68FA68B2FBF3F32D
:10201000BB611449BB690133104A126802FB03F229
:10202000FB68D31A0B600C4B00221A60FFF70EFFFF
:10203000084B07221A60B869FFF704FB094A074BEF
:102040001B68013B1360FFF711FF2037BD4680BDC1
:10205000980A001010E000E018E000E0940A001078
:102060009C0A001014E000E080B400AF154B1B6820
:10207000154AA2FB03239B09144A1360134B1B68E8
:102080006FF07F42B2FBF3F3114A13600D4B1A68F5
:102090000C4B1B68B2FBF3F32D22B2FBF3F30D4A9A
:1020A00013600D4A074B1B680749A1FB03139B09EB
:1020B000013B1360094B07221A60BD465DF8047BA3
:1020C000704700BFF40A0010D34D6210940A00104C
:1020D000980A00109C0A001014E000E010E000E0F4
:1020E00080B485B000AF0346FB71084B1B68C3F397
:1020F0000B03FB60054AFB791B031946FB680B4386
:1021000013601437BD465DF8047B704700C00F4074
:1021100080B500AF02480349162200F0DBF880BD0D
:1021200000C002403830000080B500AF00F07CF9FC
:102130000420FFF7D5FF80BD80B500AFFFF7E8FFB3
:10214000FFF7F2FF80BD00BF80B485B000AF7860BC
:102150007B685B68FB607B6800225A607B680122B9
:102160009A607B685B6843F008027B685A607B6812
:10217000FA685A601437BD465DF8047B704700BFAB
:1021800080B483B000AF7860084611461A46034613
:10219000FB700B46BB7013467B70FB78002B2FD077
:1021A0007B78002B0AD07B68DB6CFA78083201213F
:1021B00001FA02F21A437B68DA640AE07B68DB6C9E
:1021C000FA780832012101FA02F2D2431A407B6800
:1021D000DA64BB78012B09D17B68DB6CFA780121CA
:1021E00001FA02F21A437B68DA6409E07B68DB6C6F
:1021F000FA78012101FA02F2D2431A407B68DA64CC
:102200000C37BD465DF8047B704700BF90B587B0C2
:1022100002AFF8607B600B46FB721346BB727B68B3
:102220009C087B68DBB203F00303DBB2F97ABA7A6D
:102230000093F868234600F003F81437BD4690BDBC
:1022400080B487B000AFF8607B600B46FB7213462A
:10225000BB72BB7A03F00F03DBB25B00FB75FB7A4A
:102260005B00DAB2BB7A1B09DBB21344BB75BA7DE3
:10227000FB6853F82220FB7D032101FA03F3DB43C3
:1022800013403B61BA7D97F82010FB7D01FA03F300
:1022900019463B691943FB6843F82210BA7DFB6875
:1022A000103253F82220FB7D032101FA03F3DB43B4
:1022B00013403B61BA7DFB7D796899403B691943C6
:1022C000FB68103243F822101C37BD465DF8047BD2
:1022D000704700BF90B587B000AFF860B9607A6012
:1022E00000237B611FE07B699B00BA6813441B7865
:1022F000C3F30203DBB219467B699B00BA6813443F
:102300001B78C3F3C403DBB21C467B699B00BA682D
:1023100013441B68C3F31723F8682246FFF776FFC0
:102320007B6901337B617A697B689A42DBD31C3716
:10233000BD4690BD80B500AF00F030FA0246014BBB
:102340001A6080BDF40A001080B400AF074BD3F8C8
:10235000883003F08073002B14BF01230023DBB20D
:102360001846BD465DF8047B704700BF00C00F40B3
:1023700080B400AF074BD3F8883003F08063002BA4
:1023800014BF01230023DBB21846BD465DF8047B71
:10239000704700BF00C00F4080B400AF074BD3F8B8
:1023A000883003F00073002B14BF01230023DBB23D
:1023B0001846BD465DF8047B704700BF00C00F4063
:1023C00080B400AF054A054BD3F8A03143F0200399
:1023D000C2F8A031BD465DF8047B704700C00F40D5
:1023E00080B400AF074BD3F8A03103F04003002BBB
:1023F00014BF01230023DBB21846BD465DF8047B01
:10240000704700BF00C00F4080B483B000AF0346E8
:10241000FB71044AFB79C2F80C310C37BD465DF8FC
:10242000047B704700C00F4080B500AFFFF7B4FFDA
:102430000346002B03D00020022100F0D7F8FFF75D
:1024400083FF0346002B03D00020012100F0CEF8CB
:10245000FFF7C6FF034683F00103DBB2002B01D078
:10246000FFF7AEFF00BFFFF7BBFF034683F001039A
:10247000DBB2002BF7D1002000F018F90120FFF7A4
:10248000C3FF00200F21002200F0D2F8002001211C
:1024900000F08AF8032000F009F900BFFFF768FF99
:1024A000034683F00103DBB2002BF7D100200221A9
:1024B00000F07AF880BD00BF80B400AF074BD3F8BE
:1024C000883003F08073002B14BF01230023DBB29C
:1024D0001846BD465DF8047B704700BF00C00F4042
:1024E00080B400AF074BD3F8883003F00073002BA3
:1024F00014BF01230023DBB21846BD465DF8047B00
:10250000704700BF00C00F4080B483B000AF0346E7
:10251000FB71094AFB795B0113448833AA225A6094
:10252000054AFB795B011344883355225A600C3706
:10253000BD465DF8047B704700C00F4080B400AF1B
:10254000054BD3F80C31DBB203F00303DBB21846C2
:10255000BD465DF8047B704700C00F4080B400AFFB
:10256000024B1846BD465DF8047B7047001BB70060
:1025700080B400AF024B1846BD465DF8047B70473F
:1025800000093D0080B400AF4FF400431846BD463B
:102590005DF8047B704700BF80B500AF00F0A4F881
:1025A0000346184680BD00BF80B584B000AF034627
:1025B0003960FB710C4AFB7904335B0113441B68DF
:1025C000FB60FA683B681343FB60074AFB790433FE
:1025D0005B011344FA681A60FB791846FFF794FF11
:1025E0001037BD4680BD00BF00C00F4080B584B02D
:1025F00000AF03463960FB710C4AFB7904335B0181
:1026000013441B68FB603B68DB43FA681340FB60C4
:10261000064AFB7904335B011344FA681A60FB79BC
:102620001846FFF771FF1037BD4680BD00C00F4050
:1026300080B586B000AF0346B9607A60FB73FB7B60
:10264000002B05D17B681A04BB6813437B6104E04F
:102650007B685A01BB6813437B610A4AFB7B0433E6
:102660005B0113447A695A60064AFB7B04335B01C1
:10267000134401221A60FB7B1846FFF745FF183709
:10268000BD4680BD00C00F4080B582B000AFFFF7EF
:1026900027FF0346002B02D00123FB7101E000233A
:1026A000FB71FB7918460837BD4680BD80B483B006
:1026B00000AF7860044A7B68C2F804310C37BD462D
:1026C0005DF8047B704700BF00C00F4080B400AFCE
:1026D000044BD3F80431DBB201331846BD465DF834
:1026E000047B704700C00F4080B500AFFFF726FFA6
:1026F0000346012B0AD0022B0CD0002B02D000BFC6
:1027000000230AE0FFF734FF034606E0FFF726FF49
:10271000034602E0FFF736FF0346184680BD00BFC0
:1027200080B584B000AF0023FB60FFF7C5FE034611
:10273000002B18D00E4BD3F88430C3F30E030133B3
:10274000BB600B4BD3F884301B0CDBB201337B60D6
:10275000FFF722FF0246BB6803FB02F35A007B68C7
:10276000B2FBF3F3FB60FB6818461037BD4680BD33
:1027700000C00F4080B500AFFFF786FF0346002B77
:1027800005D0012B07D1FFF7CBFF034604E0FFF78D
:10279000ABFF034600E00023184680BD98B500AFAC
:1027A000FFF7E8FF0446FFF791FF0346B4FBF3F39E
:1027B000184698BD024B0146186800F00BB800BFE0
:1027C00038090010024B0146186800F03BBB00BFFF
:1027D000380900102DE9F04F01F10B05162D83B0DB
:1027E000064627D935F0070500F1B680A94200F268
:1027F000B38000F0C3FAB5F5FC7F22D2BC4FE808E5
:1028000007EBC003DC689C4200F0BC816368E168B0
:1028100023F0030323445A68A56842F00102E960EB
:1028200030468D605A6000F0ABFA0834204603B0A1
:10283000BDE8F08F102900F28F8000F09FFA10257C
:10284000DCE7680A00F08F80042800F24781A809BD
:1028500038304100A64F07EB8101CC68A14206D178
:102860000CE0002A80F28280E468A14206D063680E
:1028700023F003035A1B0F2AF3DD013801309C4972
:102880003C6901F1080E744500F07181636823F022
:1028900003035A1B0F2A00F35781002AC1F814E0E2
:1028A000C1F810E066DAB3F5007F80F02D81DB0817
:1028B00001EBC3084FEAA30C4A68012303FA0CF3A7
:1028C000D8F808C01343C4F808C0C4F80C804B60A3
:1028D000C8F80840CCF80C408210012494409C4277
:1028E00055D8234206D120F003006400234200F1B2
:1028F0000400FAD007EBC008C4468146DCF80C306F
:102900009C4507D135E1002980F24581DB689C4573
:1029100000F02F815A6822F00302511B0F29F2DDCB
:102920001C46DA6854F808CF45F0010941F0010867
:102930001D44C3F804903046CCF80C20C2F808C0FF
:102940007D613D61C5F80CE0C5F808E0C5F804807C
:10295000695000F015FA69E7002420460C23336023
:1029600003B0BDE8F08F7E213F2073E723445A680F
:10297000E16851E723445A68304642F001025A6048
:10298000083400F0FDF9204603B0BDE8F08FBC68C4
:10299000636823F00308454504D8C5EB08030F2BF3
:1029A00000F38C80534BDFF85CA11A68DAF8003032
:1029B0002A44013304EB080B00F0518102F58052E8
:1029C0000F3222F47F6222F00F021146304601924C
:1029D00000F0D8F9B0F1FF3F8146019A00F048813C
:1029E000834500F2EF80444BCB45196811441960D0
:1029F00000F04381DAF80000DFF808E101301BBF86
:102A0000CBEB090B5944CEF80090196019F007017F
:102A100000F00881C1F10800C1F5805181440831FE
:102A20004A44C2F30B02C2EB010A514630460193FD
:102A300000F0A8F9431C019B00F02D81C9EB0002B6
:102A4000524442F001021968BC425144C7F8089050
:102A50001960C9F80420DFF8A0A016D0B8F10F0F54
:102A600040F2EF806268A8F10C0323F0070302F044
:102A70000102E0184FF0050E1A430F2B6260C0F8F8
:102A800004E0C0F808E000F20A811C4BBC681A6838
:102A9000914288BF19601A4B1A689142626888BFD8
:102AA000196022F003029542A2EB050301D80F2B17
:102AB00004DC304600F064F90024B7E645F001027A
:102AC00043F00103254462603046BD6008346B600A
:102AD00000F056F9204603B0BDE8F08F142869D9FC
:102AE000542800F29880280B6E304100B2E600BFF7
:102AF00000010010A80A0010AC0A0010A40A00107F
:102B0000A00A00100C0500105A0A042A55D9142AEC
:102B100000F2A7805B324FEA420C07EB8C0CDCF82A
:102B20000810DFF8B88161457FD04A6822F00302BF
:102B3000934202D289688C45F7D1CA687B68E2600B
:102B4000A1609460CC60C7E645F0010742F0010344
:102B50002544676030464D610D61C5F80CE0C5F84D
:102B600008E06B60AA50083400F00AF95EE64B6892
:102B7000B2E609F1010919F0030F0CF1080C7FF41A
:102B8000BDAE2CE004F108036469A34208BF023023
:102B90003FF475AE3AE61C461A445168DB6854F8B7
:102BA000085F41F0010151603046EB609D6000F02C
:102BB000E7F83BE65B3041004CE69A0938324FEAD1
:102BC000420CAAE7BC42454B3FF40DAF9C686268DB
:102BD00022F0030267E7D8F8008098457CD110F016
:102BE000030FA8F1080300F1FF30F4D17B6823EA5A
:102BF00004037B6064009C423FF6C9AE002C3FF4A6
:102C0000C6AE234248467FF475AE6400234200F10D
:102C10000400FAD06EE6B0F5AA7F18D8E80B77303A
:102C2000410017E64FF48051FAE6D8F804309210CC
:102C30004FF0010C0CFA02F21343C8F804300A46B4
:102C40007DE70123C9F804304C4600222BE740F20F
:102C5000545398421CD8A80C7C304100FAE510323D
:102C6000B3E6542A23D81A0B6E324FEA420C54E7CB
:102C7000BC68626822F0030215E7CBF30B00002862
:102C80007FF4B8AE4244BB6842F001025A60FCE6F1
:102C9000FC217E20DEE501224FF0000AD3E604F19C
:102CA0000801304600F0CEF8DAF80010EDE6B2F593
:102CB000AA7F04D8DA0B77324FEA420C2DE740F2B4
:102CC00054518A4204D89A0C7C324FEA420C24E7D1
:102CD0004FF0FC0C7E2220E77B688BE700010010A0
:102CE00070B4840746D0541E002A41D0CDB20346AA
:102CF00002E0621EE4B3144603F8015B9A07F8D1C0
:102D0000032C2ED9CDB245EA05250F2C45EA054501
:102D100019D9264603F11002103E0F2E42F8105C1E
:102D200042F80C5C42F8085C42F8045C02F11002C4
:102D3000F2D8A4F1100222F00F0204F00F041032B6
:102D4000032C13440DD91E462246043A032A46F8A2
:102D5000045BFAD8221F22F003020432134404F069
:102D600003042CB1C9B21C4403F8011BA342FBD1DC
:102D700070BC704714460346C2E700BF704700BFEF
:102D8000704700BF38B5074C00230546084623604E
:102D9000FEF778F9431C00D038BD2368002BFBD028
:102DA0002B6038BDF80A0010F8B50C46224F0646D5
:102DB000FFF7E4FFBB685D6825F00305291B01F6FA
:102DC000EF7121F47F6121F00F01A1F58054B4F57A
:102DD000805F07DB30460021FFF7D4FFBB682B4440
:102DE000984204D03046FFF7CBFF0020F8BD3046B4
:102DF0006142FFF7C7FF01300DD0104BBA68196868
:102E00002D1B45F001053046091B55601960FFF781
:102E1000B7FF0120F8BD30460021FFF7B3FFBA68C5
:102E2000831A0F2BDEDD064C0449246843F00103AE
:102E3000001B53600860D5E700010010AC0A0010C9
:102E40000C05001000294ED02DE9F0410C468046BB
:102E5000FFF794FF54F8047C6249A4F1080527F0B9
:102E60000102AB188E6858689E4220F003005AD0C9
:102E7000FE0758600BD454F8087C01F1080EED1BD6
:102E8000AC683A44744567D0EF68E760BC601C18D2
:102E90006468E4070CD4544F9C680244BC427CD064
:102EA000D86842F00103E06084606B60AA5003E0E0
:102EB00042F001036B60AA50B2F5007F14D2D20831
:102EC00001EBC20301244868921004FA02F29C68E4
:102ED0001043AC60EB6048609D60E5604046BDE833
:102EE000F041FFF74DBF7047530A042B47D89309B1
:102EF00003F13804600001EB8000836839498342A4
:102F000043D0596821F00301914202D99B6898424D
:102F1000F7D1DA68EA60AB6040469560DD60BDE8F5
:102F2000F041FFF72DBFFF07024407D454F8084CC7
:102F30002D1BEB68A8682244C36098602B4B42F0BD
:102F400001001B6868609A428D60C7D3284B4046D9
:102F50001968FFF729FFC1E719184968C90709D49B
:102F6000D96802449B6842F00100D9608B606860B8
:102F7000AA50B3E742F001036B60AA50AEE7142BEE
:102F800014D803F15B046000B5E74A68A41001207F
:102F9000A04002434A601A46BCE742F001034D617B
:102FA0000D61EC60AC606B60AA5097E7542B04D8BD
:102FB000130B03F16E0460009DE7B3F5AA7F04D8FC
:102FC000D30B03F17704600095E740F2545083423D
:102FD00004D8930C03F17C0460008CE7FC207E2471
:102FE00089E700BF0001001008010010080500106B
:102FF000A80A0010657869740000000048656170D7
:1030000020616E6420737461636B20636F6C6C6904
:1030100073696F6E0A0000005374617274557020FA
:103020004D6F746F720000004D6F746F720000007E
:1030300049444C4500000000000A0000080A000056
:10304000200A0000280A0000B0080000B8090000AB
:10305000D00A000001090000090900002109000050
:1030600041090000490900005109000071090000F0
:103070007909000081090000890900001A08000090
:10308000780800002208000080080000880800007E
:0430900043000000F9
:103094000000000000000000030000000000000029
:1030A400010000000100000000000000000000001A
:1030B4000000000002000000020000000200000006
:1030C4001C0000001B0000001A0000000A000000A1
:1030D4001C0000001B000000110000001200000092
:1030E40013000000050000000400000003000000BD
:1030F40003000000000000000000000001000000C8
:1031040001000000010000000000000000000000B9
:1031140000000000020000000200000002000000A5
:10312400190000001D0000001E0000001A0000002D
:103134001900000018000000140000001500000031
:103144001600000002000000010000000000000062
:10315400960000002C010000640000003C00000008
:1031640096000000000000000100000002000000C2
:10317400030000000300000004000000050000003C
:103184000600000001000000FFFFFFFFAAAAAAAA90
:103194000000000000000000000100100001001009
:1031A40008010010080100101001001010010010A7
:1031B4001801001018010010200100102001001057
:1031C4002801001028010010300100103001001007
:1031D40038010010380100104001001040010010B7
:1031E4004801001048010010500100105001001067
:1031F4005801001058010010600100106001001017
:1032040068010010680100107001001070010010C6
:103214007801001078010010800100108001001076
:103224008801001088010010900100109001001026
:103234009801001098010010A0010010A0010010D6
:10324400A8010010A8010010B0010010B001001086
:10325400B8010010B8010010C0010010C001001036
:10326400C8010010C8010010D0010010D0010010E6
:10327400D8010010D8010010E0010010E001001096
:10328400E8010010E8010010F0010010F001001046
:10329400F8010010F80100100002001000020010F4
:1032A40008020010080200101002001010020010A2
:1032B4001802001018020010200200102002001052
:1032C4002802001028020010300200103002001002
:1032D40038020010380200104002001040020010B2
:1032E4004802001048020010500200105002001062
:1032F4005802001058020010600200106002001012
:1033040068020010680200107002001070020010C1
:103314007802001078020010800200108002001071
:103324008802001088020010900200109002001021
:103334009802001098020010A0020010A0020010D1
:10334400A8020010A8020010B0020010B002001081
:10335400B8020010B8020010C0020010C002001031
:10336400C8020010C8020010D0020010D0020010E1
:10337400D8020010D8020010E0020010E002001091
:10338400E8020010E8020010F0020010F002001041
:10339400F8020010F80200100003001000030010EF
:1033A400080300100803001010030010100300109D
:1033B400180300101803001020030010200300104D
:1033C40028030010280300103003001030030010FD
:1033D40038030010380300104003001040030010AD
:1033E400480300104803001050030010500300105D
:1033F400580300105803001060030010600300100D
:1034040068030010680300107003001070030010BC
:10341400780300107803001080030010800300106C
:10342400880300108803001090030010900300101C
:103434009803001098030010A0030010A0030010CC
:10344400A8030010A8030010B0030010B00300107C
:10345400B8030010B8030010C0030010C00300102C
:10346400C8030010C8030010D0030010D0030010DC
:10347400D8030010D8030010E0030010E00300108C
:10348400E8030010E8030010F0030010F00300103C
:10349400F8030010F80300100004001000040010EA
:1034A4000804001008040010100400101004001098
:1034B4001804001018040010200400102004001048
:1034C40028040010280400103004001030040010F8
:1034D40038040010380400104004001040040010A8
:1034E4004804001048040010500400105004001058
:1034F4005804001058040010600400106004001008
:1035040068040010680400107004001070040010B7
:103514007804001078040010800400108004001067
:103524008804001088040010900400109004001017
:103534009804001098040010A0040010A0040010C7
:10354400A8040010A8040010B0040010B004001077
:10355400B8040010B8040010C0040010C004001027
:10356400C8040010C8040010D0040010D0040010D7
:10357400D8040010D8040010E0040010E004001087
:10358400E8040010E8040010F0040010F004001037
:10359400F8040010F804001000000200FFFFFFFF11
:1035A40000000000FC07001064080010CC080010A4
:1035B4000000000000000000000000000000000007
:1035C40000000000000000000000000000000000F7
:1035D4000000000090300000000000000000000027
:1035E40000000000000000000000000000000000D7
:1035F40000000000000000000000000000000000C7
:1036040000000000000000000000000000000000B6
:1036140000000000000000000000000000000000A6
:103624000000000000000000000000000000000096
:103634000000000000000000000000000000000086
:103644000000000000000000010000000000000075
:103654000E33CDAB34126DE6ECDE05000B0000003A
:103664000000000000000000000000000000000056
:103674000000000000000000000000000000000046
:103684000000000000000000000000000000000036
:103694000000000000000000000000000000000026
:0C39C400000000000000000010050010D2
:040000030000017187
:00000001FF
