:100000000080001071010000E9010000F101000012
:10001000F9010000010200000902000000000000D8
:10002000000000000000000000000000811E000031
:1000300019020000000000006D1F0000A91F000051
:1000400031020000310200003102000031020000E4
:1000500031020000310200003102000031020000D4
:1000600031020000990F000031020000310200004F
:1000700031020000310200003102000031020000B4
:1000800031020000310200003102000031020000A4
:100090003102000031020000310200003102000094
:1000A0003102000031020000310200003102000084
:1000B0003102000031020000310200003102000074
:1000C0003102000031020000310200005431000012
:1000D000000000102C0900005431000000C007206F
:1000E000000000002C090010E401000000C00720FF
:1000F0000000000080B489B000AFF860B9607A6099
:10010000BB68FB61FB68BB6100237B610AE0FB69A4
:100110001A1DFA61BA69111DB96112681A607B690A
:1001200004337B617A697B689A42F0D32437BD46F9
:100130005DF8047B704700BF80B485B000AF786085
:1001400039607B68FB600023BB6007E0FB681A1D19
:10015000FA6000221A60BB680433BB60BA683B686F
:100160009A42F3D31437BD465DF8047B704700BF55
:1001700080B584B000AF194BFB6013E0FB681A1D1B
:10018000FA601B68BB60FB681A1DFA601B687B6025
:10019000FB681A1DFA601B683B60B86879683A68AA
:1001A000FFF7A8FFFB680E4A9342E7D30DE0FB6818
:1001B0001A1DFA601B687B60FB681A1DFA601B68D9
:1001C0003B6078683968FFF7B7FFFB68054A9342E0
:1001D000EDD301F09BF801F069F8FEE7CC000000D8
:1001E000E4000000F400000080B400AFFEE700BFB0
:1001F00080B400AFFEE700BF80B400AFFEE700BFF1
:1002000080B400AFFEE700BF80B400AFFEE700BFE0
:1002100080B400AFFEE700BF80B400AFFEE700BFD0
:1002200080B400AFFEE700BF80B400AFFEE700BFC0
:1002300080B400AFFEE700BFFFFFFFFFFFFFFFFF3F
:10024000FFFFFFFFFFFFFFFFFFFFFFFFFFFFFFFFBE
:10025000FFFFFFFFFFFFFFFFFFFFFFFFFFFFFFFFAE
:10026000FFFFFFFFFFFFFFFFFFFFFFFFFFFFFFFF9E
:10027000FFFFFFFFFFFFFFFFFFFFFFFFFFFFFFFF8E
:10028000FFFFFFFFFFFFFFFFFFFFFFFFFFFFFFFF7E
:10029000FFFFFFFFFFFFFFFFFFFFFFFFFFFFFFFF6E
:1002A000FFFFFFFFFFFFFFFFFFFFFFFFFFFFFFFF5E
:1002B000FFFFFFFFFFFFFFFFFFFFFFFFFFFFFFFF4E
:1002C000FFFFFFFFFFFFFFFFFFFFFFFFFFFFFFFF3E
:1002D000FFFFFFFFFFFFFFFFFFFFFFFFFFFFFFFF2E
:1002E000FFFFFFFFFFFFFFFFFFFFFFFFFFFFFFFF1E
:1002F000FFFFFFFFFFFFFFFFFFFFFFFFFFFFFFFF0E
:1003000080B483B000AF0346FB71084997F907300A
:100310005B09FA7902F01F02012000FA02F241F8AB
:1003200023200C37BD465DF8047B704700E100E0F8
:1003300080B483B000AF7860084611461A46034681
:10034000FB700B46BB7013467B707B78002B0FD085
:10035000FB785B017A681344FA78520179680A44A1
:100360009169BA78012000FA02F20A439A610EE01C
:10037000FB785B017A681344FA78520179680A4481
:10038000D169BA78012000FA02F20A43DA610C3727
:10039000BD465DF8047B704780B584B000AFF8605F
:1003A000B96011461A460B46FB711346BB71BB6818
:1003B000D9B2FA79BB79F868FFF7BAFF1037BD46B2
:1003C00080BD00BF80B483B000AF78600B46FB7087
:1003D0001346BB70FB785B017A681344FA785201CC
:1003E00079680A441168BA78012000FA02F20A43D7
:1003F0001A600C37BD465DF8047B704780B483B04B
:1004000000AF78600B46FB701346BB70FB785B0156
:100410007A681344FA78520179680A441168BA7804
:10042000012000FA02F2D2430A401A600C37BD469E
:100430005DF8047B704700BF80B582B000AF786084
:10044000084611461A460346FB700B46BB7013461E
:100450007B707B78002B07D0FA78BB7878681146E0
:100460001A46FFF7AFFF06E0FA78BB7878681146C6
:100470001A46FFF7C3FF0837BD4680BD80B584B07C
:1004800000AFF860B9607A60FB70BB68D9B27B6876
:10049000DAB2FB78F868FFF7CFFF1037BD4680BDB2
:1004A00080B483B000AF78600B46FB707B681B683C
:1004B00097F90320032A05DC97F90320012101FAAB
:1004C00002F205E097F903200432012101FA02F259
:1004D0001340002B14BF01230023DBB218460C3756
:1004E000BD465DF8047B704780B483B000AF786090
:1004F0000B46FB7097F90330032B06DC97F90330AA
:10050000012202FA03F31A4606E097F90330043396
:10051000012202FA03F31A467B681A600C37BD46C3
:100520005DF8047B704700BF80B483B000AF786093
:100530007B685B6843F001027B685A607B685B689C
:1005400043F008027B685A600C37BD465DF8047BB7
:10055000704700BF80B483B000AF786039607B68BB
:100560003A68DA600C37BD465DF8047B704700BF1F
:1005700080B485B000AFF8600B467A60FB7297F9E3
:100580000B30062B2CD801A252F823F0A90500004D
:10059000B1050000B9050000C1050000C905000053
:1005A000D1050000D9050000FB687A689A6118E05F
:1005B000FB687A68DA6114E0FB687A681A6210E016
:1005C000FB687A685A620CE0FB687A681A6408E093
:1005D000FB687A685A6404E0FB687A689A6400E011
:1005E00000BF1437BD465DF8047B704780B483B00C
:1005F00000AF78600B46FB707B685B69FA7802F0AD
:1006000007025100FA7802F007020A44012101FAB8
:1006100002F21A437B685A610C37BD465DF8047BD1
:10062000704700BF80B483B000AF78600B46FB70AA
:100630007B68596997F9032013465B001344013323
:10064000012202FA03F341EA03027B685A610C3784
:10065000BD465DF8047B704780B483B000AF78601E
:100660000B46FB707B68596997F9032013465B00C2
:1006700013440133012202FA03F3DB4301EA0302CC
:100680007B685A610C37BD465DF8047B704700BF3C
:1006900080B483B000AF78600B46FB707B6859690B
:1006A00097F9032013465B0013440233012202FA38
:1006B00003F3DB4301EA03027B685A610C37BD4652
:1006C0005DF8047B704700BF80B500AF0F48002184
:1006D000FFF740FF0D4800214FF47A72FFF748FF03
:1006E0000A480021FFF782FF08480021FFF79AFF20
:1006F00006480021FFF7CCFF044801F085FD0348C0
:10070000FFF712FF0920FFF7FBFD80BD00800140CD
:1007100080B582B000AF0346FB71FB791A4A52F8EC
:100720002330DBB2194819460022002301F088FD6E
:10073000FB79154A52F82330DBB25BB213481946F5
:100740001422FFF715FFFB790F4A52F82330DBB272
:100750005BB20E481946FFF749FFFB790A4A52F887
:100760002330DBB25BB209481946FFF775FFFB790E
:10077000054A52F82330DBB25BB204481946FFF752
:1007800087FF0837BD4680BDD400001000800140BF
:1007900090B583B000AF0346FB71FA798F491346D9
:1007A0005B0013449B000B441C68FA798C49134688
:1007B0005B0013449B000B441B688A4821461A4681
:1007C0000123FFF75BFEFA79844913465B0013446B
:1007D0009B000B4404331C68FA79814913465B0083
:1007E00013449B000B4404331B687E4821461A4681
:1007F0000123FFF743FEFA79784913465B0013445F
:100800009B000B4408331C68FA79754913465B005A
:1008100013449B000B4408331B68724821461A4658
:100820000123FFF72BFEFA796F4913465B0013444F
:100830009B000B441C68FA796C4913465B00134417
:100840009B000B441B68674821461A460123FFF7AB
:1008500015FEFA79644913465B0013449B000B4470
:1008600004331C68FA79614913465B0013449B000A
:100870000B4404331B685B4821461A460123FFF7EB
:10088000FDFDFA79584913465B0013449B000B4465
:1008900008331C68FA79554913465B0013449B00E2
:1008A0000B4408331B684F4821461A460123FFF7C3
:1008B000E5FDFA79494913465B0013449B000B445C
:1008C0001C68FA79464913465B0013449B000B44AD
:1008D0001B68DBB2434821461A460023FFF75CFD44
:1008E000FA793E4913465B0013449B000B440433E2
:1008F0001C68FA793A4913465B0013449B000B4489
:1009000004331B68DBB2374821461A460023FFF741
:1009100043FDFA79314913465B0013449B000B44B5
:1009200008331C68FA792E4913465B0013449B0078
:100930000B4408331B68DBB22A4821461A460023C1
:10094000FFF72AFDFA79284913465B0013449B0000
:100950000B441C68FA79254913465B0013449B003D
:100960000B441B68DBB21F4821461A460123FFF7E0
:1009700013FDFA791C4913465B0013449B000B449A
:1009800004331C68FA79194913465B0013449B0031
:100990000B4404331B68DBB2124821461A4601237C
:1009A000FFF7FAFCFA79104913465B0013449B00E9
:1009B0000B4408331C68FA790C4913465B00134456
:1009C0009B000B4408331B68DBB2064821461A46DD
:1009D0000123FFF7E1FC0C37BD4690BD000000107D
:1009E0003000001000C009206000001090000010CE
:1009F00090B583B000AF0346FB71FB79554A52684E
:100A00001146554A42F82310FB79524AD26891B2F6
:100A1000524A22F81310FB79FA79504931F8122022
:100A200091B24F4A22F81310FA794E4913465B00EF
:100A300013449B000B441C68FA794B4913465B0036
:100A400013449B000B441B68DBB2484821461A46FE
:100A50000023FFF7A1FCFA79424913465B001344D7
:100A60009B000B4404331C68FA793F4913465B0032
:100A700013449B000B4404331B68DBB23B48214604
:100A80001A460023FFF788FCFA79364913465B00C3
:100A900013449B000B4408331C68FA79324913460F
:100AA0005B0013449B000B4408331B68DBB22F48E8
:100AB00021461A460023FFF76FFCFA792C491346AA
:100AC0005B0013449B000B441C68FA7929491346C8
:100AD0005B0013449B000B441B68DBB22348214698
:100AE0001A460123FFF758FCFA79214913465B00A7
:100AF00013449B000B4404331C68FA791D491346C8
:100B00005B0013449B000B4404331B68DBB21748A3
:100B100021461A460123FFF73FFCFA791449134690
:100B20005B0013449B000B4408331C68FA7911499D
:100B300013465B0013449B000B4408331B68DBB275
:100B40000A4821461A460123FFF726FC0C37BD460A
:100B500090BD00BFC00000105009001060090010D7
:100B600068090010000000103000001000C00920CB
:100B7000600000109000001080B586B000AF034602
:100B8000FB7101237B61FB79444A002142F8231069
:100B9000FB79184600F090F80EE000BFFB79404A60
:100BA00052F82320FB793F4951F823309A42F5D37C
:100BB000FB79184600F080F8FB79384A52F8233068
:100BC000092BEAD9384B1A69374BDB68D21A364BF6
:100BD0001B6892FBF3F33B61334B5A68324B9B68C3
:100BE000D21A314B1B6892FBF3F3FB6000237B614D
:100BF0002DE000BFFB792A4A52F82320FB792949CE
:100C000051F823309A42F5D3FB79184600F054F896
:100C1000FB79254AD26891B27A6992B2386980B27A
:100C200000FB02F292B20A4491B2204A22F8131059
:100C3000FB791D4A526810467A69F96801FB02F295
:100C4000821A184941F823207B6901337B61FB79C3
:100C5000144A52F82320FB7913499B000B445B682C
:100C60009A42C6D8FB79114A962122F81310FB79D3
:100C70000F4A52F82330D9B2FB790C4A32F81330BC
:100C80009BB21A464BB20B481946FFF771FC094854
:100C900001F0BAFA1837BD4680BD00BF80090010C8
:100CA0004009001050090010C00000106009001039
:100CB000D40000100080014090B583B000AF03461F
:100CC000FB71FB79A74A32F813309AB2FB79A64937
:100CD00031F813309BB29A421BD0FB79A34A52F8E9
:100CE0002330D9B2FB799F4A32F813309BB21A46AF
:100CF0004BB29F481946FFF73BFC9D4801F084FA30
:100D0000FB79FA79974931F8122091B2964A22F884
:100D10001310FB79974A52F82330042B00F2E1803C
:100D200001A252F823F000BF3D0D00009F0D00000E
:100D3000DD0D00003F0E00007D0E0000FA798E49A7
:100D400013465B0013449B000B4408331C68FA797C
:100D50008A4913465B0013449B000B4408331B680D
:100D6000DBB2874821461A460123FFF715FBFA79C3
:100D7000814913465B0013449B000B441C68FA79BD
:100D80007E4913465B0013449B000B441B68DBB297
:100D90007B4821461A460023FFF7FEFABDE0FA79A8
:100DA000784913465B0013449B000B4404331C68D2
:100DB000FA79754913465B0013449B000B440433D6
:100DC0001B68DBB26E4821461A460023FFF7E4FA9F
:100DD000FB796E4A022142F823109EE0FA796649B7
:100DE00013465B0013449B000B441C68FA7963496B
:100DF00013465B0013449B000B441B68DBB2604846
:100E000021461A460123FFF7C7FAFA795A491346D1
:100E10005B0013449B000B4404331C68FA79574968
:100E200013465B0013449B000B4404331B68DBB286
:100E3000534821461A460023FFF7AEFA6DE0FA79CF
:100E4000504913465B0013449B000B4408331C6855
:100E5000FA794D4913465B0013449B000B44083359
:100E60001B68DBB2464821461A460023FFF794FA76
:100E7000FB79464A002142F823104EE0FA793E49B8
:100E800013465B0013449B000B4404331C68FA793F
:100E90003A4913465B0013449B000B4404331B6820
:100EA000DBB2374821461A460123FFF775FAFA7973
:100EB000314913465B0013449B000B4408331C6804
:100EC000FA792E4913465B0013449B000B44083308
:100ED0001B68DBB22A4821461A460023FFF75CFA5A
:100EE0001BE0FA79274913465B0013449B000B442F
:100EF0001C68FA79244913465B0013449B000B4499
:100F00001B68DBB21E4821461A460023FFF744FA4D
:100F1000FB791E4A012142F82310FB79154A52F849
:100F20002330042B0DDDFB79124A002142F82310F7
:100F3000FB79174A52F823200132154941F8232042
:100F400008E0FB79FA790B4951F82220013209496E
:100F500041F82320FB790F4A002142F823100C3777
:100F6000BD4690BD6009001068090010D400001053
:100F70000080014070090010600000109000001017
:100F800000C00920000000103000001030090010DF
:100F9000800900104009001080B500AF6B480021A7
:100FA000FFF77EFA0346002B5DD0694B1B680133C7
:100FB000674A1360664B5B680133654A5360644B54
:100FC0009B680133624A9360614BDB680133604A7E
:100FD000D3605E480021FFF787FA5E4B1B685E4ACC
:100FE00052F823105B4B1B685C4A52F82330DBB28B
:100FF0005B481A460123FFF7CFF9564B5B68564A08
:10100000033352F82310534B5B68544A033352F8AE
:101010002330DBB252481A460123FFF7BDF94D4B8E
:101020009B684D4A063352F823104A4B9B684B4A43
:10103000063352F82330DBB249481A460123FFF742
:10104000ABF9444BDB68444A093352F82310414B57
:10105000DB68424A093352F82330DBB240481A4673
:101060000123FFF799F939480321FFF719FA0346DD
:10107000002B13D035480321FFF736FA354B1B6898
:10108000354A52F82310334B1B68344A52F8233048
:10109000DBB233481A460023FFF77EF92B480421C0
:1010A000FFF7FEF90346002B15D028480421FFF76F
:1010B0001BFA284B5B68284A033352F82310254B50
:1010C0005B68264A033352F82330DBB224481A46C1
:1010D0000023FFF761F91D480521FFF7E1F90346F9
:1010E000002B15D019480521FFF7FEF9194B9B6815
:1010F000194A063352F82310164B9B68174A0633D9
:1011000052F82330DBB216481A460023FFF744F9A1
:101110000E480621FFF7C4F90346002B15D00B48F3
:101120000621FFF7E1F90B4BDB680B4A093352F854
:101130002310084BDB68094A093352F82330DBB22D
:1011400007481A460023FFF727F980BD00800140B9
:10115000400900103009001000000010300000109D
:1011600000C0092090B585B000AF7860154B1B68B2
:10117000002B02D1134B144A1A60124B1B68FB6000
:10118000EFF308831C462346BB600E4B1A687B684E
:101190001A44BB689A420AD902200C49192200F06D
:1011A00019F80B4B0C221A604FF0FF3306E0054B89
:1011B0001A687B681344034A1360FB6818461437A7
:1011C000BD4690BD2C090010100B0010BC30000073
:1011D0000C0B001080B485B000AFF860B9607A6085
:1011E000FB68012B07D0022B07D0084B09221A609D
:1011F0004FF0FF3303E000BF00E000BF7B681846FC
:101200001437BD465DF8047B704700BF0C0B00101F
:1012100080B500AF01F0EEF80020FFF779FA012069
:10122000FFF776FA0220FFF773FA0320FFF770FA50
:10123000FFF74AFA0020FFF7ABFA0120FFF7A8FA00
:101240000220FFF7A5FA0320FFF7A2FA0020FFF71C
:10125000CFFB0120FFF7CCFB0220FFF7C9FB0320E7
:10126000FFF7C6FB80BD00BF80B584B000AF7860DB
:101270007B68FB60FB681B781846FFF71DFD0120AB
:1012800000F0F2F8F6E700BF80B584B000AF7860F8
:101290007B68FB60FB681B781846FFF76DFC00203D
:1012A00000F00AF91037BD4680BD00BF80B584B09C
:1012B00004AFFFF7ADFF0223009300230193002347
:1012C0000293002303930C480C494FF480620C4BAB
:1012D00000F02EF8012300930023019300230293D2
:1012E00000230393074808494FF48062044B00F041
:1012F0001FF800F029F9FEE789120000D83000003D
:10130000E400001069120000E830000080B582B0EF
:1013100000AF054B7B60054A7B681A6000F06CFFEC
:101320000837BD4680BD00BF08ED00E000000000AA
:1013300080B58AB002AFF860B9603B601346FB80AD
:10134000FB881846396B00F049FCB861BB69002B7B
:1013500066D0BB691A6BFB8803F18043013B9B009D
:1013600013447B617B6923F007037B61FB88009357
:10137000B869B968BA6A7B6B00F03AFB7869F968BA
:101380003A6800F04BFD0246BB691A60FB6A002B0D
:1013900002D0FB6ABA691A6000F0B8FD2C4B1B68DA
:1013A00001332B4A13602B4B1B68002B09D1294AB0
:1013B000BB691360264B1B68012B0FD100F060FB4B
:1013C0000CE0254B1B68002B08D1224B1B68DA6A06
:1013D000BB6A9A4202D81F4ABB6913601F4B1B6845
:1013E00001331E4A1360BB69DA6A1D4B1B689A42BF
:1013F00003D9BB69DB6A1A4A1360BB69DA6A134610
:101400009B0013449B00174A1A44BB6904331046DF
:10141000194600F07DFC0123FB6100F087FD02E02E
:101420004FF0FF33FB61FB69012B0BD10A4B1B68AB
:10143000002B07D0074B1B68DA6ABB6A9A4201D2BD
:1014400000F054FDFB6918462037BD4680BD00BF43
:10145000A40A001090090010B00A0010C40A00107D
:10146000AC0A00109409001080B584B000AF786019
:101470000023FB607B68002B12D000F08FF80C4B30
:101480001A687B681344BB600A4B1B680433184618
:1014900000F09AFCB86800F06BFB00F0B5F8F8605B
:1014A000FB68002B01D100F021FD1037BD4680BD47
:1014B000A80A00109009001080B584B000AF7860D1
:1014C00000F024FD7B68002B02D11B4B1B6800E061
:1014D0007B68FB60FB680433184600F075FCFB6812
:1014E0009B6A002B04D0FB681833184600F06CFC94
:1014F000FB6804331148194600F00AFC00F016FDA1
:101500000D4B1B68FA689A4212D10D4B1B68002BD9
:1015100002D000F0EBFC0BE0084B1A68094B1B688B
:101520009A4203D1044B00221A6001E000F0C2F994
:101530001037BD4680BD00BF90090010900A001012
:10154000B00A0010A40A001080B586B004AF0023D2
:1015500000930023019300230293002303930B487D
:101560000B4980220023FFF7E3FE78607B68012BA4
:1015700009D100F0EDFC074B01221A60064B002256
:101580001A6000F097FC0837BD4680BD4D19000079
:10159000F0300000B00A0010A80A001080B400AFBC
:1015A000044B1B680133034A1360BD465DF8047B9E
:1015B000704700BFB40A001080B483B000AF0E4B78
:1015C0001B68DB6A002B02D000237B600CE00B4B16
:1015D0001B68012B02D900237B6005E0084B1A68C9
:1015E000084B1B68D31A7B607B6818460C37BD46D6
:1015F0005DF8047B704700BF90090010940900104B
:10160000E8000010A80A001080B582B000AF0023E7
:101610007B6000F07BFC334B1B68013B314A13605D
:10162000304B1B68002B56D12F4B1B68002B52D020
:101630002FE02E4BDB68DB683B603B6818331846B5
:1016400000F0C2FB3B680433184600F0BDFB3B686A
:10165000DA6A274B1B689A4203D93B68DB6A244A43
:1016600013603B68DA6A13469B0013449B00214ACF
:101670001A443B6804331046194600F049FB3B68A6
:10168000DA6A1D4B1B68DB6A9A4202D31B4B0122AC
:101690001A60164B1B68002BCBD1194B1B68002B13
:1016A00011D00CE000F040F80346002B02D0134BA1
:1016B00001221A60124B1B68013B114A1360104B48
:1016C0001B68002BEED10D4B1B68012B03D10123AE
:1016D0007B6000F00BFC00F029FC7B6818460837A3
:1016E000BD4680BDB40A0010A40A0010640A0010B0
:1016F000AC0A00109409001090090010BC0A0010F8
:10170000B80A001080B483B000AF7860054B1A6847
:101710007B681344034A13600C37BD465DF8047BB5
:10172000704700BFA80A001080B586B000AF002344
:101730007B61554B1B68002B40F09580534B1B6819
:101740000133524A1360514B1B683B613B69002BCC
:1017500026D14F4B1B68FB604E4B1B684C4A1360F5
:101760004C4AFB6813604C4B1B6801334A4A1360B8
:10177000474B1B681B68002B01D1012300E00023AD
:10178000002B04D0454B4FF0FF321A6008E0404B6D
:101790001B68DB68DB68BB60BB685B683F4A136043
:1017A0003E4B1B683A699A424ED3394B1B681B6803
:1017B000002B01D1012300E00023002B04D0374B84
:1017C0004FF0FF321A603FE0314B1B68DB68DB688B
:1017D000BB60BB685B687B603A697B689A4203D2F6
:1017E0002E4A7B6813602FE0BB680433184600F074
:1017F000EBFABB689B6A002B04D0BB681833184611
:1018000000F0E2FABB68DA6A254B1B689A4203D9FA
:10181000BB68DB6A224A1360BB68DA6A13469B0026
:1018200013449B001F4A1A44BB68043310461946F0
:1018300000F06EFABB68DA6A1B4B1B68DB6A9A42DF
:1018400001D301237B61B0E7174B1B68DA6A1549A6
:1018500013469B0013449B000B441B68012B07D9C4
:1018600001237B6104E0114B1B6801330F4A1360B5
:101870000F4B1B68002B01D001237B617B6918464D
:101880001837BD4680BD00BFB40A0010A80A00107A
:101890005C0A0010600A0010C00A0010E800001086
:1018A000AC0A00109409001090090010B80A00104A
:1018B000BC0A001080B483B000AF1F4B1B68002B24
:1018C00003D01E4B01221A6031E01C4B00221A602B
:1018D00004E01B4B1B68013B194A1360184B1A6844
:1018E000184913469B0013449B000B441B68002BB4
:1018F000EFD0134B1A6813469B0013449B00114A08
:1019000013447B607B685B685A687B685A607B68BD
:101910005A687B6808339A4204D17B685B685A68CE
:101920007B685A607B685B68DB68074A13600C372A
:10193000BD465DF8047B7047B40A0010BC0A001075
:10194000AC0A0010940900109009001080B584B012
:1019500000AF786000F0D2F80D4B1B68012B01D965
:1019600000F0C4FA00F0A0F9FFF726FEF860FB686B
:10197000012B0CD9FFF712FEFFF71EFEF860FB6883
:10198000012B02D9F86800F023FBFFF73DFEE1E7E9
:101990009409001080B483B000AF0123FB71104B99
:1019A0001B68002B02D00023FB7112E00D4B1B685B
:1019B000002B02D00023FB710BE001233B600A4B9C
:1019C0001A680A4B19683B68CB1A9A4201D1022364
:1019D000FB71FB7918460C37BD465DF8047B7047F8
:1019E000640A0010BC0A0010900A0010A40A00103B
:1019F00080B586B000AFF860B9607A603B600023C4
:101A00007B6113E0BA687B6913441978FA687B69D3
:101A1000134430330A461A71BA687B6913441B7841
:101A2000002B00D105E07B6901337B617B69132BBF
:101A3000E8D9FB68002283F847207B68072B01D98F
:101A400007237B60FB687A68DA62FB687A689A64CD
:101A5000FB680433184600F04FF9FB68183318464A
:101A600000F04AF9FB68FA681A617B68C3F1080262
:101A7000FB689A61FB68FA685A621837BD4680BDF8
:101A800080B582B000AF00237B600CE07A6813461B
:101A90009B0013449B00114A1344184600F00CF9B4
:101AA0007B6801337B607B68072BEFD90C4800F023
:101AB00003F90C4800F000F90B4800F0FDF80B4862
:101AC00000F0FAF80A4800F0F7F80A4B044A1A60E6
:101AD000094B044A1A600837BD4680BD94090010BE
:101AE000340A0010480A0010640A0010780A001036
:101AF000900A00105C0A0010600A001080B582B0E5
:101B000000AF28E0FFF74AFD164B1B68002B0CBF07
:101B100001230023DBB27B60FFF776FD7B68002B9F
:101B200019D100F0F3F90F4BDB68DB683B603B68D1
:101B30000433184600F048F90B4B1B68013B0A4A76
:101B400013600A4B1B68013B084A136000F0EEF972
:101B5000386800F075F8054B1B68002BD2D10837A8
:101B6000BD4680BD780A0010A40A00108C0A00103F
:101B700080B582B000AF7860134B1B687A685A60FA
:101B8000124B1B687A689A4209D2114B1A680E4BA5
:101B90001B6804331046194600F0DEF810E00D4BC8
:101BA0001A68094B1B6804331046194600F0D4F834
:101BB000094B1B687A689A4202D2074A7B68136015
:101BC0000837BD4680BD00BF90090010A80A00106C
:101BD000600A00105C0A0010E800001080B584B0B4
:101BE00000AF03463960FB804C2000F039F8F86004
:101BF000FB68002B1FD03B68002B06D1FB889B00A5
:101C0000184600F02DF8034600E03B68FA681363BD
:101C1000FB681B6B002B05D1F86800F033F800233C
:101C2000FB6008E0FB681A6BFB889B001046A5214F
:101C30001A4601F0B5F8FB6818461037BD4680BD5E
:101C400080B582B000AF78607B681B6B184600F0EF
:101C500019F8786800F016F80837BD4680BD00BF57
:101C600080B584B000AF7860FFF798FC786800F02A
:101C700001FE0346FB60FFF7C7FCFB681846103700
:101C8000BD4680BD80B582B000AF78607B68002B18
:101C900006D0FFF783FC786800F0F4FDFFF7B4FC92
:101CA0000837BD4680BD00BF80B400AF30BFBD4621
:101CB0005DF8047B704700BF80B483B000AF7860EC
:101CC0007B6803F108027B685A607B684FF0FF3243
:101CD0009A607B6803F108027B68DA607B6803F135
:101CE00008027B681A617B6800221A600C37BD46C7
:101CF0005DF8047B704700BF80B483B000AF7860AC
:101D00007B6800221A610C37BD465DF8047B704782
:101D100080B485B000AF786039607B685B68FB6039
:101D20003B68FA685A60FB689A683B689A60FB688F
:101D30009B683A685A60FB683A689A603B687A68C0
:101D40001A617B681B685A1C7B681A601437BD4691
:101D50005DF8047B704700BF80B485B000AF786049
:101D600039603B681B68BB60BB68B3F1FF3F03D1C0
:101D70007B681B69FB600CE07B680833FB6002E05A
:101D8000FB685B68FB60FB685B681A68BB689A422B
:101D9000F6D9FB685A683B685A603B685B683A68EA
:101DA0009A603B68FA689A60FB683A685A603B68D8
:101DB0007A681A617B681B685A1C7B681A60143742
:101DC000BD465DF8047B704780B485B000AF786095
:101DD0007B685B687A6892689A607B689B687A68BF
:101DE00052685A607B681B69FB60FB685A687B68B5
:101DF0009A4203D17B689A68FB685A607B6800222C
:101E00001A61FB681B685A1EFB681A60FB681B6836
:101E100018461437BD465DF8047B704780B485B022
:101E200000AFF860B9607A60FB68043BFB60FB6858
:101E30004FF080721A60FB68043BFB60BA68FB6875
:101E40001A60FB68043BFB60094AFB681A60FB6888
:101E5000143BFB607A68FB681A60FB68203BFB6000
:101E6000FB6818461437BD465DF8047B704700BF19
:101E7000751E000080B500AF00F06AF8FEE700BFF5
:101E8000064B19680868B0E8F00F80F309884FF036
:101E9000000080F311884EF00D0E7047900900107D
:101EA00003480068006880F3088862B600DF00BF5E
:101EB00008ED00E080B500AF0A4A0A4B1B6843F406
:101EC00078031360074A074B1B6843F0784313609D
:101ED00000F02AF9044B00221A60FFF7E1FF00230B
:101EE000184680BD20ED00E0EC00001080B400AF8B
:101EF000054B4FF080521A60BFF34F8FBFF36F8FC7
:101F0000BD465DF8047B704704ED00E080B500AF8E
:101F100000F01EF8044B1B680133034A1360BFF343
:101F20004F8FBFF36F8F80BDEC00001080B500AF06
:101F3000064B1B68013B054A1360044B1B68002BD2
:101F400002D1002000F00EF880BD00BFEC000010B0
:101F5000EFF311804FF0280181F3118870470023BF
:101F6000184600BF80F31188704700BFEFF3098067
:101F70000C4B1A6820E9F00F10602DE908404FF073
:101F8000280080F31188FFF795FC4FF0000080F3E4
:101F90001188BDE8084019680868B0E8F00F80F3C0
:101FA000098870479009001080B500AFFFF7D0FF97
:101FB000FFF7BAFB0346002B03D0044B4FF08052CF
:101FC0001A600020FFF7CEFF80BD00BF04ED00E0E7
:101FD00080B588B000AF78604D4B1B687A689A4234
:101FE00002D94B4B1B687B604A4B06221A604A4B56
:101FF0001A687B68013B4949096801FB03F31344F4
:10200000FB61474B1B68FA699A4204D9444B1B6831
:10201000FA69D31AFB6172B6FFF7BCFC0346002BCA
:102020000DD1404A3C4B1B6813603A4B07221A60A3
:102030003C4A3A4B1B68013B136062B665E0394A83
:10204000FB691360344B00221A60324B07221A607E
:102050007B683B613B69002B04D0BFF34F8F30BFDF
:10206000BFF36F8F2B4B06221A6062B6294B1B6899
:1020700003F48033002B1DD0284B1A68264B1968B7
:10208000FB69CB1A1344013B7B61254B1B687A69C2
:102090009A4204D3214B1B687A699A4203D91F4B99
:1020A0001B68013B7B611F4A7B6913607B68013BB6
:1020B000BB6118E0194B1B687A6802FB03F2164BF0
:1020C0001B68D31AFB60154B1B68FA68B2FBF3F36D
:1020D000BB611449BB690133104A126802FB03F269
:1020E000FB68D31A0B600C4B00221A60FFF70EFF3F
:1020F000084B07221A60B869FFF704FB094A074B2F
:102100001B68013B1360FFF711FF2037BD4680BD00
:10211000CC0A001010E000E018E000E0C80A00104F
:10212000D00A001014E000E080B400AF154B1B682B
:10213000154AA2FB03239B09144A1360134B1B6827
:102140006FF07F42B2FBF3F3114A13600D4B1A6834
:102150000C4B1B68B2FBF3F32D22B2FBF3F30D4AD9
:1021600013600D4A074B1B680749A1FB03139B092A
:10217000013B1360094B07221A60BD465DF8047BE2
:10218000704700BF080B0010D34D6210C80A001042
:10219000CC0A0010D00A001014E000E010E000E0CB
:1021A00080B485B000AF0346FB71084B1B68C3F3D6
:1021B0000B03FB60054AFB791B031946FB680B43C5
:1021C00013601437BD465DF8047B704700C00F40B4
:1021D00080B500AF02480349162200F0DBF880BD4D
:1021E00000C00240F830000080B500AF00F07CF97C
:1021F0000420FFF7D5FF80BD80B500AFFFF7E8FFF3
:10220000FFF7F2FF80BD00BF80B485B000AF7860FB
:102210007B685B68FB607B6800225A607B680122F8
:102220009A607B685B6843F008027B685A607B6851
:10223000FA685A601437BD465DF8047B704700BFEA
:1022400080B483B000AF7860084611461A46034652
:10225000FB700B46BB7013467B70FB78002B2FD0B6
:102260007B78002B0AD07B68DB6CFA78083201217E
:1022700001FA02F21A437B68DA640AE07B68DB6CDD
:10228000FA780832012101FA02F2D2431A407B683F
:10229000DA64BB78012B09D17B68DB6CFA78012109
:1022A00001FA02F21A437B68DA6409E07B68DB6CAE
:1022B000FA78012101FA02F2D2431A407B68DA640B
:1022C0000C37BD465DF8047B704700BF90B587B002
:1022D00002AFF8607B600B46FB721346BB727B68F3
:1022E0009C087B68DBB203F00303DBB2F97ABA7AAD
:1022F0000093F868234600F003F81437BD4690BDFC
:1023000080B487B000AFF8607B600B46FB72134669
:10231000BB72BB7A03F00F03DBB25B00FB75FB7A89
:102320005B00DAB2BB7A1B09DBB21344BB75BA7D22
:10233000FB6853F82220FB7D032101FA03F3DB4302
:1023400013403B61BA7D97F82010FB7D01FA03F33F
:1023500019463B691943FB6843F82210BA7DFB68B4
:10236000103253F82220FB7D032101FA03F3DB43F3
:1023700013403B61BA7DFB7D796899403B69194305
:10238000FB68103243F822101C37BD465DF8047B11
:10239000704700BF90B587B000AFF860B9607A6051
:1023A00000237B611FE07B699B00BA6813441B78A4
:1023B000C3F30203DBB219467B699B00BA6813447E
:1023C0001B78C3F3C403DBB21C467B699B00BA686D
:1023D00013441B68C3F31723F8682246FFF776FF00
:1023E0007B6901337B617A697B689A42DBD31C3756
:1023F000BD4690BD80B500AF00F030FA0246014BFB
:102400001A6080BD080B001080B400AF074BD3F8F2
:10241000883003F08073002B14BF01230023DBB24C
:102420001846BD465DF8047B704700BF00C00F40F2
:1024300080B400AF074BD3F8883003F08063002BE3
:1024400014BF01230023DBB21846BD465DF8047BB0
:10245000704700BF00C00F4080B400AF074BD3F8F7
:10246000883003F00073002B14BF01230023DBB27C
:102470001846BD465DF8047B704700BF00C00F40A2
:1024800080B400AF054A054BD3F8A03143F02003D8
:10249000C2F8A031BD465DF8047B704700C00F4014
:1024A00080B400AF074BD3F8A03103F04003002BFA
:1024B00014BF01230023DBB21846BD465DF8047B40
:1024C000704700BF00C00F4080B483B000AF034628
:1024D000FB71044AFB79C2F80C310C37BD465DF83C
:1024E000047B704700C00F4080B500AFFFF7B4FF1A
:1024F0000346002B03D00020022100F0D7F8FFF79D
:1025000083FF0346002B03D00020012100F0CEF80A
:10251000FFF7C6FF034683F00103DBB2002B01D0B7
:10252000FFF7AEFF00BFFFF7BBFF034683F00103D9
:10253000DBB2002BF7D1002000F018F90120FFF7E3
:10254000C3FF00200F21002200F0D2F8002001215B
:1025500000F08AF8032000F009F900BFFFF768FFD8
:10256000034683F00103DBB2002BF7D100200221E8
:1025700000F07AF880BD00BF80B400AF074BD3F8FD
:10258000883003F08073002B14BF01230023DBB2DB
:102590001846BD465DF8047B704700BF00C00F4081
:1025A00080B400AF074BD3F8883003F00073002BE2
:1025B00014BF01230023DBB21846BD465DF8047B3F
:1025C000704700BF00C00F4080B483B000AF034627
:1025D000FB71094AFB795B0113448833AA225A60D4
:1025E000054AFB795B011344883355225A600C3746
:1025F000BD465DF8047B704700C00F4080B400AF5B
:10260000054BD3F80C31DBB203F00303DBB2184601
:10261000BD465DF8047B704700C00F4080B400AF3A
:10262000024B1846BD465DF8047B7047001BB7009F
:1026300080B400AF024B1846BD465DF8047B70477E
:1026400000093D0080B400AF4FF400431846BD467A
:102650005DF8047B704700BF80B500AF00F0A4F8C0
:102660000346184680BD00BF80B584B000AF034666
:102670003960FB710C4AFB7904335B0113441B681E
:10268000FB60FA683B681343FB60074AFB7904333D
:102690005B011344FA681A60FB791846FFF794FF50
:1026A0001037BD4680BD00BF00C00F4080B584B06C
:1026B00000AF03463960FB710C4AFB7904335B01C0
:1026C00013441B68FB603B68DB43FA681340FB6004
:1026D000064AFB7904335B011344FA681A60FB79FC
:1026E0001846FFF771FF1037BD4680BD00C00F4090
:1026F00080B586B000AF0346B9607A60FB73FB7BA0
:10270000002B05D17B681A04BB6813437B6104E08E
:102710007B685A01BB6813437B610A4AFB7B043325
:102720005B0113447A695A60064AFB7B04335B0100
:10273000134401221A60FB7B1846FFF745FF183748
:10274000BD4680BD00C00F4080B582B000AFFFF72E
:1027500027FF0346002B02D00123FB7101E0002379
:10276000FB71FB7918460837BD4680BD80B483B045
:1027700000AF7860044A7B68C2F804310C37BD466C
:102780005DF8047B704700BF00C00F4080B400AF0D
:10279000044BD3F80431DBB201331846BD465DF873
:1027A000047B704700C00F4080B500AFFFF726FFE5
:1027B0000346012B0AD0022B0CD0002B02D000BF05
:1027C00000230AE0FFF734FF034606E0FFF726FF89
:1027D000034602E0FFF736FF0346184680BD00BF00
:1027E00080B584B000AF0023FB60FFF7C5FE034651
:1027F000002B18D00E4BD3F88430C3F30E030133F3
:10280000BB600B4BD3F884301B0CDBB201337B6015
:10281000FFF722FF0246BB6803FB02F35A007B6806
:10282000B2FBF3F3FB60FB6818461037BD4680BD72
:1028300000C00F4080B500AFFFF786FF0346002BB6
:1028400005D0012B07D1FFF7CBFF034604E0FFF7CC
:10285000ABFF034600E00023184680BD98B500AFEB
:10286000FFF7E8FF0446FFF791FF0346B4FBF3F3DD
:10287000184698BD024B0146186800F00BB800BF1F
:1028800028090010024B0146186800F03BBB00BF4E
:10289000280900102DE9F04F01F10B05162D83B02A
:1028A000064627D935F0070500F1B680A94200F2A7
:1028B000B38000F0C3FAB5F5FC7F22D2BC4FE80824
:1028C00007EBC003DC689C4200F0BC816368E168F0
:1028D00023F0030323445A68A56842F00102E9602B
:1028E00030468D605A6000F0ABFA0834204603B0E1
:1028F000BDE8F08F102900F28F8000F09FFA1025BC
:10290000DCE7680A00F08F80042800F24781A809FC
:1029100038304100A64F07EB8101CC68A14206D1B7
:102920000CE0002A80F28280E468A14206D063684D
:1029300023F003035A1B0F2AF3DD013801309C49B1
:102940003C6901F1080E744500F07181636823F061
:1029500003035A1B0F2A00F35781002AC1F814E021
:10296000C1F810E066DAB3F5007F80F02D81DB0856
:1029700001EBC3084FEAA30C4A68012303FA0CF3E6
:10298000D8F808C01343C4F808C0C4F80C804B60E2
:10299000C8F80840CCF80C408210012494409C42B6
:1029A00055D8234206D120F003006400234200F1F1
:1029B0000400FAD007EBC008C4468146DCF80C30AE
:1029C0009C4507D135E1002980F24581DB689C45B3
:1029D00000F02F815A6822F00302511B0F29F2DD0B
:1029E0001C46DA6854F808CF45F0010941F00108A7
:1029F0001D44C3F804903046CCF80C20C2F808C03F
:102A00007D613D61C5F80CE0C5F808E0C5F80480BB
:102A1000695000F015FA69E7002420460C23336062
:102A200003B0BDE8F08F7E213F2073E723445A684E
:102A3000E16851E723445A68304642F001025A6087
:102A4000083400F0FDF9204603B0BDE8F08FBC6803
:102A5000636823F00308454504D8C5EB08030F2B32
:102A600000F38C80534BDFF85CA11A68DAF8003071
:102A70002A44013304EB080B00F0518102F5805227
:102A80000F3222F47F6222F00F021146304601928B
:102A900000F0D8F9B0F1FF3F8146019A00F048817B
:102AA000834500F2EF80444BCB451968114419600F
:102AB00000F04381DAF80000DFF808E101301BBFC5
:102AC000CBEB090B5944CEF80090196019F00701BF
:102AD00000F00881C1F10800C1F58051814408313E
:102AE0004A44C2F30B02C2EB010A5146304601933D
:102AF00000F0A8F9431C019B00F02D81C9EB0002F6
:102B0000524442F001021968BC425144C7F808908F
:102B10001960C9F80420DFF8A0A016D0B8F10F0F93
:102B200040F2EF806268A8F10C0323F0070302F083
:102B30000102E0184FF0050E1A430F2B6260C0F837
:102B400004E0C0F808E000F20A811C4BBC681A6877
:102B5000914288BF19601A4B1A689142626888BF17
:102B6000196022F003029542A2EB050301D80F2B56
:102B700004DC304600F064F90024B7E645F00102B9
:102B800043F00103254462603046BD6008346B6049
:102B900000F056F9204603B0BDE8F08F142869D93B
:102BA000542800F29880280B6E304100B2E600BF36
:102BB000F0000010DC0A0010E00A0010D80A001033
:102BC000D40A0010FC0400105A0A042A55D9142A09
:102BD00000F2A7805B324FEA420C07EB8C0CDCF86A
:102BE0000810DFF8B88161457FD04A6822F00302FF
:102BF000934202D289688C45F7D1CA687B68E2604B
:102C0000A1609460CC60C7E645F0010742F0010383
:102C10002544676030464D610D61C5F80CE0C5F88C
:102C200008E06B60AA50083400F00AF95EE64B68D1
:102C3000B2E609F1010919F0030F0CF1080C7FF459
:102C4000BDAE2CE004F108036469A34208BF023062
:102C50003FF475AE3AE61C461A445168DB6854F8F6
:102C6000085F41F0010151603046EB609D6000F06B
:102C7000E7F83BE65B3041004CE69A0938324FEA10
:102C8000420CAAE7BC42454B3FF40DAF9C6862681A
:102C900022F0030267E7D8F8008098457CD110F055
:102CA000030FA8F1080300F1FF30F4D17B6823EA99
:102CB00004037B6064009C423FF6C9AE002C3FF4E5
:102CC000C6AE234248467FF475AE6400234200F14D
:102CD0000400FAD06EE6B0F5AA7F18D8E80B77307A
:102CE000410017E64FF48051FAE6D8F8043092100C
:102CF0004FF0010C0CFA02F21343C8F804300A46F4
:102D00007DE70123C9F804304C4600222BE740F24E
:102D1000545398421CD8A80C7C304100FAE510327C
:102D2000B3E6542A23D81A0B6E324FEA420C54E70A
:102D3000BC68626822F0030215E7CBF30B000028A1
:102D40007FF4B8AE4244BB6842F001025A60FCE630
:102D5000FC217E20DEE501224FF0000AD3E604F1DB
:102D60000801304600F0CEF8DAF80010EDE6B2F5D2
:102D7000AA7F04D8DA0B77324FEA420C2DE740F2F3
:102D800054518A4204D89A0C7C324FEA420C24E710
:102D90004FF0FC0C7E2220E77B688BE7F0000010F0
:102DA00070B4840746D0541E002A41D0CDB20346E9
:102DB00002E0621EE4B3144603F8015B9A07F8D1FF
:102DC000032C2ED9CDB245EA05250F2C45EA054541
:102DD00019D9264603F11002103E0F2E42F8105C5E
:102DE00042F80C5C42F8085C42F8045C02F1100204
:102DF000F2D8A4F1100222F00F0204F00F041032F6
:102E0000032C13440DD91E462246043A032A46F8E1
:102E1000045BFAD8221F22F003020432134404F0A8
:102E200003042CB1C9B21C4403F8011BA342FBD11B
:102E300070BC704714460346C2E700BF704700BF2E
:102E4000704700BF38B5074C00230546084623608D
:102E5000FEF788F9431C00D038BD2368002BFBD057
:102E60002B6038BD0C0B0010F8B50C46224F0646FF
:102E7000FFF7E4FFBB685D6825F00305291B01F639
:102E8000EF7121F47F6121F00F01A1F58054B4F5B9
:102E9000805F07DB30460021FFF7D4FFBB682B447F
:102EA000984204D03046FFF7CBFF0020F8BD3046F3
:102EB0006142FFF7C7FF01300DD0104BBA681968A7
:102EC0002D1B45F001053046091B55601960FFF7C1
:102ED000B7FF0120F8BD30460021FFF7B3FFBA6805
:102EE000831A0F2BDEDD064C0449246843F00103EE
:102EF000001B53600860D5E7F0000010E00A0010E6
:102F0000FC04001000294ED02DE9F0410C4680460B
:102F1000FFF794FF54F8047C6249A4F1080527F0F8
:102F20000102AB188E6858689E4220F003005AD008
:102F3000FE0758600BD454F8087C01F1080EED1B15
:102F4000AC683A44744567D0EF68E760BC601C1811
:102F50006468E4070CD4544F9C680244BC427CD0A3
:102F6000D86842F00103E06084606B60AA5003E01F
:102F700042F001036B60AA50B2F5007F14D2D20870
:102F800001EBC20301244868921004FA02F29C6823
:102F90001043AC60EB6048609D60E5604046BDE872
:102FA000F041FFF74DBF7047530A042B47D89309F0
:102FB00003F13804600001EB8000836839498342E3
:102FC00043D0596821F00301914202D99B6898428D
:102FD000F7D1DA68EA60AB6040469560DD60BDE835
:102FE000F041FFF72DBFFF07024407D454F8084C07
:102FF0002D1BEB68A8682244C36098602B4B42F0FD
:1030000001001B6868609A428D60C7D3284B404618
:103010001968FFF729FFC1E719184968C90709D4DA
:10302000D96802449B6842F00100D9608B606860F7
:10303000AA50B3E742F001036B60AA50AEE7142B2D
:1030400014D803F15B046000B5E74A68A4100120BE
:10305000A04002434A601A46BCE742F001034D61BA
:103060000D61EC60AC606B60AA5097E7542B04D8FC
:10307000130B03F16E0460009DE7B3F5AA7F04D83B
:10308000D30B03F17704600095E740F2545083427C
:1030900004D8930C03F17C0460008CE7FC207E24B0
:1030A00089E700BFF0000010F8000010F8040010DD
:1030B000DC0A0010657869740000000048656170E2
:1030C00020616E6420737461636B20636F6C6C6944
:1030D00073696F6E0A00000053746172745570203A
:1030E0004D6F746F720000004D6F746F72000000BE
:1030F00049444C4500000000000A0000080A000096
:10310000200A0000280A0000B0080000B8090000EA
:10311000D00A00000109000009090000210900008F
:10312000410900004909000051090000710900002F
:103130007909000081090000890900001A080000CF
:1031400078080000220800008008000088080000BD
:043150004300000038
:103154000000000000000000030000000000000068
:103164000100000001000000000000000000000059
:103174000000000002000000020000000200000045
:103184001C0000001B0000001A0000000A000000E0
:103194001C0000001B0000001600000015000000C9
:1031A4001400000000000000010000000200000004
:1031B4000300000000000000000000000100000007
:1031C40001000000010000000000000000000000F9
:1031D40000000000020000000200000002000000E5
:1031E400190000001D0000001E0000001A0000006D
:1031F4001900000018000000130000001200000075
:10320400110000000300000004000000050000009D
:10321400960000002C010000640000003C00000047
:1032240096000000030000000400000005000000F8
:103234000600000001000000FFFFFFFFAAAAAAAADF
:103244000000000000000000F0000010F00000107A
:10325400F8000010F8000010000100100001001038
:1032640008010010080100101001001010010010E6
:103274001801001018010010200100102001001096
:103284002801001028010010300100103001001046
:1032940038010010380100104001001040010010F6
:1032A40048010010480100105001001050010010A6
:1032B4005801001058010010600100106001001056
:1032C4006801001068010010700100107001001006
:1032D40078010010780100108001001080010010B6
:1032E4008801001088010010900100109001001066
:1032F4009801001098010010A0010010A001001016
:10330400A8010010A8010010B0010010B0010010C5
:10331400B8010010B8010010C0010010C001001075
:10332400C8010010C8010010D0010010D001001025
:10333400D8010010D8010010E0010010E0010010D5
:10334400E8010010E8010010F0010010F001001085
:10335400F8010010F8010010000200100002001033
:1033640008020010080200101002001010020010E1
:103374001802001018020010200200102002001091
:103384002802001028020010300200103002001041
:1033940038020010380200104002001040020010F1
:1033A40048020010480200105002001050020010A1
:1033B4005802001058020010600200106002001051
:1033C4006802001068020010700200107002001001
:1033D40078020010780200108002001080020010B1
:1033E4008802001088020010900200109002001061
:1033F4009802001098020010A0020010A002001011
:10340400A8020010A8020010B0020010B0020010C0
:10341400B8020010B8020010C0020010C002001070
:10342400C8020010C8020010D0020010D002001020
:10343400D8020010D8020010E0020010E0020010D0
:10344400E8020010E8020010F0020010F002001080
:10345400F8020010F802001000030010000300102E
:1034640008030010080300101003001010030010DC
:10347400180300101803001020030010200300108C
:10348400280300102803001030030010300300103C
:1034940038030010380300104003001040030010EC
:1034A400480300104803001050030010500300109C
:1034B400580300105803001060030010600300104C
:1034C40068030010680300107003001070030010FC
:1034D40078030010780300108003001080030010AC
:1034E400880300108803001090030010900300105C
:1034F4009803001098030010A0030010A00300100C
:10350400A8030010A8030010B0030010B0030010BB
:10351400B8030010B8030010C0030010C00300106B
:10352400C8030010C8030010D0030010D00300101B
:10353400D8030010D8030010E0030010E0030010CB
:10354400E8030010E8030010F0030010F00300107B
:10355400F8030010F8030010000400100004001029
:1035640008040010080400101004001010040010D7
:103574001804001018040010200400102004001087
:103584002804001028040010300400103004001037
:1035940038040010380400104004001040040010E7
:1035A4004804001048040010500400105004001097
:1035B4005804001058040010600400106004001047
:1035C40068040010680400107004001070040010F7
:1035D40078040010780400108004001080040010A7
:1035E4008804001088040010900400109004001057
:1035F4009804001098040010A0040010A004001007
:10360400A8040010A8040010B0040010B0040010B6
:10361400B8040010B8040010C0040010C004001066
:10362400C8040010C8040010D0040010D004001016
:10363400D8040010D8040010E0040010E0040010C6
:10364400E8040010E804001000000200FFFFFFFF80
:1036540000000000EC07001054080010BC08001023
:103664000000000000000000000000000000000056
:103674000000000000000000000000000000000046
:1036840000000000503100000000000000000000B5
:103694000000000000000000000000000000000026
:1036A4000000000000000000000000000000000016
:1036B4000000000000000000000000000000000006
:1036C40000000000000000000000000000000000F6
:1036D40000000000000000000000000000000000E6
:1036E40000000000000000000000000000000000D6
:1036F40000000000000000000100000000000000C5
:103704000E33CDAB34126DE6ECDE05000B00000089
:1037140000000000000000000000000000000000A5
:103724000000000000000000000000000000000095
:103734000000000000000000000000000000000085
:103744000000000000000000000000000000000075
:0C3A740000000000000000000005001031
:040000030000017187
:00000001FF
