:100000000080001071010000E9010000F101000012
:10001000F9010000010200000902000000000000D8
:10002000000000000000000000000000F91E0000B9
:100030001902000000000000E51F00002120000060
:1000400031020000310200003102000031020000E4
:1000500031020000310200003102000031020000D4
:1000600031020000111200003102000031020000D4
:1000700031020000310200003102000031020000B4
:1000800031020000310200003102000031020000A4
:100090003102000031020000310200003102000094
:1000A0003102000031020000310200003102000084
:1000B0003102000031020000310200003102000074
:1000C000310200003102000031020000783F0000E0
:1000D000000000109C090000783F000000C00720CD
:1000E000000000009C0900103402000000C007203E
:1000F0000000000080B489B000AFF860B9607A6099
:10010000BB68FB61FB68BB6100237B610AE0FB69A4
:100110001A1DFA61BA69111DB96112681A607B690A
:1001200004337B617A697B689A42F0D32437BD46F9
:100130005DF8047B704700BF80B485B000AF786085
:1001400039607B68FB600023BB6007E0FB681A1D19
:10015000FA6000221A60BB680433BB60BA683B686F
:100160009A42F3D31437BD465DF8047B704700BF55
:1001700080B584B000AF194BFB6013E0FB681A1D1B
:10018000FA601B68BB60FB681A1DFA601B687B6025
:10019000FB681A1DFA601B683B60B86879683A68AA
:1001A000FFF7A8FFFB680E4A9342E7D30DE0FB6818
:1001B0001A1DFA601B687B60FB681A1DFA601B68D9
:1001C0003B6078683968FFF7B7FFFB68054A9342E0
:1001D000EDD301F011FB01F0B7FAFEE7CC0000000F
:1001E000E4000000F400000080B400AFFEE700BFB0
:1001F00080B400AFFEE700BF80B400AFFEE700BFF1
:1002000080B400AFFEE700BF80B400AFFEE700BFE0
:1002100080B400AFFEE700BF80B400AFFEE700BFD0
:1002200080B400AFFEE700BF80B400AFFEE700BFC0
:1002300080B400AFFEE700BFFFFFFFFFFFFFFFFF3F
:10024000FFFFFFFFFFFFFFFFFFFFFFFFFFFFFFFFBE
:10025000FFFFFFFFFFFFFFFFFFFFFFFFFFFFFFFFAE
:10026000FFFFFFFFFFFFFFFFFFFFFFFFFFFFFFFF9E
:10027000FFFFFFFFFFFFFFFFFFFFFFFFFFFFFFFF8E
:10028000FFFFFFFFFFFFFFFFFFFFFFFFFFFFFFFF7E
:10029000FFFFFFFFFFFFFFFFFFFFFFFFFFFFFFFF6E
:1002A000FFFFFFFFFFFFFFFFFFFFFFFFFFFFFFFF5E
:1002B000FFFFFFFFFFFFFFFFFFFFFFFFFFFFFFFF4E
:1002C000FFFFFFFFFFFFFFFFFFFFFFFFFFFFFFFF3E
:1002D000FFFFFFFFFFFFFFFFFFFFFFFFFFFFFFFF2E
:1002E000FFFFFFFFFFFFFFFFFFFFFFFFFFFFFFFF1E
:1002F000FFFFFFFFFFFFFFFFFFFFFFFFFFFFFFFF0E
:1003000080B483B000AF0346FB71084997F907300A
:100310005B09FA7902F01F02012000FA02F241F8AB
:1003200023200C37BD465DF8047B704700E100E0F8
:1003300080B483B000AF7860084611461A46034681
:10034000FB700B46BB7013467B707B78002B0FD085
:10035000FB785B017A681344FA78520179680A44A1
:100360009169BA78012000FA02F20A439A610EE01C
:10037000FB785B017A681344FA78520179680A4481
:10038000D169BA78012000FA02F20A43DA610C3727
:10039000BD465DF8047B704780B584B000AFF8605F
:1003A000B96011461A460B46FB711346BB71BB6818
:1003B000D9B2FA79BB79F868FFF7BAFF1037BD46B2
:1003C00080BD00BF80B483B000AF78600B46FB7087
:1003D0001346BB70FB785B017A6813445A69BB789B
:1003E00022FA03F303F00103002B14BF01230023BF
:1003F000DBB218460C37BD465DF8047B704700BF82
:1004000080B584B000AFF860B9601346FB71BB687B
:10041000DAB2FB79F86811461A46FFF7D3FF0346B4
:1004200018461037BD4680BD80B483B000AF7860F9
:100430000B46FB701346BB70FB785B017A68134474
:10044000FA78520179680A441168BA78012000FAF2
:1004500002F20A431A600C37BD465DF8047B704710
:1004600080B483B000AF78600B46FB701346BB705E
:10047000FB785B017A681344FA78520179680A4480
:100480001168BA78012000FA02F2D2430A401A60D9
:100490000C37BD465DF8047B704700BF80B582B065
:1004A00000AF7860084611461A460346FB700B46BB
:1004B000BB7013467B707B78002B07D0FA78BB7833
:1004C000786811461A46FFF7AFFF06E0FA78BB7866
:1004D000786811461A46FFF7C3FF0837BD4680BD4E
:1004E00080B584B000AFF860B9607A60FB70BB681B
:1004F000D9B27B68DAB2FB78F868FFF7CFFF103724
:10050000BD4680BD80B483B000AF78600B46FB7001
:100510007B681B6897F90320032A05DC97F9032001
:10052000012101FA02F205E097F9032004320121CA
:1005300001FA02F21340002B14BF01230023DBB2A7
:1005400018460C37BD465DF8047B704780B483B015
:1005500000AF78600B46FB7097F90330032B06DC85
:1005600097F90330012202FA03F31A4606E097F9DD
:1005700003300433012202FA03F31A467B681A603F
:100580000C37BD465DF8047B704700BF80B483B074
:1005900000AF78607B685B6843F001027B685A605B
:1005A0007B685B6843F008027B685A600C37BD4685
:1005B0005DF8047B704700BF80B483B000AF786003
:1005C00039607B683A68DA600C37BD465DF8047BB9
:1005D000704700BF80B485B000AFF8600B467A600A
:1005E000FB7297F90B30062B2CD801A252F823F09E
:1005F0000D060000150600001D060000250600007F
:100600002D060000350600003D060000FB687A68F4
:100610009A6118E0FB687A68DA6114E0FB687A682E
:100620001A6210E0FB687A685A620CE0FB687A682C
:100630001A6408E0FB687A685A6404E0FB687A6828
:100640009A6400E000BF1437BD465DF8047B704734
:1006500080B483B000AF78600B46FB707B685B6949
:10066000FA7802F007025100FA7802F007020A4411
:10067000012101FA02F21A437B685A610C37BD4628
:100680005DF8047B704700BF80B483B000AF786032
:100690000B46FB707B68596997F9032013465B0092
:1006A00013440133012202FA03F341EA03027B6897
:1006B0005A610C37BD465DF8047B704780B483B047
:1006C00000AF78600B46FB707B68596997F903208F
:1006D00013465B0013440133012202FA03F3DB43A8
:1006E00001EA03027B685A610C37BD465DF8047B62
:1006F000704700BF80B483B000AF78600B46FB70DA
:100700007B68596997F9032013465B001344023351
:10071000012202FA03F3DB4301EA03027B685A6118
:100720000C37BD465DF8047B704700BF80B500AF55
:100730000F480021FFF740FF0D4800214FF47A7267
:10074000FFF748FF0A480021FFF782FF0848002111
:10075000FFF79AFF06480021FFF7CCFF044802F09C
:10076000BFFB0348FFF712FF0920FFF7C9FD80BD5B
:100770000080014080B582B000AF0346FB71FB7979
:10078000214A52F82330DBB22048194600220023C8
:1007900002F0C2FBFB791C4A52F82330DBB25BB299
:1007A0001A4819461422FFF715FFFB79164A52F82A
:1007B0002330DBB25BB215481946FFF749FFFB79DE
:1007C000114A52F82330DBB25BB210481946FFF7EA
:1007D00075FFFB790C4A52F82330DBB25BB20B4851
:1007E0001946FFF787FFFB79074A52F82330DBB23F
:1007F00006481946012202F0D5FB044802F070FBBE
:100800000837BD4680BD00BF480100100080014090
:1008100090B583B000AF0346FB71FA79B249134635
:100820005B0013449B000B441C68FA79AF491346E4
:100830005B0013449B000B441B68AD4821461A46DD
:100840000123FFF74DFEFA79A74913465B001344D5
:100850009B000B4404331C68FA79A44913465B00DF
:1008600013449B000B4404331B68A14821461A46DD
:100870000123FFF735FEFA799B4913465B001344C9
:100880009B000B4408331C68FA79984913465B00B7
:1008900013449B000B4408331B68954821461A46B5
:1008A0000123FFF71DFEFA79924913465B001344BA
:1008B0009B000B441C68FA798F4913465B00134474
:1008C0009B000B441B688A4821461A460123FFF708
:1008D00007FEFA79874913465B0013449B000B44DB
:1008E00004331C68FA79844913465B0013449B0067
:1008F0000B4404331B687E4821461A460123FFF748
:10090000EFFDFA797B4913465B0013449B000B44CF
:1009100008331C68FA79784913465B0013449B003E
:100920000B4408331B68724821461A460123FFF71F
:10093000D7FDFA796C4913465B0013449B000B44C6
:100940001C68FA79694913465B0013449B000B4409
:100950001B68DBB2664821461A460023FFF71CFDE0
:10096000FA79614913465B0013449B000B4404333E
:100970001C68FA795D4913465B0013449B000B44E5
:1009800004331B68DBB25A4821461A460023FFF79E
:1009900003FDFA79544913465B0013449B000B4452
:1009A00008331C68FA79514913465B0013449B00D5
:1009B0000B4408331B68DBB24D4821461A4600231E
:1009C000FFF7EAFCFA794B4913465B0013449B009E
:1009D0000B441C68FA79484913465B0013449B009A
:1009E0000B441B68DBB2424821461A460123FFF73D
:1009F000D3FCFA793F4913465B0013449B000B4438
:100A000004331C68FA793C4913465B0013449B008D
:100A10000B4404331B68DBB2354821461A460123D8
:100A2000FFF7BAFCFA79334913465B0013449B0085
:100A30000B4408331C68FA792F4913465B001344B2
:100A40009B000B4408331B68DBB2294821461A4639
:100A50000123FFF7A1FCFA79284913465B001344F0
:100A60009B000B441C68FA79254913465B0013442C
:100A70009B000B441B681E4821461A460023FFF7C3
:100A80002FFDFA791D4913465B0013449B000B446C
:100A900004331C68FA791A4913465B0013449B001F
:100AA0000B4404331B68124821461A460023FFF703
:100AB00017FDFA79114913465B0013449B000B4460
:100AC00008331C68FA790E4913465B0013449B00F7
:100AD0000B4408331B68064821461A460023FFF7DB
:100AE000FFFC0C37BD4690BD640000109400001060
:100AF00000C009200400001034000010C4000010E1
:100B0000F400001090B583B000AF0346FB71FB7991
:100B1000554A52681146554A42F82310FB79524A09
:100B2000D26891B2524A22F81310FB79FA795049EF
:100B300031F8122091B24F4A22F81310FA794E4937
:100B400013465B0013449B000B441C68FA794B4925
:100B500013465B0013449B000B441B68DBB2484800
:100B600021461A460023FFF717FCFA79424913463B
:100B70005B0013449B000B4404331C68FA793F4923
:100B800013465B0013449B000B4404331B68DBB229
:100B90003B4821461A460023FFF7FEFBFA79364907
:100BA00013465B0013449B000B4408331C68FA791E
:100BB000324913465B0013449B000B4408331B6807
:100BC000DBB22F4821461A460023FFF7E5FBFA79EE
:100BD0002C4913465B0013449B000B441C68FA79B4
:100BE000294913465B0013449B000B441B68DBB28E
:100BF000234821461A460123FFF7CEFBFA79214903
:100C000013465B0013449B000B4404331C68FA79C1
:100C10001D4913465B0013449B000B4404331B68BF
:100C2000DBB2174821461A460123FFF7B5FBFA79D4
:100C3000144913465B0013449B000B4408331C68A3
:100C4000FA79114913465B0013449B000B440833A7
:100C50001B68DBB20A4821461A460123FFF79CFBBA
:100C60000C37BD4690BD00BF24010010E8090010FC
:100C7000F8090010000A0010640000109400001031
:100C800000C00920040000103400001080B582B0BC
:100C900000AF0346FB71634B1B68012B11D0012B86
:100CA00002D3022B42D09AE0FB79184600F0D2F82A
:100CB000FB795D4A002142F823105A4B01221A6049
:100CC000A9E0FB79584A52F82330092B0ED8FB795A
:100CD000564A52F82320FB79554951F823309A425D
:100CE00023D3FB79184600F0B5F894E0514B1A690C
:100CF000504BDB68D21A4F4B1B6892FBF3F31A463A
:100D00004D4B1A604B4B5A684A4B9B68D21A494B61
:100D10001B6892FBF3F31A46484B1A60484B0022BB
:100D20001A60404B02221A6075E074E0FB79404A79
:100D300052F823303F4A9268934233D9FB793B4AB9
:100D400052F82320FB793A4951F823309A4245D38F
:100D5000FB79184600F07EF8FB79364AD26891B2EA
:100D6000374A126892B23448006880B200FB02F23F
:100D700092B20A4491B2334A22F81310FB792D4AF9
:100D8000526810462E4A12682C49096801FB02F28B
:100D9000821A274941F82320294B1B680133284A2E
:100DA000136038E0FB79274A962122F81310FB796B
:100DB000254A52F82330D9B2FB79224A32F813304F
:100DC0009BB21A464BB221481946FFF703FC204B51
:100DD00001221A70134B00221A601CE01BE0FB7901
:100DE000184A962122F81310FB79174A52F823303B
:100DF000D9B2FB79134A32F813309BB21A464BB280
:100E000012481946FFF7E6FB114B01221A70054BF9
:100E100000221A6000BF0E4B1B7818460837BD46EB
:100E200080BD00BF9C090010180A0010C009001006
:100E3000E809001024010010A0090010A409001006
:100E400000000010F8090010480100100080014067
:100E5000A8090010B0B582B000AF0346FB71FB7962
:100E60009D4A32F813309AB2FB799C4931F813301D
:100E70009BB29A4218D0FB79994A52F82330D9B2E2
:100E8000FB79954A32F813309BB21A464BB295481B
:100E90001946FFF79FFBFB79FA798F4931F8122049
:100EA00091B28E4A22F81310FB798F4A52F8233000
:100EB000042B00F2E08001A252F823F0D10E0000D2
:100EC000330F0000710F0000D30F0000111000005D
:100ED000FA79864913465B0013449B000B440833A0
:100EE0001C68FA79824913465B0013449B000B444B
:100EF00008331B68DBB27F4821461A460123FFF7FF
:100F00004BFAFA79794913465B0013449B000B4472
:100F10001C68FA79764913465B0013449B000B4426
:100F20001B68DBB2734821461A460023FFF734FAE8
:100F3000BDE0FA79704913465B0013449B000B44F3
:100F400004331C68FA796D4913465B0013449B0017
:100F50000B4404331B68DBB2664821461A46002363
:100F6000FFF71AFAFB79664A022142F823109EE045
:100F7000FA795E4913465B0013449B000B441C68DE
:100F8000FA795B4913465B0013449B000B441B68D2
:100F9000DBB2584821461A460123FFF7FDF9FA79DA
:100FA000524913465B0013449B000B4404331C68F6
:100FB000FA794F4913465B0013449B000B440433FA
:100FC0001B68DBB24B4821461A460023FFF7E4F9C1
:100FD0006DE0FA79484913465B0013449B000B44CB
:100FE00008331C68FA79454913465B0013449B009B
:100FF0000B4408331B68DBB23E4821461A460023E7
:10100000FFF7CAF9FB793E4A002142F823104EE06F
:10101000FA79364913465B0013449B000B440433B2
:101020001C68FA79324913465B0013449B000B4459
:1010300004331B68DBB22F4821461A460123FFF711
:10104000ABF9FA79294913465B0013449B000B4422
:1010500008331C68FA79264913465B0013449B0049
:101060000B4408331B68DBB2224821461A46002392
:10107000FFF792F91BE0FA791F4913465B0013440E
:101080009B000B441C68FA791C4913465B0013440F
:101090009B000B441B68DBB2164821461A4600230E
:1010A000FFF77AF9FB79164A012142F82310FB7900
:1010B0000D4A52F82330042B26D9FB790A4A002125
:1010C00042F82310FB790F4A52F8232001320D49D0
:1010D00041F8232021E000BFF8090010000A0010A9
:1010E0004801001000800140080A001004000010B0
:1010F0003400001000C009206400001094000010AB
:10110000B0090010180A0010FB79FA793A4951F831
:1011100022200132384941F82320FB79374A002147
:1011200042F82310FC79FA79354913465B001344E1
:101130009B000B441D68FA79324913465B00134447
:101140009B000B441B68DBB22F4829461A46FFF769
:1011500057F9034619462D4A23465B00234413449E
:101160000A461A70FC79FA79254913465B00134444
:101170009B000B4404331D68FA79224913465B0037
:1011800013449B000B4404331B68DBB21E48294602
:101190001A46FFF735F9034619461C4A23465B00F9
:1011A0002344134401330A461A70FC79FA7914492E
:1011B00013465B0013449B000B4408331D68FA7907
:1011C000104913465B0013449B000B4408331B6813
:1011D000DBB20D4829461A46FFF712F903461946B5
:1011E0000A4A23465B002344134402330A461A701A
:1011F0000837BD46B0BD00BF080A0010C009001086
:10120000C4000010F400001000C00920DC09001028
:1012100080B500AF6B480021FFF774F90346002B3F
:101220005DD0694B1B680133674A1360664B5B688E
:101230000133654A5360644B9B680133624A936093
:10124000614BDB680133604AD3605E480021FFF7E1
:101250007DF95E4B1B685E4A52F823105B4B1B689E
:101260005C4A52F82330DBB25B481A460123FFF791
:1012700093F8564B5B68564A033352F82310534B8E
:101280005B68544A033352F82330DBB252481A46A3
:101290000123FFF781F84D4B9B684D4A063352F806
:1012A00023104A4B9B684B4A063352F82330DBB27B
:1012B00049481A460123FFF76FF8444BDB68444A5C
:1012C000093352F82310414BDB68424A093352F884
:1012D0002330DBB240481A460123FFF75DF8394856
:1012E0000321FFF70FF90346002B13D035480321E4
:1012F000FFF72CF9354B1B68354A52F82310334B56
:101300001B68344A52F82330DBB233481A460023B4
:10131000FFF742F82B480421FFF7F4F80346002BAF
:1013200015D028480421FFF711F9284B5B68284A9B
:10133000033352F82310254B5B68264A033352F8D7
:101340002330DBB224481A460023FFF725F81D4856
:101350000521FFF7D7F80346002B15D019480521C2
:10136000FFF7F4F8194B9B68194A063352F823101B
:10137000164B9B68174A063352F82330DBB21648E7
:101380001A460023FFF708F80E480621FFF7BAF8BF
:101390000346002B15D00B480621FFF7D7F80B4B5F
:1013A000DB680B4A093352F82310084BDB68094A03
:1013B000093352F82330DBB207481A460023FEF700
:1013C000EBFF80BD00800140C0090010B009001093
:1013D000640000109400001000C0092090B585B092
:1013E00000AF7860154B1B68002B02D1134B144AD9
:1013F0001A60124B1B68FB60EFF308831C46234600
:10140000BB600E4B1A687B681A44BB689A420AD9C3
:1014100002200C49192200F019F80B4B0C221A601B
:101420004FF0FF3306E0054B1A687B681344034A0C
:101430001360FB6818461437BD4690BDAC09001018
:10144000D00B0010C83E0000CC0B001080B485B05B
:1014500000AFF860B9607A60FB68012B07D0022BFF
:1014600007D0084B09221A604FF0FF3303E000BF9A
:1014700000E000BF7B6818461437BD465DF8047B6A
:10148000704700BFCC0B001080B483B000AF786011
:101490000B46FB701346BB70FB785B017A68134404
:1014A0005A69BB7822FA03F303F00103002B14BF3F
:1014B00001230023DBB218460C37BD465DF8047BE0
:1014C000704700BF80B584B000AFF860B9601346C4
:1014D000FB71BB68DAB2FB79F86811461A46FFF770
:1014E000D3FF034618461037BD4680BD80B500AF18
:1014F00001F010FE0020FFF73DF90120FFF73AF957
:101500000220FFF737F90320FFF734F9FFF70EF950
:101510000020FFF77DF90120FFF77AF90220FFF79D
:1015200077F90320FFF774F90020FFF7EBFA0120A9
:10153000FFF7E8FA0220FFF7E5FA0320FFF7E2FAE7
:1015400080BD00BFB0B584B000AF78607B68FB6041
:101550006A4B1B68184600214FF0FF32002300F051
:1015600027FAFB681B781C46FB681B781946644AFF
:101570000B465B000B449B0013441D68FB681B7803
:101580001946604A0B465B000B449B0013441B68E2
:10159000DBB25D4829461A46FFF794FF0346194619
:1015A0005A4A23465B00234413440A461A70FB68D8
:1015B0001B781C46FB681B781946514A0B465B009A
:1015C0000B449B00134404331D68FB681B781946C9
:1015D0004C4A0B465B000B449B00134404331B68CE
:1015E000DBB2494829461A46FFF76CFF0346194605
:1015F000464A23465B002344134401330A461A70CB
:10160000FB681B781C46FB681B7819463C4A0B4656
:101610005B000B449B00134408331D68FB681B7878
:101620001946384A0B465B000B449B0013440833B1
:101630001B68DBB2344829461A46FFF743FF0346CE
:101640001946324A23465B002344134402330A46B8
:101650001A70FB681B7819462D4A0B465B000B4439
:1016600013441B78DAB2FB681B78184627490346F7
:101670005B0003440B441B78DBB29A422FD1FB681A
:101680001B781946224A0B465B000B441344013376
:101690001B78DAB2FB681B7818461C4903465B00CE
:1016A00003440B4401331B78DBB29A4217D1FB6829
:1016B0001B781946164A0B465B000B441344023351
:1016C0001B78DAB2FB681B781846104903465B00AA
:1016D00003440B4402331B78DBB29A4204D0FB680C
:1016E0001B781846FFF7B6FB044B1B681846002111
:1016F0000022002300F0D0F82AE700BFC40B00103E
:10170000C4000010F400001000C00920D00900102F
:10171000DC09001080B584B000AF78607B68FB60A6
:10172000FB681B781846FFF7B1FA03461A46054BCB
:101730001A70044B1B78002B02D0002000F008FE2A
:10174000EEE700BF280A001080B584B004AFFFF7B1
:10175000CDFE022300930023019300230293002374
:1017600003931C481C4980221C4B00F055FD0123AB
:10177000009300230193002302930023039318484E
:1017800018498022154B00F047FD022300930023E7
:10179000019300230293002303930E4812498022F1
:1017A000124B00F039FD0123009300230193002325
:1017B0000293002303930A480D4980220B4B00F04B
:1017C0002BFD012000F02AF802460A4B1A6000F0B7
:1017D00007FEFEE715170000E43E00003801001088
:1017E00045150000F43E0000FC3E00003C010010E6
:1017F0000C3F0000C40B001080B582B000AF054B59
:101800007B60054A7B681A6001F062FB0837BD46C1
:1018100080BD00BF08ED00E00000000080B584B08E
:1018200000AF0346FB714C2001F0FAFAF860FB6848
:10183000002B2CD0FB6800225A60FB6800221A6043
:10184000FB6800229A60FB680022DA60FB680022D5
:101850009A63FB680122DA63FB6800221A64FB6862
:101860004FF0FF325A64FB684FF0FF329A64FB6816
:101870001033184600F05CFAFB682433184600F079
:1018800057FAF86800210022002300F005F8FB68F1
:1018900018461037BD4680BD80B588B000AFF860EF
:1018A000B9607A603B600023FB61FB68BB6100F0BC
:1018B00069FBBB699A6BBB69DB6B9A4202D33B68DD
:1018C000022B16D1B869B9683A6800F029F9BB69EA
:1018D0005B6A002B09D0BB692433184600F0B2FFC5
:1018E0000346012B01D100F03DFB00F05BFB01231F
:1018F00059E07B68002B03D100F054FB002352E039
:10190000FB69002B06D107F11003184600F0F0FF29
:101910000123FB6100F046FB00F08CFD00F032FB80
:10192000BB695B6CB3F1FF3F02D1BB6900225A6413
:10193000BB699B6CB3F1FF3F02D1BB6900229A6483
:1019400000F030FB07F110023B1D1046194600F075
:10195000E5FF0346002B1ED1B86900F0D1F903461C
:10196000002B12D0BB6903F110027B6810461946A8
:1019700000F038FFB86900F061F900F091FD03460E
:10198000002B0FD100F0EEFA0CE0B86900F056F928
:1019900000F086FD8BE7B86900F050F900F080FD9B
:1019A000002300E083E718462037BD4680BD00BF16
:1019B00080B58AB000AFF860B9607A603B60002300
:1019C0007B62FB683B6200F0DDFA3B6A9B6B002B9D
:1019D0003BD03B6ADB68FB61386AB96800F008F904
:1019E0003B68002B1CD13B6A9B6B5A1E3B6A9A6377
:1019F0003B6A1B68002B04D101F06AF902463B6A7E
:101A00005A603B6A1B69002B1BD03B6A1033184697
:101A100000F018FF0346012B13D100F0A3FA10E0E9
:101A20003B6AFA69DA603B6A5B6A002B09D03B6A61
:101A30002433184600F006FF0346002B01D000F0C7
:101A400091FA00F0AFFA012366E07B68002B03D126
:101A500000F0A8FA00235FE07B6A002B06D107F1B3
:101A60001403184600F044FF01237B6200F09AFA49
:101A700000F0E0FC00F086FA3B6A5B6CB3F1FF3FDC
:101A800002D13B6A00225A643B6A9B6CB3F1FF3F70
:101A900002D13B6A00229A6400F084FA07F1140232
:101AA0003B1D1046194600F039FF0346002B2BD191
:101AB000386A00F00FF90346002B1FD03B6A1B6801
:101AC000002B08D100F05EFA3B6A5B68184601F013
:101AD0000FF900F067FA3B6A03F124027B681046B5
:101AE000194600F07FFE386A00F0A8F800F0D8FC34
:101AF0000346002B0FD100F035FA0CE0386A00F0F5
:101B00009DF800F0CDFC5EE7386A00F097F800F031
:101B1000C7FC002300E056E718462837BD4680BDC5
:101B200080B584B000AFF860B9607A60FB681B6C68
:101B3000002B0CD1FB681B68002B51D1FB685B6844
:101B4000184601F02FF9FB6800225A6048E07B68D4
:101B5000002B1AD1FB689A68FB681B6C1046B968A9
:101B60001A4601F0ADFFFB689A68FB681B6C1A44CB
:101B7000FB689A60FB689A68FB685B689A422FD39F
:101B8000FB681A68FB689A602AE0FB68DA68FB6801
:101B90001B6C1046B9681A4601F092FFFB68DA68C0
:101BA000FB681B6C5B421A44FB68DA60FB68DA680E
:101BB000FB681B689A4207D2FB685A68FB681B6C7B
:101BC0005B421A44FB68DA607B68022B08D1FB6831
:101BD0009B6B002B04D0FB689B6B5A1EFB689A63BF
:101BE000FB689B6B5A1CFB689A631037BD4680BD2F
:101BF00080B582B000AF786039607B681B68002BCD
:101C000019D07B68DA687B681B6C1A447B68DA60E1
:101C10007B68DA687B685B689A4203D37B681A68E2
:101C20007B68DA607B68DA687B681B6C3868114611
:101C30001A4601F045FF0837BD4680BD80B582B029
:101C400000AF786000F09EF914E07B685B6A002BBF
:101C50000AD07B682433184600F0F4FD0346002BBD
:101C600003D000F09FFE00E008E07B689B6C5A1EEA
:101C70007B689A647B689B6C002BE6DC7B684FF08A
:101C8000FF329A6400F08EF900F07CF914E07B6872
:101C90001B69002B0FD07B681033184600F0D2FD73
:101CA0000346002B01D000F07DFE7B685B6C5A1E62
:101CB0007B685A6400E003E07B685B6C002BE6DC29
:101CC0007B684FF0FF325A6400F06CF90837BD466C
:101CD00080BD00BF80B584B000AF786000F052F9DD
:101CE0007B689B6B002B02D10123FB6001E000238A
:101CF000FB6000F057F9FB6818461037BD4680BD01
:101D000080B584B000AF786000F03CF97B689A6BD6
:101D10007B68DB6B9A4202D10123FB6001E0002368
:101D2000FB6000F03FF9FB6818461037BD4680BDE8
:101D300080B483B000AF78607B6803F108027B68F1
:101D40005A607B684FF0FF329A607B6803F10802AB
:101D50007B68DA607B6803F108027B681A617B6844
:101D600000221A600C37BD465DF8047B704700BF47
:101D700080B483B000AF78607B6800221A610C37B2
:101D8000BD465DF8047B704780B485B000AF7860D5
:101D900039607B685B68FB603B68FA685A60FB6887
:101DA0009A683B689A60FB689B683A685A60FB686F
:101DB0003A689A603B687A681A617B681B685A1CAB
:101DC0007B681A601437BD465DF8047B704700BF1E
:101DD00080B485B000AF786039603B681B68BB6039
:101DE000BB68B3F1FF3F03D17B681B69FB600CE06C
:101DF0007B680833FB6002E0FB685B68FB60FB68A4
:101E00005B681A68BB689A42F6D9FB685A683B68F7
:101E10005A603B685B683A689A603B68FA689A6007
:101E2000FB683A685A603B687A681A617B681B688D
:101E30005A1C7B681A601437BD465DF8047B7047F6
:101E400080B485B000AF78607B685B687A68926820
:101E50009A607B689B687A6852685A607B681B69E5
:101E6000FB60FB685A687B689A4203D17B689A687A
:101E7000FB685A607B6800221A61FB681B685A1E67
:101E8000FB681A60FB681B6818461437BD465DF88E
:101E9000047B704780B485B000AFF860B9607A60A9
:101EA000FB68043BFB60FB684FF080721A60FB68C4
:101EB000043BFB60BA68FB681A60FB68043BFB608C
:101EC000094AFB681A60FB68143BFB607A68FB6890
:101ED0001A60FB68203BFB60FB6818461437BD4660
:101EE0005DF8047B704700BFED1E000080B500AFB9
:101EF00000F06AF8FEE700BF064B19680868B0E812
:101F0000F00F80F309884FF0000080F311884EF045
:101F10000D0E7047380A001003480068006880F30F
:101F2000088862B600DF00BF08ED00E080B500AFB2
:101F30000A4A0A4B1B6843F478031360074A074BAD
:101F40001B6843F07843136000F02AF9044B002229
:101F50001A60FFF7E1FF0023184680BD20ED00E086
:101F60005801001080B400AF054B4FF080521A604A
:101F7000BFF34F8FBFF36F8FBD465DF8047B704793
:101F800004ED00E080B500AF00F01EF8044B1B68C4
:101F90000133034A1360BFF34F8FBFF36F8F80BDD0
:101FA0005801001080B500AF064B1B68013B054A85
:101FB0001360044B1B68002B02D1002000F00EF8C8
:101FC00080BD00BF58010010EFF311804FF02801D1
:101FD00081F3118870470023184600BF80F31188F1
:101FE000704700BFEFF309800C4B1A6820E9F00F2F
:101FF00010602DE908404FF0280080F3118800F0B0
:10200000A5FB4FF0000080F31188BDE80840196877
:102010000868B0E8F00F80F309887047380A0010AC
:1020200080B500AFFFF7D0FF00F0CAFA0346002BDF
:1020300003D0044B4FF080521A600020FFF7CEFF10
:1020400080BD00BF04ED00E080B588B000AF7860CF
:102050004D4B1B687A689A4202D94B4B1B687B60D8
:102060004A4B06221A604A4B1A687B68013B494971
:10207000096801FB03F31344FB61474B1B68FA69D2
:102080009A4204D9444B1B68FA69D31AFB6172B6B1
:1020900000F0B8FC0346002B0DD1404A3C4B1B68B6
:1020A00013603A4B07221A603C4A3A4B1B68013BCB
:1020B000136062B665E0394AFB691360344B002255
:1020C0001A60324B07221A607B683B613B69002B28
:1020D00004D0BFF34F8F30BFBFF36F8F2B4B06225F
:1020E0001A6062B6294B1B6803F48033002B1DD0A5
:1020F000284B1A68264B1968FB69CB1A1344013B1D
:102100007B61254B1B687A699A4204D3214B1B687B
:102110007A699A4203D91F4B1B68013B7B611F4AB6
:102120007B6913607B68013BBB6118E0194B1B683E
:102130007A6802FB03F2164B1B68D31AFB60154B3F
:102140001B68FA68B2FBF3F3BB611449BB69013346
:10215000104A126802FB03F2FB68D31A0B600C4BA7
:1021600000221A60FFF70EFF084B07221A60B869B9
:1021700000F014FA094A074B1B68013B1360FFF794
:1021800011FF2037BD4680BD300A001010E000E08E
:1021900018E000E02C0A0010340A001014E000E0FF
:1021A00080B400AF154B1B68154AA2FB03239B09A3
:1021B000144A1360134B1B686FF07F42B2FBF3F3BA
:1021C000114A13600D4B1A680C4B1B68B2FBF3F3FA
:1021D0002D22B2FBF3F30D4A13600D4A074B1B6827
:1021E0000749A1FB03139B09013B1360094B07221D
:1021F0001A60BD465DF8047B704700BFC80B001035
:10220000D34D62102C0A0010300A0010340A00105E
:1022100014E000E010E000E080B58AB002AFF860A2
:10222000B9603B601346FB80FB881846396B00F0B1
:102230000DFDB861BB69002B66D0BB691A6BFB88CA
:1022400003F18043013B9B0013447B617B6923F0D6
:1022500007037B61FB880093B869B968BA6A7B6B36
:1022600000F0FEFB7869F9683A68FFF713FE024652
:10227000BB691A60FB6A002B02D0FB6ABA691A605C
:10228000FFF780FE2C4B1B6801332B4A13602B4B4E
:102290001B68002B09D1294ABB691360264B1B68B8
:1022A000012B0FD100F024FC0CE0254B1B68002B08
:1022B00008D1224B1B68DA6ABB6A9A4202D81F4ACD
:1022C000BB6913601F4B1B6801331E4A1360BB6957
:1022D000DA6A1D4B1B689A4203D9BB69DB6A1A4A4A
:1022E0001360BB69DA6A13469B0013449B00174ACC
:1022F0001A44BB69043310461946FFF745FD012314
:10230000FB61FFF74FFE02E04FF0FF33FB61FB691B
:10231000012B0BD10A4B1B68002B07D0074B1B6806
:10232000DA6ABB6A9A4201D2FFF71CFEFB691846C3
:102330002037BD4680BD00BF4C0B0010380A00108E
:10234000580B00106C0B0010540B00103C0A0010CE
:1023500080B584B000AF7860FFF714FE7B68002B77
:1023600002D11B4B1B6800E07B68FB60FB680433F9
:102370001846FFF765FDFB689B6A002B04D0FB68DD
:1023800018331846FFF75CFDFB6804331148194603
:10239000FFF7FAFCFFF706FE0D4B1B68FA689A423E
:1023A00012D10D4B1B68002B02D0FFF7DBFD0BE0B9
:1023B000084B1A68094B1B689A4203D1044B002250
:1023C0001A6001E000F0C2F91037BD4680BD00BFC1
:1023D000380A0010380B0010580B00104C0B00107E
:1023E00080B586B004AF002300930023019300233F
:1023F0000293002303930B480B4980220023FFF72D
:102400000BFF78607B68012B09D1FFF7DDFD074BDF
:1024100001221A60064B00221A60FFF787FD083779
:10242000BD4680BDBD290000143F0000580B0010C0
:10243000500B001080B400AF044B1B680133034AFB
:102440001360BD465DF8047B704700BF5C0B001055
:1024500080B483B000AF0E4B1B68DB6A002B02D048
:1024600000237B600CE00B4B1B68012B02D900237F
:102470007B6005E0084B1A68084B1B68D31A7B6029
:102480007B6818460C37BD465DF8047B704700BF7B
:10249000380A00103C0A00105C010010500B0010BC
:1024A00080B582B000AF00237B60FFF76BFD334B3C
:1024B0001B68013B314A1360304B1B68002B56D11F
:1024C0002F4B1B68002B52D02FE02E4BDB68DB68B4
:1024D0003B603B6818331846FFF7B2FC3B68043397
:1024E0001846FFF7ADFC3B68DA6A274B1B689A4237
:1024F00003D93B68DB6A244A13603B68DA6A1346F7
:102500009B0013449B00214A1A443B680433104645
:102510001946FFF739FC3B68DA6A1D4B1B68DB6A1A
:102520009A4202D31B4B01221A60164B1B68002BE8
:10253000CBD1194B1B68002B11D00CE000F040F8F8
:102540000346002B02D0134B01221A60124B1B686A
:10255000013B114A1360104B1B68002BEED10D4B51
:102560001B68012B03D101237B60FFF7FBFCFFF706
:1025700019FD7B6818460837BD4680BD5C0B00100E
:102580004C0B00100C0B0010540B00103C0A0010F8
:10259000380A0010640B0010600B001080B483B088
:1025A00000AF7860054B1A687B681344034A1360D8
:1025B0000C37BD465DF8047B704700BF500B001020
:1025C00080B586B000AF00237B61554B1B68002BA4
:1025D00040F09580534B1B680133524A1360514BB6
:1025E0001B683B613B69002B26D14F4B1B68FB608E
:1025F0004E4B1B684C4A13604C4AFB6813604C4BB3
:102600001B6801334A4A1360474B1B681B68002B49
:1026100001D1012300E00023002B04D0454B4FF0F3
:10262000FF321A6008E0404B1B68DB68DB68BB6068
:10263000BB685B683F4A13603E4B1B683A699A422D
:102640004ED3394B1B681B68002B01D1012300E0DE
:102650000023002B04D0374B4FF0FF321A603FE0CD
:10266000314B1B68DB68DB68BB60BB685B687B6009
:102670003A697B689A4203D22E4A7B6813602FE046
:10268000BB6804331846FFF7DBFBBB689B6A002B73
:1026900004D0BB6818331846FFF7D2FBBB68DA6A70
:1026A000254B1B689A4203D9BB68DB6A224A136038
:1026B000BB68DA6A13469B0013449B001F4A1A4406
:1026C000BB68043310461946FFF75EFBBB68DA6A45
:1026D0001B4B1B68DB6A9A4201D301237B61B0E785
:1026E000174B1B68DA6A154913469B0013449B007D
:1026F0000B441B68012B07D901237B6104E0114BBC
:102700001B6801330F4A13600F4B1B68002B01D06D
:1027100001237B617B6918461837BD4680BD00BF29
:102720005C0B0010500B0010040B0010080B001085
:10273000680B00105C010010540B00103C0A0010E4
:10274000380A0010600B0010640B001080B483B0D6
:1027500000AF1F4B1B68002B03D01E4B01221A60D9
:1027600031E01C4B00221A6004E01B4B1B68013B4C
:10277000194A1360184B1A68184913469B001344F2
:102780009B000B441B68002BEFD0134B1A681346B9
:102790009B0013449B00114A13447B607B685B6879
:1027A0005A687B685A607B685A687B6808339A422B
:1027B00004D17B685B685A687B685A607B685B6899
:1027C000DB68074A13600C37BD465DF8047B704731
:1027D0005C0B0010640B0010540B00103C0A00103E
:1027E000380A001080B584B000AF78603960124BB1
:1027F0001B68183378681946FFF7EAFA0E4B1B6816
:1028000004331846FFF71CFB3B68B3F1FF3F07D1C9
:10281000094B1B68043309481946FFF7B5FA07E06E
:10282000074B1A683B681344FB60F86800F0D8F95E
:102830001037BD4680BD00BF380A0010380B0010AD
:10284000500B001080B584B000AF78607B68DB6807
:10285000DB68BB60BB6818331846FFF7F1FA1E4B04
:102860001B68002B1DD1BB6804331846FFF7E8FA3C
:10287000BB68DA6A194B1B689A4203D9BB68DB6AEA
:10288000164A1360BB68DA6A13469B0013449B0028
:10289000134A1A44BB68043310461946FFF774FA0A
:1028A00005E0BB6818330F481946FFF76DFABB689F
:1028B000DA6A0D4B1B68DB6A9A4205D30123FB6081
:1028C0000A4B01221A6001E00023FB60FB681846F6
:1028D0001037BD4680BD00BF5C0B0010540B0010CC
:1028E0003C0A00100C0B0010380A0010640B00109A
:1028F00080B483B000AF7860064B1A687B681A60BA
:10290000054B1A687B685A600C37BD465DF8047B3E
:10291000704700BF680B0010500B001080B584B0EA
:1029200000AF78603960FFF72DFB1C4B1B68BB6064
:102930003B681B68B3F1FF3F02D10023FB6026E038
:102940007B681A68164B1B689A4207D07B685A68E6
:10295000BB689A4202D80123FB6018E07B685B6881
:10296000BA68D21A3B681B689A420ED23B681A6852
:102970007B685968BB68CB1A1A443B681A60786850
:10298000FFF7B6FF0023FB6001E00123FB60FFF7C8
:1029900009FBFB6818461037BD4680BD500B001080
:1029A000680B001080B400AF034B01221A60BD46D3
:1029B0005DF8047B704700BF640B001080B584B0E5
:1029C00000AF786000F0D2F80D4B1B68012B01D9E5
:1029D000FFF7C8FA00F048FAFFF73AFDF860FB6825
:1029E000012B0CD9FFF726FDFFF732FDF860FB68DD
:1029F000012B02D9F868FFF727FBFFF751FDE1E74C
:102A00003C0A001080B483B000AF0123FB71104B6F
:102A10001B68002B02D00023FB7112E00D4B1B68DA
:102A2000002B02D00023FB710BE001233B600A4B1B
:102A30001A680A4B19683B68CB1A9A4201D10223E3
:102A4000FB71FB7918460C37BD465DF8047B704777
:102A50000C0B0010640B0010380B00104C0B001016
:102A600080B586B000AFF860B9607A603B60002343
:102A70007B6113E0BA687B6913441978FA687B6953
:102A8000134430330A461A71BA687B6913441B78C1
:102A9000002B00D105E07B6901337B617B69132B3F
:102AA000E8D9FB68002283F847207B68072B01D90F
:102AB00007237B60FB687A68DA62FB687A689A644D
:102AC000FB6804331846FFF753F9FB6818331846C0
:102AD000FFF74EF9FB68FA681A617B68C3F10802D8
:102AE000FB689A61FB68FA685A621837BD4680BD78
:102AF00080B582B000AF00237B600CE07A6813469B
:102B00009B0013449B00114A13441846FFF710F929
:102B10007B6801337B607B68072BEFD90C48FFF79C
:102B200007F90C48FFF704F90B48FFF701F90B48C8
:102B3000FFF7FEF80A48FFF7FBF80A4B044A1A6051
:102B4000094B044A1A600837BD4680BD3C0A001094
:102B5000DC0A0010F00A00100C0B0010200B001013
:102B6000380B0010040B0010080B001080B582B069
:102B700000AF28E0FFF75EFC164B1B68002B0CBF74
:102B800001230023DBB27B60FFF78AFC7B68002B0C
:102B900019D1FFF7F7F90F4BDB68DB683B603B6847
:102BA00004331846FFF74CF90B4B1B68013B0A4AEC
:102BB00013600A4B1B68013B084A1360FFF7F2F9E8
:102BC000386800F075F8054B1B68002BD2D1083728
:102BD000BD4680BD200B00104C0B0010340B0010C4
:102BE00080B582B000AF7860134B1B687A685A607A
:102BF000124B1B687A689A4209D2114B1A680E4B25
:102C00001B68043310461946FFF7E2F810E00D4B3D
:102C10001A68094B1B68043310461946FFF7D8F8A9
:102C2000094B1B687A689A4202D2074A7B68136094
:102C30000837BD4680BD00BF380A0010500B001099
:102C4000080B0010040B00105C01001080B584B06C
:102C500000AF03463960FB804C2000F0E1F8F860DB
:102C6000FB68002B1FD03B68002B06D1FB889B0024
:102C7000184600F0D5F8034600E03B68FA68136395
:102C8000FB681B6B002B05D1F86800F0DBF8002314
:102C9000FB6008E0FB681A6BFB889B001046A521CF
:102CA0001A4600F083FFFB6818461037BD4680BD0A
:102CB00080B582B000AF78607B681B6B184600F06F
:102CC000C1F8786800F0BEF80837BD4680BD00BF87
:102CD00080B483B000AF054B1B687B607B681846EF
:102CE0000C37BD465DF8047B704700BF380A001002
:102CF00080B584B000AF78607B68FB607B68002B98
:102D000046D0FB68DA6A244B1B68DB6A9A423FD2E2
:102D1000214B1B68DB6AC3F10802FB689A61FB6800
:102D20005969FB68DA6A13469B0013449B001B4AEF
:102D30001344994201D1012300E00023002B22D04B
:102D4000FB6804331846FFF77BF8134B1B68DA6AFD
:102D5000FB68DA62FB68DA6A114B1B689A4203D996
:102D6000FB68DB6A0E4A1360FB68DA6A13469B0055
:102D700013449B00094A1A44FB6804331046194661
:102D8000FFF702F804E0044B1B68DA6AFB68DA62BA
:102D90001037BD4680BD00BF380A00103C0A001045
:102DA000540B001080B584B000AF78607B68FB6086
:102DB0007B68002B2CD0FB68DA6AFB689B6C9A421C
:102DC00026D0FB6804331846FFF73AF8FB689A6C84
:102DD000FB68DA62FB68DB6AC3F10802FB689A6190
:102DE000FB68DA6A0C4B1B689A4203D9FB68DB6A02
:102DF000094A1360FB68DA6A13469B0013449B0080
:102E0000064A1A44FB68043310461946FEF7BCFF15
:102E10001037BD4680BD00BF540B00103C0A0010A7
:102E200080B584B000AF7860FFF704FB786800F0ED
:102E3000B1FB0346FB60FFF733FBFB681846103716
:102E4000BD4680BD80B582B000AF78607B68002B46
:102E500006D0FFF7EFFA786800F0A4FBFFF720FB3D
:102E60000837BD4680BD00BF80B400AF30BFBD464F
:102E70005DF8047B704700BF80B485B000AF0346A7
:102E8000FB71084B1B68C3F30B03FB60054AFB791E
:102E90001B031946FB680B4313601437BD465DF8EE
:102EA000047B704700C00F4080B500AF0248034963
:102EB000162200F0FFF880BD00C002401C3F000059
:102EC00080B500AF00F0A0F90420FFF7D5FF80BD6A
:102ED00080B500AFFFF7E8FFFFF7F2FF80BD00BF4E
:102EE00080B485B000AF78607B685B68FB607B680E
:102EF00000225A607B6801229A607B685B6843F01D
:102F000008027B685A607B68FA685A601437BD46CD
:102F10005DF8047B704700BF80B483B000AF786079
:102F2000084611461A460346FB700B46BB70134613
:102F30007B70FB78002B2FD07B78002B0AD07B682E
:102F4000DB6CFA780832012101FA02F21A437B683D
:102F5000DA640AE07B68DB6CFA780832012101FA56
:102F600002F2D2431A407B68DA64BB78012B09D1A4
:102F70007B68DB6CFA78012101FA02F21A437B6864
:102F8000DA6409E07B68DB6CFA78012101FA02F26D
:102F9000D2431A407B68DA640C37BD465DF8047B87
:102FA000704700BF80B483B000AF78600B46FB7001
:102FB0001346BB70BB78002B09D07B681B6DFA7879
:102FC000012101FA02F21A437B681A6509E07B6865
:102FD0001B6DFA78012101FA02F2D2431A407B6894
:102FE0001A650C37BD465DF8047B704790B587B015
:102FF00002AFF8607B600B46FB721346BB727B68C6
:103000009C087B68DBB203F00303DBB2F97ABA7A7F
:103010000093F868234600F003F81437BD4690BDCE
:1030200080B487B000AFF8607B600B46FB7213463C
:10303000BB72BB7A03F00F03DBB25B00FB75FB7A5C
:103040005B00DAB2BB7A1B09DBB21344BB75BA7DF5
:10305000FB6853F82220FB7D032101FA03F3DB43D5
:1030600013403B61BA7D97F82010FB7D01FA03F312
:1030700019463B691943FB6843F82210BA7DFB6887
:10308000103253F82220FB7D032101FA03F3DB43C6
:1030900013403B61BA7DFB7D796899403B691943D8
:1030A000FB68103243F822101C37BD465DF8047BE4
:1030B000704700BF90B587B000AFF860B9607A6024
:1030C00000237B611FE07B699B00BA6813441B7877
:1030D000C3F30203DBB219467B699B00BA68134451
:1030E0001B78C3F3C403DBB21C467B699B00BA6840
:1030F00013441B68C3F31723F8682246FFF776FFD3
:103100007B6901337B617A697B689A42DBD31C3728
:10311000BD4690BD80B500AF00F030FA0246014BCD
:103120001A6080BDC80B001080B400AF074BD3F805
:10313000883003F08073002B14BF01230023DBB21F
:103140001846BD465DF8047B704700BF00C00F40C5
:1031500080B400AF074BD3F8883003F08063002BB6
:1031600014BF01230023DBB21846BD465DF8047B83
:10317000704700BF00C00F4080B400AF074BD3F8CA
:10318000883003F00073002B14BF01230023DBB24F
:103190001846BD465DF8047B704700BF00C00F4075
:1031A00080B400AF054A054BD3F8A03143F02003AB
:1031B000C2F8A031BD465DF8047B704700C00F40E7
:1031C00080B400AF074BD3F8A03103F04003002BCD
:1031D00014BF01230023DBB21846BD465DF8047B13
:1031E000704700BF00C00F4080B483B000AF0346FB
:1031F000FB71044AFB79C2F80C310C37BD465DF80F
:10320000047B704700C00F4080B500AFFFF7B4FFEC
:103210000346002B03D00020022100F0D7F8FFF76F
:1032200083FF0346002B03D00020012100F0CEF8DD
:10323000FFF7C6FF034683F00103DBB2002B01D08A
:10324000FFF7AEFF00BFFFF7BBFF034683F00103AC
:10325000DBB2002BF7D1002000F018F90120FFF7B6
:10326000C3FF00200F21002200F0D2F8002001212E
:1032700000F08AF8032000F009F900BFFFF768FFAB
:10328000034683F00103DBB2002BF7D100200221BB
:1032900000F07AF880BD00BF80B400AF074BD3F8D0
:1032A000883003F08073002B14BF01230023DBB2AE
:1032B0001846BD465DF8047B704700BF00C00F4054
:1032C00080B400AF074BD3F8883003F00073002BB5
:1032D00014BF01230023DBB21846BD465DF8047B12
:1032E000704700BF00C00F4080B483B000AF0346FA
:1032F000FB71094AFB795B0113448833AA225A60A7
:10330000054AFB795B011344883355225A600C3718
:10331000BD465DF8047B704700C00F4080B400AF2D
:10332000054BD3F80C31DBB203F00303DBB21846D4
:10333000BD465DF8047B704700C00F4080B400AF0D
:10334000024B1846BD465DF8047B7047001BB70072
:1033500080B400AF024B1846BD465DF8047B704751
:1033600000093D0080B400AF4FF400431846BD464D
:103370005DF8047B704700BF80B500AF00F0A4F893
:103380000346184680BD00BF80B584B000AF034639
:103390003960FB710C4AFB7904335B0113441B68F1
:1033A000FB60FA683B681343FB60074AFB79043310
:1033B0005B011344FA681A60FB791846FFF794FF23
:1033C0001037BD4680BD00BF00C00F4080B584B03F
:1033D00000AF03463960FB710C4AFB7904335B0193
:1033E00013441B68FB603B68DB43FA681340FB60D7
:1033F000064AFB7904335B011344FA681A60FB79CF
:103400001846FFF771FF1037BD4680BD00C00F4062
:1034100080B586B000AF0346B9607A60FB73FB7B72
:10342000002B05D17B681A04BB6813437B6104E061
:103430007B685A01BB6813437B610A4AFB7B0433F8
:103440005B0113447A695A60064AFB7B04335B01D3
:10345000134401221A60FB7B1846FFF745FF18371B
:10346000BD4680BD00C00F4080B582B000AFFFF701
:1034700027FF0346002B02D00123FB7101E000234C
:10348000FB71FB7918460837BD4680BD80B483B018
:1034900000AF7860044A7B68C2F804310C37BD463F
:1034A0005DF8047B704700BF00C00F4080B400AFE0
:1034B000044BD3F80431DBB201331846BD465DF846
:1034C000047B704700C00F4080B500AFFFF726FFB8
:1034D0000346012B0AD0022B0CD0002B02D000BFD8
:1034E00000230AE0FFF734FF034606E0FFF726FF5C
:1034F000034602E0FFF736FF0346184680BD00BFD3
:1035000080B584B000AF0023FB60FFF7C5FE034623
:10351000002B18D00E4BD3F88430C3F30E030133C5
:10352000BB600B4BD3F884301B0CDBB201337B60E8
:10353000FFF722FF0246BB6803FB02F35A007B68D9
:10354000B2FBF3F3FB60FB6818461037BD4680BD45
:1035500000C00F4080B500AFFFF786FF0346002B89
:1035600005D0012B07D1FFF7CBFF034604E0FFF79F
:10357000ABFF034600E00023184680BD98B500AFBE
:10358000FFF7E8FF0446FFF791FF0346B4FBF3F3B0
:10359000184698BD024B0146186800F00BB800BFF2
:1035A00098090010024B0146186800F0B1BB00BF3B
:1035B000980900102DE9F04F01F10B05162D83B08D
:1035C000064627D935F0070500F1B680A94200F27A
:1035D000B38000F039FBB5F5FC7F22D2BC4FE80880
:1035E00007EBC003DC689C4200F0BC816368E168C3
:1035F00023F0030323445A68A56842F00102E960FE
:1036000030468D605A6000F021FB0834204603B03C
:10361000BDE8F08F102900F28F8000F015FB102517
:10362000DCE7680A00F08F80042800F24781A809CF
:1036300038304100A64F07EB8101CC68A14206D18A
:103640000CE0002A80F28280E468A14206D0636820
:1036500023F003035A1B0F2AF3DD013801309C4984
:103660003C6901F1080E744500F07181636823F034
:1036700003035A1B0F2A00F35781002AC1F814E0F4
:10368000C1F810E066DAB3F5007F80F02D81DB0829
:1036900001EBC3084FEAA30C4A68012303FA0CF3B9
:1036A000D8F808C01343C4F808C0C4F80C804B60B5
:1036B000C8F80840CCF80C408210012494409C4289
:1036C00055D8234206D120F003006400234200F1C4
:1036D0000400FAD007EBC008C4468146DCF80C3081
:1036E0009C4507D135E1002980F24581DB689C4586
:1036F00000F02F815A6822F00302511B0F29F2DDDE
:103700001C46DA6854F808CF45F0010941F0010879
:103710001D44C3F804903046CCF80C20C2F808C011
:103720007D613D61C5F80CE0C5F808E0C5F804808E
:10373000695000F08BFA69E7002420460C233360BF
:1037400003B0BDE8F08F7E213F2073E723445A6821
:10375000E16851E723445A68304642F001025A605A
:10376000083400F073FA204603B0BDE8F08FBC685F
:10377000636823F00308454504D8C5EB08030F2B05
:1037800000F38C80534BDFF85CA11A68DAF8003044
:103790002A44013304EB080B00F0518102F58052FA
:1037A0000F3222F47F6222F00F021146304601925E
:1037B00000F04EFAB0F1FF3F8146019A00F04881D7
:1037C000834500F2EF80444BCB45196811441960E2
:1037D00000F04381DAF80000DFF808E101301BBF98
:1037E000CBEB090B5944CEF80090196019F0070192
:1037F00000F00881C1F10800C1F580518144083111
:103800004A44C2F30B02C2EB010A5146304601930F
:1038100000F01EFA431C019B00F02D81C9EB000251
:10382000524442F001021968BC425144C7F8089062
:103830001960C9F80420DFF8A0A016D0B8F10F0F66
:1038400040F2EF806268A8F10C0323F0070302F056
:103850000102E0184FF0050E1A430F2B6260C0F80A
:1038600004E0C0F808E000F20A811C4BBC681A684A
:10387000914288BF19601A4B1A689142626888BFEA
:10388000196022F003029542A2EB050301D80F2B29
:1038900004DC304600F0DAF90024B7E645F0010216
:1038A00043F00103254462603046BD6008346B601C
:1038B00000F0CCF9204603B0BDE8F08F142869D998
:1038C000542800F29880280B6E304100B2E600BF09
:1038D00060010010780B00107C0B0010740B0010BE
:1038E000700B00106C0500105A0A042A55D9142ACE
:1038F00000F2A7805B324FEA420C07EB8C0CDCF83D
:103900000810DFF8B88161457FD04A6822F00302D1
:10391000934202D289688C45F7D1CA687B68E2601D
:10392000A1609460CC60C7E645F0010742F0010356
:103930002544676030464D610D61C5F80CE0C5F85F
:1039400008E06B60AA50083400F080F95EE64B682E
:10395000B2E609F1010919F0030F0CF1080C7FF42C
:10396000BDAE2CE004F108036469A34208BF023035
:103970003FF475AE3AE61C461A445168DB6854F8C9
:10398000085F41F0010151603046EB609D6000F03E
:103990005DF93BE65B3041004CE69A0938324FEA6C
:1039A000420CAAE7BC42454B3FF40DAF9C686268ED
:1039B00022F0030267E7D8F8008098457CD110F028
:1039C000030FA8F1080300F1FF30F4D17B6823EA6C
:1039D00004037B6064009C423FF6C9AE002C3FF4B8
:1039E000C6AE234248467FF475AE6400234200F120
:1039F0000400FAD06EE6B0F5AA7F18D8E80B77304D
:103A0000410017E64FF48051FAE6D8F804309210DE
:103A10004FF0010C0CFA02F21343C8F804300A46C6
:103A20007DE70123C9F804304C4600222BE740F221
:103A3000545398421CD8A80C7C304100FAE510324F
:103A4000B3E6542A23D81A0B6E324FEA420C54E7DD
:103A5000BC68626822F0030215E7CBF30B00002874
:103A60007FF4B8AE4244BB6842F001025A60FCE603
:103A7000FC217E20DEE501224FF0000AD3E604F1AE
:103A80000801304600F044F9DAF80010EDE6B2F52E
:103A9000AA7F04D8DA0B77324FEA420C2DE740F2C6
:103AA00054518A4204D89A0C7C324FEA420C24E7E3
:103AB0004FF0FC0C7E2220E77B688BE76001001052
:103AC000844641EA000313F0030349D1403A23D36B
:103AD0000B6803604B6843608B688360CB68C3608E
:103AE0000B6903614B6943618B698361CB69C36176
:103AF0000B6A03624B6A43628B6A8362CB6AC3625E
:103B00000B6B03634B6B43638B6B8363CB6BC36345
:103B100040304031403ADBD230320BD30B68036087
:103B20004B6843608B688360CB68C3601030103192
:103B3000103AF3D20C3205D351F8043B40F8043B61
:103B4000043AF9D2043208D0D2071CBF11F8013B65
:103B500000F8013B01D30B8803806046704700BF2B
:103B6000082A13D38B07B1D010F00303AED0C3F1F2
:103B70000403D21ADB071CBF11F8013B00F8013B1C
:103B8000A4D331F8023B20F8023B9FE7043AD9D393
:103B9000013A11F8013B00F8013BF9D20B780370B0
:103BA0004B7843708B7883706046704770B484079D
:103BB00046D0541E002A41D0CDB2034602E0621E18
:103BC000E4B3144603F8015B9A07F8D1032C2ED90D
:103BD000CDB245EA05250F2C45EA054519D92646FB
:103BE00003F11002103E0F2E42F8105C42F80C5CFC
:103BF00042F8085C42F8045C02F11002F2D8A4F129
:103C0000100222F00F0204F00F041032032C1344B0
:103C10000DD91E462246043A032A46F8045BFAD818
:103C2000221F22F003020432134404F003042CB1D7
:103C3000C9B21C4403F8011BA342FBD170BC7047FE
:103C400014460346C2E700BF704700BF704700BF7D
:103C500038B5074C0023054608462360FDF7BEFB38
:103C6000431C00D038BD2368002BFBD02B6038BD2F
:103C7000CC0B0010F8B50C46224F0646FFF7E4FFC8
:103C8000BB685D6825F00305291B01F6EF7121F47F
:103C90007F6121F00F01A1F58054B4F5805F07DB4F
:103CA00030460021FFF7D4FFBB682B44984204D074
:103CB0003046FFF7CBFF0020F8BD30466142FFF7EA
:103CC000C7FF01300DD0104BBA6819682D1B45F0A5
:103CD00001053046091B55601960FFF7B7FF012049
:103CE000F8BD30460021FFF7B3FFBA68831A0F2BE7
:103CF000DEDD064C0449246843F00103001B5360D9
:103D00000860D5E7600100107C0B00106C05001006
:103D100000294ED02DE9F0410C468046FFF794FF74
:103D200054F8047C6249A4F1080527F00102AB189D
:103D30008E6858689E4220F003005AD0FE075860F3
:103D40000BD454F8087C01F1080EED1BAC683A4422
:103D5000744567D0EF68E760BC601C186468E407CE
:103D60000CD4544F9C680244BC427CD0D86842F0CA
:103D70000103E06084606B60AA5003E042F001033D
:103D80006B60AA50B2F5007F14D2D20801EBC203D7
:103D900001244868921004FA02F29C681043AC6057
:103DA000EB6048609D60E5604046BDE8F041FFF78C
:103DB0004DBF7047530A042B47D8930903F13804C9
:103DC000600001EB800083683949834243D0596821
:103DD00021F00301914202D99B689842F7D1DA6839
:103DE000EA60AB6040469560DD60BDE8F041FFF7FA
:103DF0002DBFFF07024407D454F8084C2D1BEB6875
:103E0000A8682244C36098602B4B42F001001B68F5
:103E100068609A428D60C7D3284B40461968FFF707
:103E200029FFC1E719184968C90709D4D9680244AC
:103E30009B6842F00100D9608B606860AA50B3E7CC
:103E400042F001036B60AA50AEE7142B14D803F1C3
:103E50005B046000B5E74A68A4100120A04002435B
:103E60004A601A46BCE742F001034D610D61EC6007
:103E7000AC606B60AA5097E7542B04D8130B03F186
:103E80006E0460009DE7B3F5AA7F04D8D30B03F15D
:103E90007704600095E740F25450834204D8930CB5
:103EA00003F17C0460008CE7FC207E2489E700BFDE
:103EB000600100106801001068050010780B001008
:103EC00065786974000000004865617020616E6467
:103ED00020737461636B20636F6C6C6973696F6EC0
:103EE0000A00000053746172745570204D6F746F36
:103EF000722030004D6F746F722030005374617205
:103F0000745570204D6F746F722031004D6F746F57
:103F10007220310049444C4500000000000A0000B6
:103F2000080A0000200A0000280A0000B00800006B
:103F3000B8090000D00A00000109000009090000CA
:103F40002109000041090000490900005109000051
:103F50007109000079090000810900008909000049
:103F60001A080000780800002208000080080000FD
:083F7000880800004300000076
:103F78000100000000000000000000000300000035
:103F88000000000001000000010000000000000027
:103F98000000000000000000020000000200000015
:103FA800020000001C0000001B0000001A000000B6
:103FB8000A0000001C0000001B00000016000000A2
:103FC80015000000140000000000000001000000BF
:103FD80002000000030000000000000000000000D4
:103FE80001000000010000000100000000000000C6
:103FF80000000000000000000200000002000000B5
:1040080002000000190000001D0000001E00000052
:104018001A0000001900000018000000130000003A
:10402800120000001100000003000000040000005E
:104038000500000001000000010000000100000070
:104048000100000001000000010000000000000065
:104058000000000002000000020000000200000052
:10406800020000001200000013000000140000000D
:104078001500000016000000170000000F000000E7
:104088001000000009000000060000000700000002
:104098000800000096000000B40000001E000000A8
:1040A80014000000400100000000000001000000B2
:1040B80002000000030000000300000004000000EC
:1040C8000500000006000000AAAAAAAAFFFFFFFF39
:1040D80000000000000000006001001060010010F6
:1040E80068010010680100107001001070010010D4
:1040F8007801001078010010800100108001001084
:104108008801001088010010900100109001001033
:104118009801001098010010A0010010A0010010E3
:10412800A8010010A8010010B0010010B001001093
:10413800B8010010B8010010C0010010C001001043
:10414800C8010010C8010010D0010010D0010010F3
:10415800D8010010D8010010E0010010E0010010A3
:10416800E8010010E8010010F0010010F001001053
:10417800F8010010F8010010000200100002001001
:1041880008020010080200101002001010020010AF
:10419800180200101802001020020010200200105F
:1041A800280200102802001030020010300200100F
:1041B80038020010380200104002001040020010BF
:1041C800480200104802001050020010500200106F
:1041D800580200105802001060020010600200101F
:1041E80068020010680200107002001070020010CF
:1041F800780200107802001080020010800200107F
:10420800880200108802001090020010900200102E
:104218009802001098020010A0020010A0020010DE
:10422800A8020010A8020010B0020010B00200108E
:10423800B8020010B8020010C0020010C00200103E
:10424800C8020010C8020010D0020010D0020010EE
:10425800D8020010D8020010E0020010E00200109E
:10426800E8020010E8020010F0020010F00200104E
:10427800F8020010F80200100003001000030010FC
:1042880008030010080300101003001010030010AA
:10429800180300101803001020030010200300105A
:1042A800280300102803001030030010300300100A
:1042B80038030010380300104003001040030010BA
:1042C800480300104803001050030010500300106A
:1042D800580300105803001060030010600300101A
:1042E80068030010680300107003001070030010CA
:1042F800780300107803001080030010800300107A
:104308008803001088030010900300109003001029
:104318009803001098030010A0030010A0030010D9
:10432800A8030010A8030010B0030010B003001089
:10433800B8030010B8030010C0030010C003001039
:10434800C8030010C8030010D0030010D0030010E9
:10435800D8030010D8030010E0030010E003001099
:10436800E8030010E8030010F0030010F003001049
:10437800F8030010F80300100004001000040010F7
:1043880008040010080400101004001010040010A5
:104398001804001018040010200400102004001055
:1043A8002804001028040010300400103004001005
:1043B80038040010380400104004001040040010B5
:1043C8004804001048040010500400105004001065
:1043D8005804001058040010600400106004001015
:1043E80068040010680400107004001070040010C5
:1043F8007804001078040010800400108004001075
:104408008804001088040010900400109004001024
:104418009804001098040010A0040010A0040010D4
:10442800A8040010A8040010B0040010B004001084
:10443800B8040010B8040010C0040010C004001034
:10444800C8040010C8040010D0040010D0040010E4
:10445800D8040010D8040010E0040010E004001094
:10446800E8040010E8040010F0040010F004001044
:10447800F8040010F80400100005001000050010F2
:1044880008050010080500101005001010050010A0
:104498001805001018050010200500102005001050
:1044A8002805001028050010300500103005001000
:1044B80038050010380500104005001040050010B0
:1044C8004805001048050010500500105005001060
:1044D800580500105805001000000200FFFFFFFFFC
:1044E800000000005C080010C40800102C0900102F
:1044F80000000000000000000000000000000000B4
:1045080000000000000000000000000000000000A3
:1045180000000000743F00000000000000000000E0
:104528000000000000000000000000000000000083
:104538000000000000000000000000000000000073
:104548000000000000000000000000000000000063
:104558000000000000000000000000000000000053
:104568000000000000000000000000000000000043
:104578000000000000000000000000000000000033
:104588000000000000000000010000000000000022
:104598000E33CDAB34126DE6ECDE05000B000000E7
:1045A8000000000000000000000000000000000003
:1045B80000000000000000000000000000000000F3
:1045C80000000000000000000000000000000000E3
:1045D80000000000000000000000000000000000D3
:0C4908000000000000000000700500101E
:040000030000017187
:00000001FF
